:100000000DC100001CC5000045C500006EC5000004
:1000100097C50000C0C50000E9C5000012C6000079
:100020003BC600002CC100002AC1000028C100000E
:1000300026C100000C948C0C22C1000020C10000DD
:100040001EC100000C94780E1AC1000018C10000F7
:100050000C94650D14C1000012C1000048C60000D8
:100060000EC100000C9424090C945A0908C1000028
:1000700006C1000004C1000002C1000000C1000070
:100080000C94A50EFCC00000FAC00000F8C00000EF
:100090000C94B0090C94E609F2C00000F0C0000016
:1000A000EEC00000ECC000000C94D20EE8C00000CE
:1000B000E6C00000E4C00000E2C000000C94FF0EA7
:1000C000DEC00000DCC00000DAC000000C943C0A76
:1000D0000C94720AD4C000000C94C80A0C94FE0A56
:1000E000CEC0000063076607550759075F079D07E5
:1000F0006A076E07740778077C07820786078A07F6
:100100009D0790079407980700000A0B02090C0D41
:100110000E080703040100000000000000000000BA
:1001200000000000000000000000000000000000CF
:10013000000000001211100000000000000000008C
:1001400000000000000000000000000000000102AC
:1001500010202008081020401020408002010201D9
:100160000804020101020408102040808040201091
:1001700008040201800402018040201008040201EA
:100180000804020101020408102040800102040852
:10019000102040800505050507050808080802022B
:1001A00002020A0A08080404040401010101010111
:1001B00001010303030303030303040707070C0CF4
:1001C0000C0C0C0C0C0C02020202060606060606BB
:1001D00006060B0B0B0B0B0B0B0B00002200250074
:1001E00028002B002E003100340002010000050120
:1001F00008010B0100002100240027002A002D0027
:100200003000330001010000040107010A0102006F
:1002100083090F0A9B0A270B930B620D11241FBE43
:10022000CFEFD1E2DEBFCDBF00E00CBF12E0A0E017
:10023000B2E0E4EBF7E200E00BBF02C007900D92E2
:10024000A838B107D9F725E0A8E8B2E001C01D92AF
:10025000AC3EB207E1F711E0CEE0D1E000E006C02D
:1002600021970109802FFE010E94B713C830D107E2
:1002700080E00807A9F70E94A1100C94D813C0CE03
:10028000CF92DF92EF92FF926B017C0186E3C8165A
:10029000D104E104F10428F486E3C80ED11CE11C6A
:1002A000F11C60E08C2D4AD6C601FF90EF90DF90E4
:1002B000CF9008950895CF93DF93EB01C4D5998330
:1002C0008883DF91CF910895089560E070E080E821
:1002D0009FE7089560E070E080E89FE7089560E0A0
:1002E00070E080E89FEF089560E070E080E89FEFA5
:1002F000089560E070E080EC9FEF089560E070E0AA
:1003000080EC9FEF0895F5DF6093BA057093BB050D
:100310008093BC059093BD05F1DF6093AE057093AB
:10032000AF058093B0059093B105CFDF6093B6051C
:100330007093B7058093B8059093B905CBDF6093B0
:10034000B2057093B3058093B4059093B505C7DFEC
:100350006093BE057093BF058093C0059093C1055F
:10036000C3DF6093C2057093C3058093C405909367
:10037000C5050895CF93C1E09B01AC010E944C11CB
:10038000811101C0C0E08C2FCF9108952F923F9230
:100390004F925F926F927F928F929F92AF92BF9295
:1003A000CF92DF92EF92FF920F931F93CF93DF9341
:1003B000CDB7DEB766970FB6F894DEBF0FBECDBFE0
:1003C00020912E0230912F02409130025091310243
:1003D0006091160270911702809118029091190293
:1003E0000E94FB126B017C0140902A0250902B026C
:1003F00060902C0270902D029B01AC01C301B201F0
:100400000E94E8109B01AC0160E070E080E89FE38F
:100410000E9450114B015C01A3019201C701B6017A
:100420000E94E710A50194010E94FB122B013C01E0
:10043000C0902602D0902702E0902802F090290276
:10044000A70196016091E0057091E1058091E205B8
:100450009091E3050E944C11882341F0C092E00581
:10046000D092E105E092E205F092E3058091DE058D
:100470009091DF0529DF43E050E0BE016F5F7F4FC1
:100480008091DE059091DF0516DFA0915A02B091B0
:100490005B0229813A810E94BF130E94E91120E08A
:1004A00030E040E053E30E94FB129B01AC016091FD
:1004B00036027091370280913802909139020E9481
:1004C000E71020913A0230913B0240913C0250915A
:1004D0003D020E94FB129B01AC01609132027091BF
:1004E000330280913402909135020E94E7106B0133
:1004F0007C018091E4059091E505A091E605B0911D
:10050000E7058B839C83AD83BE839C01AD01C30152
:10051000B2010E94FB122B013C0120910A02309192
:100520000B0240910C0250910D02C701B6010E94CE
:10053000FB12A30192010E94E7106F8378878987DD
:100540009A8720913E0230913F02409140025091A3
:1005500041020E94FB122B013C012091420230918A
:10056000430240914402509145026B817C818D8110
:100570009E810E94FB129B01AC01C301B2010E944B
:10058000E810A50194010E94FB12209116023091FF
:10059000170240911802509119020E94FB126B87BA
:1005A0007C878D879E8720911A0230911B02409193
:1005B0001C0250911D02C701B6010E94FB126F87F9
:1005C000788B898B9A8B20910E0230910F0240918B
:1005D000100250911102C701B6010E94FB126B83F9
:1005E0007C838D839E832091E8053091E9054091BD
:1005F000EA055091EB056F85788989899A890E946F
:10060000E8102B853C854D855E850E94E8106B01C6
:100610007C0120914E0230914F0240915002509146
:1006200051020E94FB126B8B7C8B8D8B9E8B80907A
:100630001E0290901F02A0902002B0902102A501FE
:100640009401C701B6010E94F712181684F0809039
:10065000120290901302A0901402B0901502A5010E
:100660009401C701B6010E94F71287FF2AC0A501B5
:100670009401C701B6010E94E7104B015C0120E024
:1006800030E0A9010E944C1187FD21C020E030E03C
:10069000A901C501B4010E94F7121816FCF020E070
:1006A00030E0A901C501B4010E944C118823E9F092
:1006B0004090AE055090AF056090B0057090B105C8
:1006C00017C0812C912C54012401350111C0412CFB
:1006D000512C30E8632E3FEB732E0AC0412C512C75
:1006E00020E8622E2FE3722E03C0412C512C3201E0
:1006F00020E030E0A9016B817C818D819E810E9488
:100700004C1187FD1FC020E030E0A9016B817C8186
:100710008D819E810E94F7121816DCF020E030E0F7
:10072000A9016B817C818D819E810E944C1188235F
:10073000B9F0C090AE05D090AF05E090B005F09054
:10074000B10511C0C12CD12C90E8E92E9FEBF92EF8
:100750000AC0C12CD12C80E8E82E8FE3F82E03C00C
:10076000C12CD12C7601C701B60104DE81110BC06A
:1007700020E030E040E853E4C701B6010E942D12AA
:100780006B017C0103C0C12CD12C760120E030E04C
:1007900040E053E4C301B2010E944C1187FF06C040
:1007A000C301B2010E94B811162F01C01FE7A501B5
:1007B00094016B897C898D899E890E944C118823C4
:1007C00049F120E030E0A901C701B6010E944C11B7
:1007D00087FF07C0C701B60190580E94BD116195FF
:1007E00004C0C701B6010E94BD11062E000C770B94
:1007F000812F110F990B6817790761F480914A02D4
:1008000090914B02A0914C02B0914D028B839C833E
:10081000AD83BE8320915202309153024091540225
:10082000509155026B817C818D819E810E94FB12CB
:100830006B017C012091E8053091E9054091EA05C2
:100840005091EB050E94E8104B015C019B01AC014B
:100850006F85788989899A890E94E8102B853C8563
:100860004D855E850E94E8102B013C0120901E0200
:1008700030901F0200912002109121029101A801E5
:100880000E94F712181684F0209012023090130282
:1008900000911402109115029101A801B201C30147
:1008A0000E944C1187FF02C02101380120E030E096
:1008B00040E853E4B201C3010E944C1187FF0EC00F
:1008C00020E030E0A901B201C3010E94F71287FDC8
:1008D00007C0B201C3010E94BD1103C06FEF01C088
:1008E00060E080915C020E94580D8F819885A985F7
:1008F000BA858093E4059093E505A093E605B0934F
:10090000E705A5019401C701B6010E94E8106093B4
:10091000E8057093E9058093EA059093EB056696E8
:100920000FB6F894DEBF0FBECDBFDF91CF911F9100
:100930000F91FF90EF90DF90CF90BF90AF909F907E
:100940008F907F906F905F904F903F902F90089581
:100950000F931F93CF93DF9384E090E0D4DC109249
:10096000C7051092C605C8ECD5E084E2FE011192DD
:100970008A95E9F722E32E8393E39F8384E38887B4
:1009800085E3898786E38A8787E38B8788E38C877B
:1009900089E38D8781E38E8730E33F87888B898B5E
:1009A0008A8B2B8B8C8B9D8B0AE012E0F801848D57
:1009B000958DA68DB78D888F998FAA8FBB8F81E07B
:1009C00090E0A0E0B0E089839A83AB83BC836FE0C2
:1009D00070E080E090E054DC9F8B8E8B20E030E074
:1009E000A90160E070E066DC81E08D83F801608D34
:1009F00080915C020E944E0DF80184AD95ADA6ADCC
:100A0000B7AD8C8F9D8FAE8FBF8F80915602909126
:100A10005702A0915802B091590288A399A3AAA3A2
:100A2000BBA3DF91CF911F910F9108958091C805CD
:100A3000811103C081E08093C805089508951F9235
:100A40000F920FB60F9211240BB60F922F933F9374
:100A50004F935F936F937F938F939F93AF93BF93C6
:100A6000EF93FF93E0916102F09162021995FF917B
:100A7000EF91BF91AF919F918F917F916F915F9116
:100A80004F913F912F910F900BBE0F900FBE0F9083
:100A90001F9018951F920F920FB60F9211240BB64C
:100AA0000F922F933F934F935F936F937F938F9307
:100AB0009F93AF93BF93EF93FF93E0916302F09105
:100AC00064021995FF91EF91BF91AF919F918F9122
:100AD0007F916F915F914F913F912F910F900BBE3E
:100AE0000F900FBE0F901F9018951F920F920FB688
:100AF0000F9211240BB60F922F933F934F935F9356
:100B00006F937F938F939F93AF93BF93EF93FF93D5
:100B1000E0916502F09166021995FF91EF91BF9106
:100B2000AF919F918F917F916F915F914F913F9185
:100B30002F910F900BBE0F900FBE0F901F90189526
:100B40001F920F920FB60F9211240BB60F922F9394
:100B50003F934F935F936F937F938F939F93AF9345
:100B6000BF93EF93FF93E0916702F09168021995AC
:100B7000FF91EF91BF91AF919F918F917F916F9175
:100B80005F914F913F912F910F900BBE0F900FBE31
:100B90000F901F9018951F920F920FB60F9211246D
:100BA0000BB60F922F933F934F935F936F937F9367
:100BB0008F939F93AF93BF93EF93FF93E0915D0269
:100BC000F0915E021995FF91EF91BF91AF919F91C6
:100BD0008F917F916F915F914F913F912F910F90E6
:100BE0000BBE0F900FBE0F901F9018951F920F9283
:100BF0000FB60F9211240BB60F922F933F934F9382
:100C00005F936F937F938F939F93AF93BF93EF9374
:100C1000FF93E0915F02F09160021995FF91EF91CF
:100C2000BF91AF919F918F917F916F915F914F9104
:100C30003F912F910F900BBE0F900FBE0F901F9002
:100C400018951F920F920FB60F9211240BB60F92A8
:100C50002F933F934F935F936F937F938F939F93C4
:100C6000AF93BF93EF93FF93E0916902F0916A0213
:100C70001995FF91EF91BF91AF919F918F917F91C6
:100C80006F915F914F913F912F910F900BBE0F90FD
:100C90000FBE0F901F9018951F920F920FB60F92D4
:100CA00011240BB60F922F933F934F935F936F9343
:100CB0007F938F939F93AF93BF93EF93FF93E091B5
:100CC0006B02F0916C021995FF91EF91BF91AF917A
:100CD0009F918F917F916F915F914F913F912F9154
:100CE0000F900BBE0F900FBE0F901F9018951F9284
:100CF0000F920FB60F9211242F933F938F939F93D0
:100D0000AF93BF938091890290918A02A0918B0248
:100D1000B0918C023091880223E0230F2D3720F40C
:100D20000196A11DB11D05C026E8230F0296A11D45
:100D3000B11D209388028093890290938A02A09328
:100D40008B02B0938C0280918D0290918E02A091C3
:100D50008F02B09190020196A11DB11D80938D026A
:100D600090938E02A0938F02B0939002BF91AF91A7
:100D70009F918F913F912F910F900FBE0F901F90D9
:100D80001895789484B5826084BD84B5816084BDF3
:100D900085B5826085BD85B5816085BDEEE6F0E0F4
:100DA000808181608083E1E8F0E010828081826050
:100DB0008083808181608083E0E8F0E080818160D1
:100DC0008083E1EBF0E0808184608083E0EBF0E001
:100DD000808181608083E1E9F0E0808182608083AE
:100DE000808181608083E0E9F0E0808181608083A0
:100DF000E1EAF0E08081826080838081816080838D
:100E0000E0EAF0E0808181608083E1E2F1E08081CE
:100E100082608083808181608083E0E2F1E0808174
:100E200081608083EAE7F0E0808184608083808154
:100E300082608083808181608083808180688083FC
:100E40001092C1000895863308F0865390917B007C
:100E5000282F2870977F922B90937B00877020918A
:100E60006D0290E4299F90011124822B80937C00D5
:100E700080917A00806480937A0080917A0086FD68
:100E8000FCCF809178002091790090E0922B08951A
:100E900090E0FC013197E231F10508F04EC088275F
:100EA000EE58FF4F8F4F0C94B713809180008F77CF
:100EB00003C0809180008F7D809380000895809191
:100EC0008000877FF9CF84B58F7702C084B58F7D8E
:100ED00084BD08958091B0008F7703C08091B000E9
:100EE0008F7D8093B0000895809190008F7707C028
:100EF000809190008F7D03C080919000877F8093C8
:100F0000900008958091A0008F7707C08091A00085
:100F10008F7D03C08091A000877F8093A0000895FB
:100F2000809120018F7707C0809120018F7D03C0C1
:100F300080912001877F809320010895CF93DF93D4
:100F400090E0FC01E25BFE4F2491FC01EC56FE4F69
:100F50008491882361F190E0880F991FFC01EC5087
:100F6000FE4FC591D491FC01E652FE4FA591B4917C
:100F7000611109C09FB7F8948881209582238883E6
:100F8000EC912E230BC0623061F49FB7F894388146
:100F9000822F809583238883EC912E2B2C939FBFE7
:100FA00006C08FB7F894E8812E2B28838FBFDF917E
:100FB000CF9108951F93CF93DF93282F30E0F9014D
:100FC000E85FFE4F8491F901E25BFE4FD491F90195
:100FD000EC56FE4FC491CC23C1F0162F811158DF7F
:100FE000EC2FF0E0EE0FFF1FE652FE4FA591B491FB
:100FF0008FB7F894111105C09C91ED2FE095E9236E
:1010000002C0EC91ED2BEC938FBFDF91CF911F913C
:101010000895FC01918D228D892F90E0805C9F4F77
:10102000821B91098F7399270895FC01918D828D00
:10103000981731F0828DE80FF11D858D90E00895AD
:101040008FEF9FEF0895FC01918D828D981761F0CD
:10105000828DDF01A80FB11D5D968C91928D9F5FEF
:101060009F73928F90E008958FEF9FEF0895FC019A
:10107000848DDF01A80FB11DA35ABF4F2C91848D21
:1010800090E001968F739927848FA689B7892C9356
:10109000A089B1898C9180648C93938D848D9813F1
:1010A00006C00288F389E02D80818F7D80830895BA
:1010B000CF93DF93EC01888D8823C1F0EA89FB8907
:1010C000808185FD05C0A889B9898C9186FD0EC0F7
:1010D0000FB607FCF5CF808185FFF2CFA889B989CB
:1010E0008C9185FFEDCFCE01C2DFE8CFDF91CF91AC
:1010F0000895EF92FF920F931F93CF93DF93EC012C
:1011000081E0888F9B8D8C8D981305C0E889F989C3
:10111000808185FD23C0F62E0B8D10E00F5F1F4FE1
:101120000F731127E02E8C8DE8120BC00FB607FC51
:10113000FACFE889F989808185FFF5CFCE0197DF65
:10114000F2CF8B8DFE01E80FF11DE35AFF4FF082C5
:101150000B8FEA89FB898081806207C0EE89FF8955
:101160006083E889F98980818064808381E090E0F0
:10117000DF91CF911F910F91FF90EF900895CF9243
:10118000DF92EF92FF921F93CF93DF93EC016A01FE
:101190007B01122FE889F98982E080834115514E45
:1011A00061057105B1F060E079E08DE390E0A701A1
:1011B00096010E947913DA01C9010197A109B109C9
:1011C000B695A79597958795AC01411580E158078D
:1011D000A8F0E889F989108260E874E88EE190E06F
:1011E000A70196010E947913BA01A9014150510942
:1011F000610971097695679557954795EC85FD8549
:101200005083EE85FF854083188EEC89FD8910831D
:10121000EA89FB89808180618083EA89FB898081FA
:1012200088608083EA89FB89808180688083EA897D
:10123000FB8980818F7D8083DF91CF911F91FF900B
:10124000EF90DF90CF9008951F920F920FB60F92FC
:1012500011240BB60F922F938F939F93EF93FF93CD
:10126000E091A102F091A2028081E091A702F091A9
:10127000A80282FD12C090818091AA028F5F8F73B5
:101280002091AB02821751F0E091AA02F0E0EF56F4
:10129000FD4F958F8093AA0201C08081FF91EF914D
:1012A0009F918F912F910F900BBE0F900FBE0F90BB
:1012B0001F9018951F920F920FB60F9211240BB624
:1012C0000F922F933F934F935F936F937F938F93DF
:1012D0009F93AF93BF93EF93FF9381E992E0C7DEB3
:1012E000FF91EF91BF91AF919F918F917F916F91FE
:1012F0005F914F913F912F910F900BBE0F900FBEBA
:101300000F901F901895E1E9F2E01382128288EEA7
:1013100093E0A0E0B0E084839583A683B78385E75C
:1013200092E09183808385EC90E09587848784ECBC
:1013300090E09787868780EC90E0918B808B81ECA2
:1013400090E0938B828B82EC90E0958B848B86EC83
:1013500090E0978B868B118E128E138E148E0895CB
:101360001F920F920FB60F9211240BB60F922F936C
:101370008F939F93EF93FF93E0913E03F0913F0390
:101380008081E0914403F091450382FD12C0908179
:10139000809147038F5F8F7320914803821751F02C
:1013A000E0914703F0E0E25DFC4F958F80934703A7
:1013B00001C08081FF91EF919F918F912F910F90AC
:1013C0000BBE0F900FBE0F901F9018951F920F929B
:1013D0000FB60F9211240BB60F922F933F934F939A
:1013E0005F936F937F938F939F93AF93BF93EF938D
:1013F000FF938EE293E03BDEFF91EF91BF91AF91BF
:101400009F918F917F916F915F914F913F912F911C
:101410000F900BBE0F900FBE0F901F901895EEE22D
:10142000F3E01382128288EE93E0A0E0B0E08483C0
:101430009583A683B78385E792E0918380838DECC3
:1014400090E0958784878CEC90E09787868788EC7E
:1014500090E0918B808B89EC90E0938B828B8AEC6F
:1014600090E0958B848B8EEC90E0978B868B118E21
:10147000128E138E148E08951F920F920FB60F9234
:1014800011240BB60F922F938F939F93EF93FF939B
:10149000E091DB03F091DC038081E091E103F091C6
:1014A000E20382FD12C090818091E4038F5F8F730D
:1014B0002091E503821751F0E091E403F0E0E55359
:1014C000FC4F958F8093E40301C08081FF91EF91E1
:1014D0009F918F912F910F900BBE0F900FBE0F9089
:1014E0001F9018951F920F920FB60F9211240BB6F2
:1014F0000F922F933F934F935F936F937F938F93AD
:101500009F93AF93BF93EF93FF938BEC93E0AFDD8B
:10151000FF91EF91BF91AF919F918F917F916F91CB
:101520005F914F913F912F910F900BBE0F900FBE87
:101530000F901F901895EBECF3E01382128288EE67
:1015400093E0A0E0B0E084839583A683B78385E72A
:1015500092E09183808385ED90E09587848784ED88
:1015600090E09787868780ED90E0918B808B81ED6E
:1015700090E0938B828B82ED90E0958B848B86ED4F
:1015800090E0978B868B118E128E138E148E089599
:101590001F920F920FB60F9211240BB60F922F933A
:1015A0008F939F93EF93FF93E0917804F0917904E8
:1015B0008081E0917E04F0917F0482FD12C09081D1
:1015C000809181048F5F8F7320918204821751F084
:1015D000E0918104F0E0E859FB4F958F80938104FE
:1015E00001C08081FF91EF919F918F912F910F907A
:1015F0000BBE0F900FBE0F901F9018951F920F9269
:101600000FB60F9211240BB60F922F933F934F9367
:101610005F936F937F938F939F93AF93BF93EF935A
:10162000FF9388E694E023DDFF91EF91BF91AF91A6
:101630009F918F917F916F915F914F913F912F91EA
:101640000F900BBE0F900FBE0F901F901895E8E6FD
:10165000F4E01382128288EE93E0A0E0B0E084838D
:101660009583A683B78385E792E09183808385E3A2
:1016700091E09587848784E391E09787868780E36C
:1016800091E0918B808B81E391E0938B828B82E35D
:1016900091E0958B848B86E391E0978B868B118EFE
:1016A000128E138E148E08958F929F92AF92BF92D6
:1016B000CF92DF92EF92FF920F931F93CF93DF931E
:1016C0007C018B016C0182E0C80ED11C4701E5E072
:1016D0008E0E911CC0E0D0E0F60161916F014AE0EE
:1016E00050E0C801C5D05C016EE2C80167D08A0D28
:1016F0009B1DC80FD91FC814D90471F74AE050E0E8
:10170000F7016581C801B4D08C0F9D1FDF91CF9187
:101710001F910F91FF90EF90DF90CF90BF90AF900F
:101720009F908F900895E5E0F5E085E892E0918341
:10173000808312821382148215820895CF92DF92E1
:10174000EF92FF920F931F93CF93DF936C017A0177
:101750008B01C0E0D0E0CE15DF0589F0D8016D9196
:101760008D01D601ED91FC910190F081E02DC60133
:101770001995892B11F47E0102C02196ECCFC70187
:10178000DF91CF911F910F91FF90EF90DF90CF905D
:1017900008956115710579F0FB0101900020E9F7CA
:1017A0003197AF01461B570BDC01ED91FC91028094
:1017B000F381E02D199480E090E00895DC01ED9133
:1017C000FC910190F081E02D19944F925F926F92FD
:1017D0007F92EF92FF920F931F93CF93DF93CDB73A
:1017E000DEB7A1970FB6F894DEBF0FBECDBF7C0168
:1017F000FA01CB0119A2223008F42AE08E010F5D14
:101800001F4F422E512C612C712CBF01A30192015C
:1018100070D7F901CA01015011096A3014F4605DF2
:1018200001C0695CD8016C93232B242B252B69F70D
:10183000B801C701AEDFA1960FB6F894DEBF0FBEA8
:10184000CDBFDF91CF911F910F91FF90EF907F90CF
:101850006F905F904F9008952115310541F4DC01A0
:10186000ED91FC910190F081E02D642F1994ADCFA2
:101870009A01462F50E060E070E0EECF8230A9F090
:1018800028F4882349F0813051F00895843021F103
:10189000E8F0853039F1089510926E000895809136
:1018A0006F008D7F80936F000895809170008D7F11
:1018B0008093700081E08093B0008091B100887FB8
:1018C00084608093B1001092B300089580917100FC
:1018D0008D7F809371000895809172008D7F809339
:1018E00072000895809173008D7F80937300089536
:1018F000CF93C82F80916E028C1307C0EEE0F2E008
:10190000E4918FEF80936E0201C0EFEF8E2FB6DF70
:1019100060E08C2FCF914ECB1F920F920FB60F929B
:1019200011240BB60F922F933F934F935F936F93B6
:101930007F938F939F93AF93BF93EF93FF93809188
:101940000E0590910F05A0911005B0911105892BFE
:101950008A2B8B2B51F180910B05E0910C05F091B6
:101960000D0590818927808380910E0590910F0548
:10197000A0911005B0911105181619061A061B063C
:10198000BCF480910E0590910F05A0911005B091C7
:1019900011050197A109B10980930E0590930F05D8
:1019A000A0931005B093110503C080916E02A0DFD3
:1019B000FF91EF91BF91AF919F918F917F916F9127
:1019C0005F914F913F912F910F900BBE0F900FBEE3
:1019D0000F901F9018954F925F926F927F92AF92E7
:1019E000BF92CF92DF92EF92FF920F931F93CF930C
:1019F000DF93CDB7DEB729013A019B01AC01241971
:101A00003509460957098A899B89AC89BD89BC017A
:101A1000CD016A197B098C099D0950D6A80197014F
:101A2000241935094609570986D6CA01B9016A0D34
:101A30007B1D8C1D9D1DDF91CF911F910F91FF90FC
:101A4000EF90DF90CF90BF90AF907F906F905F90BE
:101A50004F90089540E855E260E070E080E090E04B
:101A600000C08130910571F01CF4892B39F0089584
:101A70008230910559F0039769F0089526E081E9D5
:101A800092E00BC026E08EE293E007C026E08BECEC
:101A900093E003C026E088E694E071CB70E090E02C
:101AA0009C01220F331F820F931F8E5E9A4F9CC2A0
:101AB00070E090E09C01220F331F820F931F8E5E17
:101AC0009A4FCCC282E195E0C7C11F920F920FB628
:101AD0000F9211240BB60F922F933F934F935F9366
:101AE0006F937F938F939F93AF93BF93EF93FF93E6
:101AF0008AE591EF909385008093840009D3FF914C
:101B0000EF91BF91AF919F918F917F916F915F9175
:101B10004F913F912F910F900BBE0F900FBE0F90E2
:101B20001F9018958AE591EF90938500809384002B
:101B3000AFE6B0E08C918E7F8C93E0E8F0E080819E
:101B40008C7F8083E1E8F0E08081877E80838081E4
:101B50008460808380818C7F80838C9181608C9372
:101B6000089581E00895CF92DF92EF92FF920F9354
:101B70001F93CF93DF936C018B017A01EC01CA5E56
:101B8000DA4F888187FF04C0FB011182108224C0D4
:101B90008CE08C9D90018D9D300D11248881A901D0
:101BA000480F511D87FD5A958091150590E0481703
:101BB000590794F48881A901480F511D87FD5A9552
:101BC000CA01FA01EE0FFF1F8E0F9F1FFC01E65E98
:101BD000FA4F808186FD19C088818F5F88838CE0F1
:101BE0008C9D90018D9D300D11248881A901480F95
:101BF000511D87FD5A958091150590E048175907AA
:101C0000B4F488818C303CF112C08881280F311DDA
:101C100087FD3A95F901EE0FFF1F2E0F3F1FF901C7
:101C2000E65EFA4F808160E08F73C4D9D5CFF801AA
:101C300080819181049680349C4918F480E49CE969
:101C400004C0F801808191810496F701918380831B
:101C50008FEF888344C0F801408151818881B901A8
:101C6000680F711D87FD7A95CB01FB01EE0FFF1FF9
:101C70008E0F9F1FFC01E65EFA4F81819281840FD7
:101C8000951FF701918380838881A901480F511D19
:101C900087FD5A95CA01FA01EE0FFF1F8E0F9F1F95
:101CA000FC01E65EFA4F808186FF19C08881280F0B
:101CB000311D87FD3A95F901EE0FFF1F2E0F3F1FD3
:101CC000F901E65EFA4F808161E08F73DF91CF9179
:101CD0001F910F91FF90EF90DF90CF906BC9DF9134
:101CE000CF911F910F91FF90EF90DF90CF900895CB
:101CF0001F920F920FB60F9211240BB60F922F93D3
:101D00003F934F935F936F937F938F939F93AF9383
:101D1000BF93EF93FF9348E850E064E870E081E000
:101D200090E021DFFF91EF91BF91AF919F918F9153
:101D30007F916F915F914F913F912F910F900BBECB
:101D40000F900FBE0F901F9018951F920F920FB615
:101D50000F9211240BB60F922F933F934F935F93E3
:101D60006F937F938F939F93AF93BF93EF93FF9363
:101D700048E950E064E970E082E090E0F4DEFF9131
:101D8000EF91BF91AF919F918F917F916F915F91F3
:101D90004F913F912F910F900BBE0F900FBE0F9060
:101DA0001F9018951F920F920FB60F9211240BB629
:101DB0000F922F933F934F935F936F937F938F93E4
:101DC0009F93AF93BF93EF93FF9348EA50E064EA89
:101DD00070E083E090E0C7DEFF91EF91BF91AF919B
:101DE0009F918F917F916F915F914F913F912F9133
:101DF0000F900BBE0F900FBE0F901F9018951F9263
:101E00000F920FB60F9211240BB60F922F933F93A0
:101E10004F935F936F937F938F939F93AF93BF93F2
:101E2000EF93FF9348E251E064E271E080E090E0DC
:101E30009ADEFF91EF91BF91AF919F918F917F912A
:101E40006F915F914F913F912F910F900BBE0F902B
:101E50000FBE0F901F901895FC01909115059033BF
:101E6000A0F481E0890F809315059083892F90E07D
:101E7000FC01EE0FFF1F8E0F9F1FFC01E65EFA4F65
:101E800088EB9BE09283818308958FEF8083089590
:101E9000DF92EF92FF920F931F93CF93DF93EC01AA
:101EA000D62E7A0189018881803308F068C061E00C
:101EB0008D2D44D88881E82FF0E09F01220F331F39
:101EC000E20FF31FE65EFA4F9D2D9F732081207C69
:101ED000D22ED92AD08260E272E0AB014E195F099E
:101EE00057FF02C04D5F5F4F5595479555954795F4
:101EF000498340E659E09A01201B310B37FF02C0AD
:101F00002D5F3F4F35952795359527952A836CE0B2
:101F1000E4D39CE0899FB001112440E050E09A0195
:101F2000260F371FF901EE0FFF1F2E0F3F1FF9017C
:101F3000E65EFA4F908196FD16C04F5F5F4F4C30C2
:101F4000510569F7813021F51092800082E080937D
:101F500081001092850010928400B19A80916F00E8
:101F6000826080936F00E881F0E0CF01880F991FB5
:101F7000E80FF91FE65EFA4F8081806480838881D4
:101F8000DF91CF911F910F91FF90EF90DF90089517
:101F9000823061F41092900080939100109295002D
:101FA0001092940088BB80937100DDCF833069F478
:101FB0001092A00082E08093A1001092A5001092E0
:101FC000A40089BB80937200CECF8111CCCF109238
:101FD000200182E0809321011092250110922401BA
:101FE0008ABB80937300BFCF20E639E040E252E025
:101FF0004FCFFC019081903380F5818128E830E05B
:10200000281B310987FD3395220F331F220F331F01
:10201000621773077CF0828128E532E0281B3109C2
:1020200087FD3395220F331F220F331F621773076B
:102030000CF49B0122503109220F331F4FB7F89443
:10204000892F90E0FC01EE0FFF1F8E0F9F1FFC01F8
:10205000E65EFA4F328321834FBF0895AF92BF925D
:10206000CF92DF92EF92FF920F931F93CF93DF9364
:10207000EC01603282E078070CF03EC077FD06C0CC
:10208000653B71052CF064EB70E002C060E070E02D
:10209000898128E830E05901A81AB10887FDB39476
:1020A000AA0CBB1CAA0CBB1C0B2C000CCC08DD081A
:1020B000072E000C880B990B2A8108E512E0021B01
:1020C000110927FD1395000F111F000F111F012E7D
:1020D000000C220B330B3F932F931F930F9314EBA2
:1020E000E12EF12C00E010E020E030E0A90173DCEB
:1020F0000F900F900F900F90CE01DF91CF911F9115
:102100000F91FF90EF90DF90CF90BF90AF9071CF85
:102110008091AB0591E0980F9093AB05882339F03F
:1021200021E030E03093AD052093AC0507C07894F2
:102130000E94C601F8948091AB0581508093AB0555
:1021400008950F931F93CF93DF931F92CDB7DEB700
:1021500081E089830E94C1067DDC00916F021091AD
:102160007002F801118210820E94A804DBDC81E079
:10217000F80120813181232B09F080E08983789454
:10218000789489818823C1F081E0F8012081318130
:10219000232B09F480E08093AA059091AA0581E0A1
:1021A000911180E089838981882311F0DADC02C0F3
:1021B00080E090E08983E5CF0E941605F89480E0E6
:1021C00090E00F90DF91CF911F910F91089550589B
:1021D000BB27AA270ED0D1C1C2D130F0C7D120F081
:1021E00031F49F3F11F41EF4B7C10EF4E095E7FB04
:1021F0009FC1E92FD3D180F3BA1762077307840711
:10220000950718F071F49EF5EBC10EF4E0950B2ED6
:10221000BA2FA02D0B01B90190010C01CA01A00138
:102220001124FF27591B99F0593F50F4503E68F193
:102230001A16F040A22F232F342F4427585FF3CFD4
:10224000469537952795A795F0405395C9F77EF4A5
:102250001F16BA0B620B730B840BBAF09150A1F0EE
:10226000FF0FBB1F661F771F881FC2F70EC0BA0F74
:10227000621F731F841F48F4879577956795B795FC
:10228000F7959E3F08F0B3CF9395880F08F09927F4
:10229000EE0F97958795089527D108F481E008956A
:1022A0000CD06BC163D140F05AD130F021F45F3FC4
:1022B00019F03EC1511195C14FC170D198F39923C6
:1022C000C9F35523B1F3951B550BBB27AA276217FA
:1022D0007307840738F09F5F5F4F220F331F441F3F
:1022E000AA1FA9F333D00E2E3AF0E0E830D0915077
:1022F0005040E695001CCAF729D0FE2F27D0660F64
:10230000771F881FBB1F261737074807AB07B0E8A2
:1023100009F0BB0B802DBF01FF2793585F4F2AF0B8
:102320009E3F510568F004C15CC15F3FECF3983EED
:10233000DCF3869577956795B795F7959F5FC9F715
:10234000880F911D9695879597F90895E1E0660F9E
:10235000771F881FBB1F621773078407BA0720F017
:10236000621B730B840BBA0BEE1F88F7E095089580
:1023700004D06894B11135C1089518D188F09F57E1
:1023800090F0B92F9927B751A0F0D1F0660F771FC1
:10239000881F991F1AF0BA95C9F712C0B13081F0A1
:1023A0001FD1B1E008951CC1672F782F8827B85F2F
:1023B00039F0B93FCCF3869577956795B395D9F702
:1023C0003EF490958095709561957F4F8F4F9F4F0C
:1023D0000895E89409C097FB3EF490958095709518
:1023E00061957F4F8F4F9F4F9923A9F0F92F96E961
:1023F000BB279395F695879577956795B795F111D6
:10240000F8CFFAF4BB0F11F460FF1BC06F5F7F4F72
:102410008F4F9F4F16C0882311F096E911C0772384
:1024200021F09EE8872F762F05C0662371F096E88D
:10243000862F70E060E02AF09A95660F771F881F5C
:10244000DAF7880F9695879597F9089588D018F050
:1024500011F08CD038F480C0C4C0E92F9FD0B0F305
:102460005523C9F3E7FB6217730784079507A8F1A3
:1024700099F3E92FFF2788232AF03197660F771FFA
:10248000881FDAF7952F5527442332F0915050409A
:10249000220F331F441FD2F7BB27E91BF50B621B2A
:1024A000730B840BB109C1F222F4620F731F841FF6
:1024B000B11D31972AF0660F771F881FBB1FEFCF22
:1024C000915050405AF041F0882332F0660F771F48
:1024D000881F91505040C1F7939530C086957795ED
:1024E00067959F5FD9F7F8CF990F0008550FAA0B92
:1024F000E0E8FEEF16161706E807F907C0F0121617
:102500001306E407F50798F0621B730B840B950B19
:1025100039F40A2661F0232B242B252B21F408956E
:102520000A2609F4A140A6958FEF811D811D08950B
:1025300097F99F6780E870E060E008959F3F31F071
:10254000915020F4879577956795B795880F911DE1
:102550009695879597F908959FEF80EC089500244C
:102560000A941616170618060906089500240A94F8
:1025700012161306140605060895092E0394000C7E
:1025800011F4882352F0BB0F40F4BF2B11F460FF0D
:1025900004C06F5F7F4F8F4F9F4F089557FD905836
:1025A000440F551F59F05F3F71F04795880F97FB17
:1025B000991F61F09F3F79F08795089512161306D1
:1025C0001406551FF2CF4695F1DF08C01616170600
:1025D0001806991FF1CF8695710561050894089535
:1025E000E894BB2766277727CB0197F908957CDF0E
:1025F00008F48FEF08950BD0C0CFB1DF28F0B6DF1D
:1026000018F0952309F094CFA7CF1124EACFC6DFA5
:10261000A0F3959FD1F3950F50E0551F629FF001F5
:10262000729FBB27F00DB11D639FAA27F00DB11D4E
:10263000AA1F649F6627B00DA11D661F829F2227D7
:10264000B00DA11D621F739FB00DA11D621F839F5E
:10265000A00D611D221F749F3327A00D611D231F34
:10266000849F600D211D822F762F6A2F11249F5782
:1026700050408AF0E1F088234AF0EE0FFF1FBB1FA5
:10268000661F771F881F91505040A9F79E3F510544
:1026900070F04ECFA6CF5F3FECF3983EDCF386950B
:1026A00077956795B795F795E7959F5FC1F7FE2BEF
:1026B000880F911D9695879597F90895DB018F9363
:1026C0009F936CD0BF91AF91A29F800D911DA39F4E
:1026D000900DB29F900D11240895991B79E004C0CC
:1026E000991F961708F0961B881F7A95C9F7809551
:1026F0000895A1E21A2EAA1BBB1BFD010DC0AA1F43
:10270000BB1FEE1FFF1FA217B307E407F50720F05A
:10271000A21BB30BE40BF50B661F771F881F991FD5
:102720001A9469F760957095809590959B01AC011E
:10273000BD01CF010895052E97FB16F400940FD02C
:1027400057FD05D0D6DF07FC02D046F408C05095EF
:102750004095309521953F4F4F4F5F4F089590958D
:102760008095709561957F4F8F4F9F4F0895EE0F25
:10277000FF1F881F8BBF0790F691E02D1994A29F31
:10278000B001B39FC001A39F700D811D1124911D45
:10279000B29F700D811D1124911D0895F0DFA59F3A
:1027A000900DB49F900DA49F800D911D112408954C
:0427B000F894FFCFCB
:1027B4000000EC058000010000000000C84100009A
:1027C4004040000000000000C842000070410000CA
:1027D40034432E0000008FC2753D0000803F8FC23D
:1027E400F53C0000A0410000803F0000F0410000E3
:1027F400803F000080BF00000000000000000000D7
:1028040000008FC2F53C000000000080001E051E81
:10281400051E051E051E051E051E051E0501FFC617
:10282400050000000079089E0B09082308150858C4
:082834000800000000540B0035
:00000001FF
