:10000000DEC100000C9485150C94B0150C94DB1522
:100010000C9406160C9431160C945C160C948716EE
:100020000C94B216FDC10000FBC10000F9C1000034
:10003000F7C100000C94541DF3C10000F1C1000091
:10004000EFC100000C949D2AEBC10000E9C1000043
:100050000C94321EE5C10000E3C100000C94DD16D3
:10006000DFC100000C94EB190C94211AD9C10000D7
:10007000D7C10000D5C10000D3C10000D1C100002C
:100080000C94CA2ACDC10000CBC10000C9C1000038
:100090000C94771A0C94AD1AC3C10000C1C10000C2
:1000A000BFC10000BDC100000C94F72AB9C1000017
:1000B000B7C10000B5C10000B3C100000C94242BEF
:1000C000AFC10000ADC10000ABC100000C94031B28
:1000D0000C94391BA5C100000C948F1B0C94C51BFC
:1000E0009FC100002A182D181C1820182618641803
:1000F000311835183B183F18431849184D18511836
:10010000641857185B185F183C26FC276628692876
:1001100040277327FB251C26DF25432832283F284C
:10012000692869286928CA2507634236B79BD8A77A
:100130001A39685618AEBAAB558C1D3CB7CC57630C
:10014000BD6DEDFD753EF6177231BF000000803FBA
:1001500008000000BE922449123EABAAAA2ABECDD6
:10016000CCCC4C3E00000080BEABAAAAAA3E000048
:100170000000BF000000803F000000000008417840
:10018000D3BB4387D1133D190E3CC3BD4282AD2B77
:100190003E68EC8276BED98FE1A93E4C80EFFFBE6F
:1001A00001C4FF7F3F000000000000000A0B0209AD
:1001B0000C0D0E0807030401000000000000000001
:1001C000000000000000000000000000000000002F
:1001D00000000000000012111000000000000000EC
:1001E000000000000000000000000000000000000F
:1001F0000102102020080810204010204080020139
:10020000020108040201010204081020408080401D
:10021000201008040201800402018040201008041C
:1002200002010804020101020408102040800102BA
:100230000408102040800505050507050808080882
:10024000020202020A0A080804040404010101016E
:100250000101010103030303030303030407070769
:100260000C0C0C0C0C0C0C0C02020202060606060E
:10027000060606060B0B0B0B0B0B0B0B00002200EC
:10028000250028002B002E00310034000201000060
:10029000050108010B0100002100240027002A00AD
:1002A0002D003000330001010000040107010A01A4
:1002B00002001D3A2774694E53E8F5D2CF9C81A6FF
:1002C000BBCDD0F7EAB9A4839E25381F02514C6BF1
:1002D00076879ABDA0F3EEC9D46F7255481B0621EC
:1002E0003C4A57706D3E230419A2BF9885D6CBECCB
:1002F000F1130E2934677A5D40FBE6C1DC8F92B5BD
:10030000A8DEC3E4F9AAB7908D362B0C11425F78B2
:10031000659489AEB3E0FDDAC77C61465B081532AF
:100320002F5944637E2D30170AB1AC8B96C5D8FF88
:10033000E2263B1C01524F6875CED3F4E9BAA78080
:100340009DEBF6D1CC9F82A5B8031E3924776A4D68
:1003500050A1BC9B86D5C8EFF24954736E3D20076F
:100360001A6C71564B1805223F8499BEA3F0EDCA52
:10037000D735280F12415C7B66DDC0E7FAA9B4933C
:100380008EF8E5C2DF8C91B6AB100D2A3764795E2A
:1003900043B2AF8895C6DBFCE15A47607D2E33142B
:1003A000097F6245580B16312C978AADB0E3FED910
:1003B000C4004A1AD61A621BEE1B5A1C2E1E1124A8
:1003C0001FBECFEFD1E2DEBFCDBF00E00CBF13E018
:1003D000A0E0B2E0E2E5F6E600E00BBF02C0079065
:1003E0000D92A63CB107D9F728E0A6ECB3E001C016
:1003F0001D92A133B207E1F711E0CFEDD1E000E0AB
:1004000006C021970109802FFE010E949231C93D4B
:10041000D10780E00807A9F70E94CB2C0C94273362
:10042000EFCD60E070E080E89FE7089560E070E065
:1004300080E89FE7089560E070E080E89FEF08950E
:1004400060E070E080E89FEF089560E070E080EC8D
:100450009FEF089560E070E080EC9FEF0895F5DF76
:100460006093D2077093D3078093D4079093D507F6
:10047000F1DF6093C6077093C7078093C807909316
:10048000C907CFDF6093CE077093CF078093D00763
:100490009093D107CBDF6093CA077093CB0780930B
:1004A000CC079093CD07C7DF6093D6077093D7072B
:1004B0008093D8079093D907C3DF6093DA077093CE
:1004C000DB078093DC079093DD070895CF93C1E0AD
:1004D0009B01AC010E94BD2D811101C0C0E08C2F99
:1004E000CF9108952F923F924F925F926F927F9299
:1004F0008F929F92AF92BF92CF92DF92EF92FF9234
:100500000F931F93CF93DF93CDB7DEB764970FB6EA
:10051000F894DEBF0FBECDBF2091A2023091A3029E
:100520004091A4025091A5026091860270918702C9
:1005300080918802909189020E946C2F6B017C014E
:1005400040909E0250909F026090A0027090A10285
:100550009B01AC01C301B2010E94592D9B01AC016A
:1005600060E070E080E89FE30E94C12D4B015C01D8
:10057000A3019201C701B6010E94582DA501940163
:100580000E946C2F2B013C016EED77E081E198E039
:100590000E942A14209111083091120840911308EA
:1005A000509114086091A6027091A7028091A80250
:1005B0009091A9020E94582D6B017C018091E20765
:1005C0009091E307A091E407B091E50789839A83AE
:1005D000AB83BC839C01AD01C301B2010E946C2FAF
:1005E0002B013C0120917A0230917B0240917C02E8
:1005F00050917D02C701B6010E946C2FA3019201A8
:100600000E94582D6D837E838F8398872091AA0244
:100610003091AB024091AC025091AD020E946C2F20
:100620002B013C012091AE023091AF024091B0020B
:100630005091B10269817A818B819C810E946C2FDB
:100640009B01AC01C301B2010E94592DA501940187
:100650000E946C2F2091860230918702409188027F
:10066000509189020E946C2F69877A878B879C87BB
:1006700020918A0230918B0240918C0250918D0220
:10068000C701B6010E946C2F6D877E878F87988B7C
:1006900020917E0230917F02409180025091810230
:1006A000C701B6010E946C2F69837A838B839C8378
:1006B0002091E6073091E7074091E8075091E9075C
:1006C0006D857E858F8598890E94592D29853A856B
:1006D0004B855C850E94592D6B017C012091BA02EB
:1006E0003091BB024091BC025091BD020E946C2F20
:1006F000698B7A8B8B8B9C8B80908E0290908F0273
:10070000A0909002B0909102A5019401C701B6019A
:100710000E94682F181684F08090820290908302C5
:10072000A0908402B0908502A5019401C701B60192
:100730000E94682F87FF2AC0A5019401C701B60156
:100740000E94582D4B015C0120E030E0A9010E947D
:10075000BD2D87FD21C020E030E0A901C501B40115
:100760000E94682F1816FCF020E030E0A901C501B6
:10077000B4010E94BD2D8823E9F04090D20750902B
:10078000D3076090D4077090D50717C0812C912CA7
:1007900054012401350111C0412C512C30E8632E45
:1007A0003FEB732E0AC0412C512C20E8622E2FE320
:1007B000722E03C0412C512C320120E030E0A901FF
:1007C00069817A818B819C810E94BD2D87FD1FC02C
:1007D00020E030E0A90169817A818B819C810E94AF
:1007E000682F1816DCF020E030E0A90169817A81D9
:1007F0008B819C810E94BD2D8823B9F0C090D207C7
:10080000D090D307E090D407F090D50711C0C12C49
:10081000D12C90E8E92E9FEBF92E0AC0C12CD12CE7
:1008200080E8E82E8FE3F82E03C0C12CD12C76018E
:10083000C701B6014BDE81110BC020E030E040E87B
:1008400053E4C701B6010E949E2E6B017C0103C0D8
:10085000C12CD12C760120E030E040E053E4C3010C
:10086000B2010E94BD2D87FF06C0C301B2010E94E4
:10087000292E162F01C01FE7A501940169897A89E5
:100880008B899C890E94BD2D882369F120E030E08E
:10089000A901C701B6010E94BD2D87FF0BC0C7018A
:1008A000B60190580E942E2E862F8195082E000C9E
:1008B000990B07C0C701B6010E942E2E862F660F26
:1008C000990B212F110F330B8217930761F480913D
:1008D000B6029091B702A091B802B091B902898393
:1008E0009A83AB83BC832091BE023091BF024091BA
:1008F000C0025091C10269817A818B819C810E94E2
:100900006C2F6B017C012091E6073091E707409145
:10091000E8075091E9070E94592D4B015C019B01AA
:10092000AC016D857E858F8598890E94592D29851A
:100930003A854B855C850E94592D2B013C01009125
:100940008E0210918F0220909002309091029801B7
:10095000A1010E94682F181684F000918202109164
:10096000830220908402309085029801A101B20197
:10097000C3010E94BD2D87FF02C0280131012091D3
:10098000C6023091C7024091C8025091C902B2011B
:10099000C3010E94592D2B013C01609315087093EF
:1009A000160880931708909318088091CA02813026
:1009B000A1F02091960230919702409198025091B7
:1009C000990260919A0270919B0280919C02909191
:1009D0009D020E946C2F2B013C0120E030E040E89A
:1009E00053E4C301B2010E94BD2D87FF0EC020E079
:1009F00030E0A901C301B2010E94682F87FD07C042
:100A0000C301B2010E942E2E03C06FEF01C060E04F
:100A10008091CB020E94231E6EED77E081E198E089
:100A20000E9446158D819E81AF81B8858093E20733
:100A30009093E307A093E407B093E507A501940121
:100A4000C701B6010E94592D6093E6077093E7072E
:100A50008093E8079093E90781E090E00E94D81323
:100A600040910008509101086091020870910308BC
:100A700080E090E00E94D41380900C0890900D08C4
:100A8000A0900E08B0900F0820E030E040E85FEB47
:100A9000C501B4010E94BD2D882331F1C09000082A
:100AA000D0900108E0900208F0900308A701960199
:100AB000C501B4010E94582D4B015C0120E030E0DB
:100AC00040E054E3C701B6010E946C2F9B01AC01CA
:100AD000C501B4010E94682F181634F082EE92E02E
:100AE0009093EB078093EA0780911008882331F0F8
:100AF00082EE92E09093EB078093EA0780910408DE
:100B000090910508A0910608B0910708BC01CD019D
:100B10006F5F7F4F8F4F9F4F60930408709305085E
:100B200080930608909307080E945A2E2091080887
:100B30003091090840910A0850910B080E946C2FCF
:100B40006093000870930108809302089093030853
:100B500064960FB6F894DEBF0FBECDBFDF91CF9184
:100B60001F910F91FF90EF90DF90CF90BF90AF90CB
:100B70009F908F907F906F905F904F903F902F90BD
:100B80000895EF92FF920F931F93CF93DF9384E02A
:100B900090E065DCEAEEF7E087E2DF011D928A95DE
:100BA000E9F780E090E0A0E8BFEB82A393A3A4A3C1
:100BB000B5A38FE892ECA5E7BDE3868F978FA0A33E
:100BC000B1A385E698EFABE2BCEC84839583A68362
:100BD000B78382ED9FE9AFE9BDE680879187A28761
:100BE000B3878AED9AE0A0EBBCED84879587A68752
:100BF000B78787E495EDACE9B2E5808B918BA28B4A
:100C0000B38BACEDB3E0B383A283C8EDD3E0119610
:100C1000DC93CE9382E693E0998388839B838A83D7
:100C20008EEF97E015969C938E9314978EEE97E037
:100C300013969C938E93129780E098E017969C935E
:100C40008E93169788E0A1E1B8E0ED0119928A959C
:100C5000E9F78EEDE82E87E0F82E8CE0D7011D92A3
:100C60008A95E9F7A6ECB3E082E1ED0119928A9545
:100C7000E9F7B58BA48B8EE090E011969C938E9350
:100C80008EE592E013969C938E93129782E492E005
:100C900015969C938E9314978EE292E017969C93F0
:100CA0008E9316978AE092E019969C938E931897EC
:100CB0000AE712E0F801608D8091CB020E94181EB5
:100CC000D7011D921D921D921C921397E80188ADC9
:100CD00099ADAAADBBADF70184839583A683B78395
:100CE0008091C2029091C302A091C402B091C5024A
:100CF00080879187A287B387DF91CF911F910F9152
:100D0000FF90EF9008950895EF92FF920F931F9335
:100D1000CF93DF93DC01EA01F90114968D919C9148
:100D2000159712960D911C911397080F191F288182
:100D3000398118964D915C9119974217530728F005
:100D40004D915C911197452B39F17801E21AF30A24
:100D500018964D915C911997481B590B4E0D5F1DCC
:100D60004617570794F1A901460F571F401751071F
:100D7000E0F0F182E082338322836E197F0975836C
:100D80006483161617061CF4382F292F02C030E092
:100D900020E03683278313C018968D919C91199774
:100DA000821B930B8617970784F0718360833383CC
:100DB0002283158214821782168288819981680F96
:100DC000791F7983688380E001C081E0DF91CF9152
:100DD0001F910F91FF90EF900895CF92DF92EF92C5
:100DE000FF92CF93DF936B017C0184E48C9DE00143
:100DF0008D9DD00D1124C851DC4F8AA99BA9009765
:100E000021F00E9476321BAA1AAA84E48C9DF0017C
:100E10008D9DF00D1124E851FC4F86A997A90097EC
:100E200011F00E94763284E48C9DF0018D9DF00DCE
:100E30001124E851FC4F138A128A168A178A108EE1
:100E4000118E128E138E148E158E168E178E10A282
:100E500011A281E090E093A382A315A214A216A28E
:100E600017A210A611A613A612A615A614A616A6BA
:100E700017A610AA11AA13AA12AA15AA14AA17AA89
:100E800016AA11AE10AE12AE13AE14AE15AEDF013F
:100E9000DE961D921D921D921C921397EE5BFF4FE2
:100EA00011821082DF91CF91FF90EF90DF90CF9071
:100EB00008950F931F93CF93DF93EB01DC018D9186
:100EC0009C91FC01A681B781E881F98123E0EE0FB6
:100ED000FF1F2A95E1F712962D913C911397E20F8F
:100EE000F31F00811181AC85BD859D01220F331F49
:100EF000DC0112968D919C911397D901A80FB91F0F
:100F00008D919C9124813581232B19F461E070E04F
:100F100002C062E070E0689F9001699F300D789F89
:100F2000300D112488859985289FB001299F700D67
:100F3000389F700D1124EC81FD812E9FC0012F9FE1
:100F4000900D3E9F900D1124800F911FFA01918307
:100F5000808373836283DF91CF911F910F910895F6
:100F60002F923F924F925F926F927F928F929F92B9
:100F7000AF92BF92CF92DF92EF92FF920F931F93A7
:100F8000CF93DF9300D000D0CDB7DEB7DC0114964D
:100F9000ED91FC9115970190F081E02D8085918570
:100FA0009A838983A281B381BC83AB83FB01819047
:100FB0009190A190B1908F01C12CD12C7601C814D1
:100FC000D904EA04FB040CF05FC0D80114964D90DC
:100FD0005D906D907C90179718964D915D916D91F5
:100FE0007C911B97F8017096FE83ED83F801A08138
:100FF000B18183E0AA0FBB1F8A95E1F7E981FA81ED
:1010000082819381A80FB91F2D903C901197F80110
:1010100024853585220F331F8B819C81280F391F32
:10102000F9010081118114968D919C911597892B5E
:1010300019F481E090E002C082E090E0809F90018E
:10104000819F300D909F300D1124249F8001259F9A
:10105000100D349F100D1124249DC001259D900D6D
:10106000349D900D1124A8016D817E81820D931D08
:101070000E940E338D819E81080F191F9FEFC91AA0
:10108000D90AE90AF90A9BCF26960FB6F894DEBF73
:101090000FBECDBFDF91CF911F910F91FF90EF90C9
:1010A000DF90CF90BF90AF909F908F907F906F9088
:1010B0005F904F903F902F900895CF93DF93DB0187
:1010C000A453BD4F2C91222369F024E4269FF00104
:1010D000279FF00D1124E851FC4FEF0119922A953A
:1010E000E9F71C9224E4269FF001279FF00D1124BC
:1010F000E851FC4F148215821682178211861086E1
:1011000013861286118A108A17861686DF91CF9170
:1011100064CE2F923F924F925F926F927F928F9206
:101120009F92AF92BF92CF92DF92EF92FF920F9376
:101130001F93CF93DF93CDB7DEB728970FB6F89400
:10114000DEBF0FBECDBF6B017C011A0184E48C9D14
:1011500090018D9D300D112428513C4FF90184815F
:101160009581A681B781892B8A2B8B2B09F4B8C076
:10117000A12CB12C412C512C320138872F83C9016D
:1011800004969A838983D9011896BC83AB83E9813D
:10119000FA8180819181A281B381481659066A063D
:1011A0007B0694F5AB81BC81ED91FC91EA0DFB1DB2
:1011B000228133818901812C912C82149304C4F4FF
:1011C000D801ED91FC91309769F0848195812D8350
:1011D0003E830E947632F801808191810E947632AE
:1011E0003E812D81FFEF8F1A9F0A0E5F1F4FE5CFC3
:1011F000C9010E9476328FEF481A580A680A780AA5
:1012000094E0A90EB11CC3CFAF81B88518968D911B
:101210009C9119970E947632EF81F885828593859B
:10122000892B59F1A12CB12C812C912C84E48C9D1B
:1012300080018D9D100D11240E501C4F82149304BB
:1012400084F4D801ED91FC91EA0DFB1D8481958118
:101250000E947632BFEF8B1A9B0AEEE0AE0EB11CF5
:10126000EDCF84E48C9DF0018D9DF00D1124E851AB
:10127000FC4F828593850E94763284E48C9D900198
:101280008D9D300D1124890108511C4FD8015096B5
:101290008D919C9151970E947632F80186859785B1
:1012A0000E947632C701B60198DDC701B6012896C3
:1012B0000FB6F894DEBF0FBECDBFDF91CF911F9167
:1012C0000F91FF90EF90DF90CF90BF90AF909F90E5
:1012D0008F907F906F905F904F903F902F90EDCECA
:1012E00028960FB6F894DEBF0FBECDBFDF91CF9129
:1012F0001F910F91FF90EF90DF90CF90BF90AF9034
:101300009F908F907F906F905F904F903F902F9025
:10131000089524E4269FF001279FF00D1124E85141
:10132000FC4F828993890497029758F485E090E0F6
:10133000938B828B8FEF9FEFDC01828F938FA48F33
:10134000B58F08952F923F924F925F926F927F9246
:101350008F929F92AF92BF92CF92DF92EF92FF92C5
:101360000F931F93CF93DF93CDB7DEB7E0970FB600
:10137000F894DEBF0FBECDBF9AA389A31B016A01FB
:101380002801390184E4849D8001859D100D11247C
:10139000980128513C4F7901D9014D925D926D928F
:1013A0007C921397AB01C301B201B3DEF801E451A3
:1013B000FC4FD6014D915D916D917D918D01CA01DA
:1013C000408351836283738364E070E00E94C7317D
:1013D000F70191878087892B09F499C11E8E1D8E94
:1013E000198E1A8E1B8E1C8EF8A2EF8E97012C5F21
:1013F0003F4F38A72FA32C5F3F4F3AA729A7EFA154
:10140000F8A580819181A281B381298D3A8D4B8D80
:101410005C8D281739074A075B070CF0E4C0A9A5C3
:10142000BAA58D919C912D8D3E8D280F391F3A8B39
:10143000298BD801ED91FC91EE0FFF1FA9A1BAA154
:101440008D919C91E80FF91F80819181F901918321
:101450008083D80114962D913D914D915C91179701
:101460002BA33CA34DA35EA3085F1F4F62E070E077
:10147000C1010E94C731E989FA8993838283892B4C
:1014800009F445C11D8A1E8A1F8A188E2D893E893E
:101490004F89588D8BA19CA1ADA1BEA128173907FA
:1014A0004A075B070CF08CC0D801ED90FC90EE0C65
:1014B000FF1CE989FA89C280D380CE0CDF1C68E06A
:1014C00070E081E090E00E94C731D6018D939C933B
:1014D000E989FA8982819381FC01EE0DFF1DC080AC
:1014E000D180C114D10409F412C1D80114964D91D0
:1014F0005D916D917C911797CA01F60140835183EC
:1015000062837383085F1F4F64E070E00E94C731FD
:10151000D60115969C938E931497892B09F4F7C0E6
:101520001C8A1B8A812C912C5401F60180819181A7
:10153000A281B38188169906AA06BB06A4F5F60116
:10154000E480F5802B893C89E20EF31EF801DE0170
:10155000119680E101900D928A95E1F7005F1F4F8F
:10156000A701BE016F5F7F4FA9A1BAA114968D910B
:101570009C9115979EDCF60126813781D701129642
:101580008D919C911397820F931F97838683BFEF52
:101590008B1A9B0AAB0ABB0A2B893C892C5F3F4FF5
:1015A0003C8B2B8BC2CF2D893E894F89588D2F5F65
:1015B0003F4F4F4F5F4F2D8B3E8B4F8B588F66CFDA
:1015C000298D3A8D4B8D5C8D2F5F3F4F4F4F5F4F75
:1015D000298F3A8F4B8F5C8F2D8D3E8D2C5F3F4F27
:1015E0003E8F2D8F0CCF6EE070E0C1010E94C7319D
:1015F000AF8DB8A11B969C938E931A97812C912C3A
:10160000A12CB12CC12CD12C24E4249DC001259DFA
:10161000900D11249C012E503C4F3A8B298B21E0D8
:1016200030E0A214B3040CF04AC0D8014D915D9192
:101630006D917D918D01CA01E989FA89E080F1807F
:10164000E80CF91C57FD63C0D70111963C932E930B
:101650000097A1F02FA738AB4BA75CA76DA77EA77B
:101660000E94E131F701958384832FA538A94BA50A
:101670005CA56DA57EA5892B31F449C0D7011596CF
:101680001C921E921497F7015383428384819581A3
:1016900097838683918780871386128681E090E006
:1016A000452B462B472B11F480E090E0C80ED91E45
:1016B000FFEFAF1ABF0A4EE0840E911CB2CF84E454
:1016C000849D8001859D100D112408511C4FD80167
:1016D0001D961C921E921C97C60133E0880F991F1D
:1016E0003A95E1F70E94E131F801918B808B892BCB
:1016F00071F0C601880F991F0E94E131D8011F9631
:101700009C938E931E97892B11F080E005C0A10158
:10171000C301B201FEDC81E0E0960FB6F894DEBFB3
:101720000FBECDBFDF91CF911F910F91FF90EF9032
:10173000DF90CF90BF90AF909F908F907F906F90F1
:101740005F904F903F902F9008952F923F924F922D
:101750005F926F927F928F929F92AF92BF92CF9241
:10176000DF92EF92FF920F931F93CF93DF93CDB74A
:10177000DEB768970FB6F894DEBF0FBECDBF9C8B67
:101780008B8BDB0149015A0124E4289DC001299D6E
:10179000900D11249C0128513C4F79012D913C91D1
:1017A0001197F701358B248BFC01E250FC4F149606
:1017B0004D915D916D917C91179740835183628328
:1017C0007383FC01EE5FFB4F18964D915D916D9117
:1017D0007C911B974083518362837383FC01EA5F92
:1017E000FB4F1C964D915D916D917C911F974083AD
:1017F000518362837383FC01EA5EFB4F50965C91D8
:10180000509751964C91519752963C9152975396BE
:101810002C91539750834183328323838D010C5E37
:101820001F4F852F942F181619060CF068C0880FCB
:10183000991F880F991F0E94E131D701D3969C937D
:101840008E93D297892B09F4BCC0212C312C412CCA
:10185000512C32019701225D3F4F3E8B2D8B2C5F27
:101860003F4F388F2F8B2E5F3F4F3A8B298BB30121
:10187000A2012FEF421A520A620A720AED89FE890A
:1018800080819181A281B381481759076A077B073C
:101890004CF5AF89B88DCD90DC90C20CD31CF8010B
:1018A000DE01119680E101900D928A95E1F7005FCB
:1018B0001F4FA601BE016F5F7F4FEB89FC898481BA
:1018C0009581F7DAA989BA898D919C911197F601D2
:1018D00022813381820F931F8D939C93F4E02F0E0E
:1018E000311CC5CFD701D4968D919C91D5970E947C
:1018F000E131F70197AB86AB892B09F462C0F8019F
:1019000080819181A281B38124E4289DF001299DE9
:10191000F00D1124E851FC4FAC01BD014D7F21E0D9
:1019200030E0452B462B472B11F020E030E033A36D
:1019300022A324E4289DF001299DF00D1124E851F3
:10194000FC4F0197A109B10921E030E00297A10500
:10195000B10510F020E030E035A324A384E4889D95
:10196000F001899DF00D1124CF01825F9B4FD801BA
:1019700014964D915D916D917C911797DC014D937B
:101980005D936D937C931397E851FC4F868D978DF3
:10199000A0A1B1A1B7FF10C0B095A0959095819579
:1019A0009F4FAF4FBF4F82AF93AFA4AFB5AF168E6F
:1019B000178E10A211A20AC012AE13AE14AE15AE4D
:1019C00005C0C501B40109DA81E001C080E0689674
:1019D0000FB6F894DEBF0FBECDBFDF91CF911F9140
:1019E0000F91FF90EF90DF90CF90BF90AF909F90BE
:1019F0008F907F906F905F904F903F902F900895C1
:101A0000CF92DF92EF92FF92CF93DF931092700408
:101A100024E4269FF001279FF00D1124E851FC4F8C
:101A200015A614A620E030E0C12CD12CDF011A96B7
:101A3000C1E0D0E0C416D506D4F4ED91FC91119725
:101A4000E20FF31FE280F3801E141F0454F4E480BD
:101A5000F580F782E682F186E08613861286D183CE
:101A6000C083EFEFCE1ADE0A225F3F4FE3CF24E4BC
:101A7000269FF001279FF00D1124E851FC4F13A67B
:101A800012A611AE10AEDF01DE961D921D921D92C0
:101A90001C92139782E090E0938B828BDF91CF9121
:101AA000FF90EF90DF90CF90089524E4269FF001FF
:101AB000279FF00D1124E851FC4F138A128A29CB7D
:101AC00024E4269FF001279FF00D1124E851FC4FDC
:101AD0008289938981309105C8F08530910518F08D
:101AE000059769F008958FEF9FEFDC01828F938F48
:101AF000A48FB58F85E090E0938B828B08958FEF54
:101B00009FEFDC01828F938FA48FB58F089524E41B
:101B1000249FF001259FF00D1124E851FC4F2EE089
:101B2000AC01249FC001259F900D11240284F385F0
:101B3000E02DE80FF91F81E0809370048285938582
:101B400091878087408551852681378181E090E0AB
:101B50004217530711F080E090E09183808308954D
:101B60002F923F924F925F926F927F928F929F92AD
:101B7000AF92BF92CF92DF92EF92FF920F931F939B
:101B8000CF93DF93CDB7DEB7C255D1090FB6F89426
:101B9000DEBF0FBECDBF21969FAF8EAF21974BA763
:101BA0005CA76DA77EA74801590184E4889D800148
:101BB000899D100D1124F801E851FC4F22853385D1
:101BC00027963FAF2EAF279782899389029709F016
:101BD00060C186A597A5A0A9B1A9892B8A2B8B2BBB
:101BE00029F484E090E0938B828B53C1848995899A
:101BF00021964EAD5FAD21974817590709F049C1AD
:101C000086A997A99AAB89AB1EAE1DAE19AE1AAEC6
:101C10001BAE1CAE8F01DF019E962996BFAFAEAF03
:101C20002997F2962B96FFAFEEAF2B979801285C81
:101C30003F4F2D963FAF2EAF2D97A8014A5D5F4FC6
:101C40002F965FAF4EAF2F97C801829661969FAFD8
:101C50008EAF61971A976396BFAFAEAF6397299621
:101C6000EEADFFAD299780819181A281B38129AD2D
:101C70003AAD4BAD5CAD281739074A075B070CF04E
:101C8000E7C02B96EEADFFAD2B97808191812DADF6
:101C90003EAD280F391F3EAB2DABD90112960D90EA
:101CA000BC91A02D2396BFAFAEAF2397B695A79555
:101CB000B695A7952596BFAFAEAF25972D96EEADFD
:101CC000FFAD2D9780819181892B09F496C02F96C5
:101CD000AEADBFAD2F97CD90DD90ED90FC9029A8D3
:101CE0003AA8F9010190F081E02DF8ABEFA718AE0A
:101CF0001FAA8FA998AD2596AEADBFAD25978A17BF
:101D00009B070CF07AC06196AEADBFAD61978D9127
:101D10009C91892B69F1EFA5F8A9408051806280E0
:101D20007380A7019601C301B2010E94682F87FD4D
:101D30000BC0A7019601D1016D917D918D919C9170
:101D40000E94BD2D87FD8CC0A7019601C301B20181
:101D50000E94682F181664F4A7019601F1016081B2
:101D60007181828193810E94BD2D882309F478C0FE
:101D70006396AEADBFAD63978D919C91892B69F150
:101D8000EFA5F8A94080518062807380A701960179
:101D9000C301B2010E94BD2D87FF0BC0A7019601B0
:101DA000D1016D917D918D919C910E94682F87FF4B
:101DB00057C0A7019601C301B2010E94BD2D811138
:101DC0000CC0A7019601F10160817181828193812C
:101DD0000E94682F18160CF443C02FA938AD2F5F4E
:101DE0003F4F38AF2FAB34E0230E311C4FA558A91D
:101DF0004C5F5F4F58AB4FA77CCFEDA9FEA9608128
:101E0000718123964EAD5FAD239789A99AA90E944F
:101E10000E3325968EAD9FAD2597880F991F880F9D
:101E2000991F29A93AA9280F391F3AAB29AB89ADC7
:101E30009AADABADBCAD0196A11DB11D89AF9AAFF6
:101E4000ABAFBCAFADADBEAD1496BEAFADAF07CFBF
:101E500081E090E0D801D9969C938E93D89719C0D1
:101E600084E4889DF001899DF00D1124E851FC4F18
:101E7000868D978DA0A1B1A1892B8A2B8B2B09F080
:101E800064C284E090E0938B828B86AD97AD93A77C
:101E900082A784E4889DF001899DF00D1124E8510A
:101EA000FC4F828993898230910571F482AD93ADA4
:101EB000A4ADB5AD181619061A061B060CF04CC2D7
:101EC000CC24C394D12C05C0049709F045C2C12C81
:101ED000D12C8EE02196EEADFFAD21978E9F700143
:101EE0008F9FF00C112427962EAD3FAD2797E20E61
:101EF000F31ED70112964D915C9113974115510530
:101F000009F42AC216968D919C9117979AA789A7D2
:101F1000FE01319684E1DF011D928A95E9F7898AF5
:101F20009A8AAB8ABC8AC114D10409F457C084E4EC
:101F3000889DF001899DF00D1124E851FC4FDF01CF
:101F4000DE964D905D906D907C9082AD93ADA4AD8A
:101F5000B5AD481659066A067B0609F03FC0F70181
:101F6000648175810084F185E02D84819581A6814D
:101F7000B7819C018D8B9E8BAF8BB88F285F3F4FB5
:101F80003E8B2D8BD70118968D919C911997280F18
:101F9000391F19963C932E93189718968D919C9102
:101FA0001997460F571F841B950B97FD06C0860F88
:101FB000971F19969C938E93189784E4889DF0013F
:101FC000899DF00D1124EA5DFB4FB1E04B1A5108D9
:101FD0006108710840825182628273829E012B5E89
:101FE0003F4FAE01475D5F4F64E170E0C7010E9463
:101FF0008406082F10E00115110509F091C18CE04D
:1020000090E0A0E0B0E08D839E83AF83B8879E010F
:10201000235E3F4FAE01475D5F4F64E070E0C70154
:102020000E948406082F10E00115110509F078C1FF
:1020300080E190E0A0E0B0E08D839E83AF83B8871D
:102040004D8D5E8DBE01655D7F4F8F8D98A10E9485
:102050000E338BA19CA1009761F06D8D7E8DEBE21C
:10206000F0E0EC0FFD1F6E0F7F1F49A15AA10E94E7
:102070000E331DA21EA21FA218A621962EAD3FADA3
:102080002197220F331F38AF2FAB24E4289DC001C6
:10209000299D900D112488519C4FAC014C5F5F4FDE
:1020A0005AAF49AFDC011896BEAFADAF2DA13EA12E
:1020B0004FA158A529AB3AAB4BAB5CABE9ADFAAD40
:1020C00080819181A281B381281739074A075B0774
:1020D0000CF0CFC0ADADBEADED91FC9189A99AA930
:1020E000880F991F880F991FE80FF91FA081B181F0
:1020F0008C91882309F4AFC0833009F4ACC002800E
:10210000F381E02D2FA938ADE20FF31F40815181FB
:1021100058AB4FA7452B09F49EC089859A85AB859E
:10212000BC850196A11DB11D89879A87AB87BC87A5
:102130009E01235E3F4FAE01475D5F4F64E070E05C
:10214000C7010E94840690E0009709F0E8C08D81E5
:102150009E81AF81B8850496A11DB11D8D839E839C
:10216000AF83B8874D8D5E8DBE016B5D7F4F8F8DC8
:1021700098A10E940E338BA19CA1009761F06D8DF8
:102180007E8DA5E2B0E0AC0FBD1F6A0F7B1F49A199
:102190005AA10E940E331EAA1DAA412C512C3201B5
:1021A000EFA5F8A980819181A281B38148165906D3
:1021B0006A067B060CF04FC0EFA5F8A92480358095
:1021C0002DA93EA9220E331ED10112966D917C914C
:1021D00013979E01235E3F4FAE01475D5F4FC701DE
:1021E0000E94840690E0009709F099C0F101828175
:1021F0009381092E000CAA0BBB0B4D815E816F8170
:102200007885840F951FA61FB71F8D839E83AF838C
:10221000B887608171814D8D5E8D8F8D98A10E94F0
:102220000E338BA19CA1009759F0D1016D917C9147
:102230002D8D3E8D620F731F49A15AA10E940E334E
:10224000BFEF4B1A5B0A6B0A7B0AEDA9FEA9349615
:10225000FEABEDABA5CF49A85AA86BA87CA8FFEFB1
:102260004F1A5F0A6F0A7F0A4DA25EA26FA278A67C
:102270001DCF89859A85AB85BC85892B8A2B8B2BB5
:1022800009F44EC08AE190E0A0E0B0E089839A832F
:10229000AB83BC8321962EAD3FAD2197C901330F8F
:1022A000AA0BBB0B8D879E87AF87B88B4D895E8944
:1022B000BE016F5F7F4F8F89988D0E940E338B8D8B
:1022C0009C8D009761F06D897E8941E050E04C0F54
:1022D0005D1F640F751F498D5A8D0E940E3389A5AD
:1022E0009AA5D70117969C938E93169711961C92D8
:1022F0001E92CD2889F184E4889DF001899DF00D1E
:102300001124EA5DFB4F80819181A281B381019606
:10231000A11DB11D80839183A283B3831DC08C0155
:10232000CD28D1F4012BC1F084E4889DF001899D72
:10233000F00D1124E851FC4F81E090E095A784A7AF
:1023400085E090E0938B828B07C083E090E0938BD5
:10235000828B81E090E09BCDCE5ADF4F0FB6F89490
:10236000DEBF0FBECDBFDF91CF911F910F91FF90C8
:10237000EF90DF90CF90BF90AF909F908F907F9025
:102380006F905F904F903F902F900895CF92DF9283
:10239000EF92FF920F931F936B017C0184E48C9D5D
:1023A000F0018D9DF00D1124E851FC4F8289938935
:1023B000009709F450C00197B9F482A593A59C0138
:1023C0002F5F3F4F33A722A7092E000CAA0BBB0B90
:1023D000028D138D248D358D80179107A207B307C9
:1023E000D1F5C701B6010CDB84E48C9DF0018D9D15
:1023F000F00D1124E851FC4F82899389039759F518
:1024000082A593A59C012F5F3F4F33A722A7092EDA
:10241000000CAA0BBB0B468D578D60A171A18417D0
:102420009507A607B707BCF086AD97AD93A782A71F
:1024300084E090E0938B828B82AD93ADA4ADB5AD7B
:10244000181619061A061B0634F4EE5BFF4F81E0DE
:1024500090E0918380831F910F91FF90EF90DF9028
:10246000CF90089524E4269FF001279FF00D1124BA
:10247000E851FC4F828993890497B1F482A593A512
:10248000019693A782A7092E000CAA0BBB0B4689C5
:102490005789608D718D84179507A607B70721F4BA
:1024A00085E090E0938B828B08952F923F924F921C
:1024B0005F926F927F928F929F92AF92BF92CF92D4
:1024C000DF92EF92FF920F931F93CF93DF93CDB7DD
:1024D000DEB72E970FB6F894DEBF0FBECDBF49838F
:1024E0005A836B837C834901442E552E24E4249D1A
:1024F000F001259DF00D1124E851FC4F228833880E
:10250000910124503109158614862230310508F0D6
:10251000DDC0DC0111961C921E9213961C921E9235
:102520001297A12CB12C60E070E09F01265F3F4F15
:1025300038872F837F013CE0E30EF11CDF015096CA
:10254000BA87A9879F01225F3F4F3C872B87681579
:1025500079050CF06FC0EF81F885A081B1819D01F4
:102560002A0D3B1D3E872D87D9012D913C91119756
:10257000232B09F059C018960D911C9119971296AA
:10258000ED91FC911397FE83ED8316962D913C916E
:102590001797D7014D915C91DA01E3E0AA0FBB1FB9
:1025A000EA95E1F7E985FA85C080D180FD01EC0D5F
:1025B000FD1D440F551FAB85BC85CD90DC904C0DA7
:1025C0005D1DDA016D937C93D7014D915C9111975C
:1025D0004F5F5F4F4D935C9313830283AD85BE8540
:1025E0001B963C932E931A970217130748F4201B4F
:1025F000310B31832083158214821782168214C016
:10260000AD85BE851496CD90DC9015974D815E8189
:102610004C0D5D1D401B510B518340832C193D090E
:1026200035832483D782C6826F5F7F4FBEE0AB0EB7
:10263000B11C8DCF24E4249D8001259D100D112413
:1026400008511C4FF80124853585DC0111963C9317
:102650002E934089518913965C934E931297468529
:10266000578515965C934E931497232BA1F5B5E0EF
:102670002B16310481F510927004828D938DA48DF8
:10268000B58DAE014F5F5F4F64E070E08F3F9F4FAD
:10269000AF4FBF4F59F480E290E00E94CA21698198
:1026A0007A818B819C81A40100DA15C08FE190E0D2
:1026B0000E94CA21D8019B961C921E929A9781E093
:1026C00090E053969C938E93529705C0FC01118223
:1026D0001082138212822E960FB6F894DEBF0FBEC0
:1026E000CDBFDF91CF911F910F91FF90EF90DF90C1
:1026F000CF90BF90AF909F908F907F906F905F90A2
:102700004F903F902F900895EF92FF920F931F9359
:10271000CF93DF937C018B01EA010E944D2281114E
:1027200021C08091CE029091CF02049711F183E0F5
:1027300090E09093CF028093CE021BC098819111BC
:10274000F0CF28ED38EB45E050E060E070E0CB01E1
:102750000E94D724AE01B801C7010E94E524C80138
:102760000E94B0248091710490917204892B31F3FE
:10277000D8CFDF91CF911F910F91FF90EF900895E7
:10278000CF93DF932091CE023091CF0224303105D8
:1027900041F0EB010E94E524CE01DF91CF910C9432
:1027A000B024DF91CF9108950C94FB280C94F0286D
:1027B0000C94DE280C94C0240C948128089560E0C9
:1027C00070E080E090E00C9428220895AF92BF92D0
:1027D000CF92DF92EF92FF920F931F93CF93DF93ED
:1027E0001F921F92CDB7DEB75C0169017A018B01A0
:1027F00080E090E0C114D104E104F104F1F0C114CF
:10280000D10421E0E206F10410F4A60102C04FEF6A
:102810005FEF9E012F5F3F4FB801C5010E949C29C9
:102820008F3F2FEF920749F029813A81C21AD30ACC
:10283000E108F108020F131FDDCF0F900F90DF9119
:10284000CF911F910F91FF90EF90DF90CF90BF90AD
:10285000AF9008954F925F926F927F928F929F9266
:10286000AF92BF92CF92DF92EF92FF920F931F939E
:10287000CF93DF93CDB7DEB728970FB6F894DEBFBE
:102880000FBECDBF8C0120E030E040E85FE3FB01EC
:1028900060817181828193810E94BD2D8111DFC091
:1028A00080917304909174042091190830911A0852
:1028B000821B930B9093740480937304E9E1F8E016
:1028C000828193818193919388E0EB32F807C1F77D
:1028D0008FE080D390932C0880932B082091730471
:1028E00030917404820F931F909374048093730447
:1028F0006AE070E00E944131072E000C880B990BB2
:102900000E945C2E23E333E343E55BE30E946C2FDC
:102910006B017C0120E030E040EC50E40E94CF2FBE
:102920004B015C0120E030E040EA50E4C701B60111
:102930000E94CF2F2B013C0120E030E040E850E422
:10294000C701B6010E94CF2F69837A838B839C8352
:1029500020E030E040E450E4C701B6010E94CF2FF0
:102960006D837E838F8398872EE836E040EA5FE3AD
:10297000C501B4010E946C2F4B015C0122E03BE2D7
:1029800043E851E4C301B2010E946C2F9B01AC01EA
:10299000C501B4010E94582D4B015C012CE437EFB6
:1029A00049EA52E469817A818B819C810E946C2F73
:1029B0009B01AC01C501B4010E94592D4B015C0182
:1029C00023EC35E741E653E46D817E818F81988564
:1029D0000E946C2F9B01AC01C501B4010E94582DCF
:1029E0004B015C01A7019601C701B6010E946C2F43
:1029F00026E636E645EA53E40E946C2F9B01AC01C3
:102A0000C501B4010E94592D4B015C012DEC3CE045
:102A100048E853E4C701B6010E946C2F9B01AC014A
:102A2000C501B4010E94582D24EA30E741EF52E479
:102A30000E94592D6B017C0120E030E040EE50E413
:102A40000E94BD2D87FF06C0C12CD12C80EEE82E40
:102A500080E4F82EF801C082D182E282F3822896C7
:102A60000FB6F894DEBF0FBECDBFDF91CF911F919F
:102A70000F91FF90EF90DF90CF90BF90AF909F901D
:102A80008F907F906F905F904F9008950F931F935A
:102A9000CF93DF938B0120E030E0A901FB0160813F
:102AA0007181828193810E94BD2D811127C060E0D8
:102AB0008FE00BD383E08BD2C9E1D8E08FE08AD2DC
:102AC000899399932091730430917404820F931F1A
:102AD00090937404809373046CE370E080E090E062
:102AE000DBD1F8E0CD32DF0749F780E090E0A0E8E5
:102AF000BFE3F80180839183A283B383DF91CF91F9
:102B00001F910F910895089508951F920F920FB687
:102B10000F9211240BB60F922F933F934F935F9315
:102B20006F937F938F939F93AF93BF93EF93FF9395
:102B3000E091D402F091D5021995FF91EF91BF91E8
:102B4000AF919F918F917F916F915F914F913F9145
:102B50002F910F900BBE0F900FBE0F901F901895E6
:102B60001F920F920FB60F9211240BB60F922F9354
:102B70003F934F935F936F937F938F939F93AF9305
:102B8000BF93EF93FF93E091D602F091D70219958E
:102B9000FF91EF91BF91AF919F918F917F916F9135
:102BA0005F914F913F912F910F900BBE0F900FBEF1
:102BB0000F901F9018951F920F920FB60F9211242D
:102BC0000BB60F922F933F934F935F936F937F9327
:102BD0008F939F93AF93BF93EF93FF93E091D802AE
:102BE000F091D9021995FF91EF91BF91AF919F910B
:102BF0008F917F916F915F914F913F912F910F90A6
:102C00000BBE0F900FBE0F901F9018951F920F9242
:102C10000FB60F9211240BB60F922F933F934F9341
:102C20005F936F937F938F939F93AF93BF93EF9334
:102C3000FF93E091DA02F091DB021995FF91EF9199
:102C4000BF91AF919F918F917F916F915F914F91C4
:102C50003F912F910F900BBE0F900FBE0F901F90C2
:102C600018951F920F920FB60F9211240BB60F9268
:102C70002F933F934F935F936F937F938F939F9384
:102C8000AF93BF93EF93FF93E091D002F091D10205
:102C90001995FF91EF91BF91AF919F918F917F9186
:102CA0006F915F914F913F912F910F900BBE0F90BD
:102CB0000FBE0F901F9018951F920F920FB60F9294
:102CC00011240BB60F922F933F934F935F936F9303
:102CD0007F938F939F93AF93BF93EF93FF93E09175
:102CE000D202F091D3021995FF91EF91BF91AF916C
:102CF0009F918F917F916F915F914F913F912F9114
:102D00000F900BBE0F900FBE0F901F9018951F9243
:102D10000F920FB60F9211240BB60F922F933F9381
:102D20004F935F936F937F938F939F93AF93BF93D3
:102D3000EF93FF93E091DC02F091DD021995FF9192
:102D4000EF91BF91AF919F918F917F916F915F9123
:102D50004F913F912F910F900BBE0F900FBE0F9090
:102D60001F9018951F920F920FB60F9211240BB659
:102D70000F922F933F934F935F936F937F938F9314
:102D80009F93AF93BF93EF93FF93E091DE02F09197
:102D9000DF021995FF91EF91BF91AF919F918F91B4
:102DA0007F916F915F914F913F912F910F900BBE4B
:102DB0000F900FBE0F901F9018951F920F920FB695
:102DC0000F9211242F933F938F939F93AF93BF93B1
:102DD0008091760490917704A0917804B091790461
:102DE0003091750423E0230F2D3720F40196A11DA7
:102DF000B11D05C026E8230F0296A11DB11D209329
:102E000075048093760490937704A0937804B0932C
:102E1000790480917A0490917B04A0917C04B09114
:102E20007D040196A11DB11D80937A0490937B04CB
:102E3000A0937C04B0937D04BF91AF919F918F913B
:102E40003F912F910F900FBE0F901F9018953FB795
:102E5000F89480917A0490917B04A0917C04B091C5
:102E60007D0426B5A89B05C02F3F19F00196A11D32
:102E7000B11D3FBFBA2FA92F982F8827820F911D10
:102E8000A11DB11DBC01CD0142E0660F771F881F57
:102E9000991F4A95D1F708958F929F92AF92BF9252
:102EA000CF92DF92EF92FF926B017C01D0DF4B015A
:102EB0005C01C114D104E104F104F1F024DEC7DFA8
:102EC000DC01CB0188199909AA09BB09883E934006
:102ED000A105B10570F321E0C21AD108E108F1089B
:102EE00088EE880E83E0981EA11CB11CC114D10489
:102EF000E104F10421F7DDCFFF90EF90DF90CF9058
:102F0000BF90AF909F908F900895789484B5826021
:102F100084BD84B5816084BD85B5826085BD85B57D
:102F2000816085BDEEE6F0E0808181608083E1E82C
:102F3000F0E0108280818260808380818160808364
:102F4000E0E8F0E0808181608083E1EBF0E0808167
:102F500084608083E0EBF0E0808181608083E1E940
:102F6000F0E0808182608083808181608083E0E9FD
:102F7000F0E0808181608083E1EAF0E0808182601E
:102F80008083808181608083E0EAF0E080818160DD
:102F90008083E1E2F1E080818260808380818160D2
:102FA0008083E0E2F1E0808181608083EAE7F0E005
:102FB0008081846080838081826080838081816061
:102FC00080838081806880831092C10008958093FF
:102FD000E0020895863308F0865390917B00282FF5
:102FE0002870977F922B90937B0087702091E0024E
:102FF00090E4299F90011124822B80937C00809182
:103000007A00806480937A0080917A0086FDFCCFFC
:10301000809178002091790090E0922B089590E0C3
:10302000FC013197E231F10508F04EC08827EE58D7
:10303000FF4F8F4F0C949231809180008F7703C0A7
:10304000809180008F7D8093800008958091800022
:10305000877FF9CF84B58F7702C084B58F7D84BD1B
:1030600008958091B0008F7703C08091B0008F7D6C
:103070008093B0000895809190008F7707C0809171
:1030800090008F7D03C080919000877F8093900097
:1030900008958091A0008F7707C08091A0008F7D58
:1030A00003C08091A000877F8093A0000895809145
:1030B00020018F7707C0809120018F7D03C0809110
:1030C0002001877F809320010895CF93DF9390E0C4
:1030D000FC01E051FE4F2491FC01EA5CFD4F84911C
:1030E000882361F190E0880F991FFC01EA56FD4F9B
:1030F000C591D491FC01E458FD4FA591B4916111A3
:1031000009C09FB7F8948881209582238883EC9129
:103110002E230BC0623061F49FB7F8943881822F60
:10312000809583238883EC912E2B2C939FBF06C020
:103130008FB7F894E8812E2B28838FBFDF91CF9132
:1031400008951F93CF93DF93282F30E0F901E655C0
:10315000FE4F8491F901E051FE4FD491F901EA5CF0
:10316000FD4FC491CC23C1F0162F811158DFEC2FF5
:10317000F0E0EE0FFF1FE458FD4FA591B4918FB71B
:10318000F894111105C09C91ED2FE095E92302C040
:10319000EC91ED2BEC938FBFDF91CF911F910895B0
:1031A000FC01918D228D892F90E0805C9F4F821BC6
:1031B00091098F7399270895FC01918D828D98173D
:1031C00031F0828DE80FF11D858D90E008958FEF2D
:1031D0009FEF0895FC01918D828D981761F0828D8B
:1031E000DF01A80FB11D5D968C91928D9F5F9F733B
:1031F000928F90E008958FEF9FEF0895FC01848DEA
:10320000DF01A80FB11DA35ABF4F2C91848D90E010
:1032100001968F739927848FA689B7892C93A089EB
:10322000B1898C9180648C93938D848D981306C0A2
:103230000288F389E02D80818F7D80830895CF936C
:10324000DF93EC01888D8823C1F0EA89FB898081B6
:1032500085FD05C0A889B9898C9186FD0EC00FB681
:1032600007FCF5CF808185FFF2CFA889B9898C91C1
:1032700085FFEDCFCE01C2DFE8CFDF91CF9108957A
:10328000EF92FF920F931F93CF93DF93EC0181E0B6
:10329000888F9B8D8C8D981305C0E889F989808172
:1032A00085FD23C0F62E0B8D10E00F5F1F4F0F73AF
:1032B0001127E02E8C8DE8120BC00FB607FCFACF59
:1032C000E889F989808185FFF5CFCE0197DFF2CFBC
:1032D0008B8DFE01E80FF11DE35AFF4FF0820B8F3B
:1032E000EA89FB898081806207C0EE89FF8960835B
:1032F000E889F98980818064808381E090E0DF91B2
:10330000CF911F910F91FF90EF900895CF92DF9290
:10331000EF92FF921F93CF93DF93EC016A017B0141
:10332000122FE889F98982E080834115514E6105A9
:103330007105B1F060E079E08DE390E0A7019601BE
:103340000E945431DA01C9010197A109B109B6956A
:10335000A79597958795AC01411580E15807A8F08E
:10336000E889F989108260E874E88EE190E0A701AD
:1033700096010E945431BA01A901415051096109D5
:1033800071097695679557954795EC85FD8550832E
:10339000EE85FF854083188EEC89FD891083EA89CC
:1033A000FB89808180618083EA89FB8980818860D4
:1033B0008083EA89FB89808180688083EA89FB8930
:1033C00080818F7D8083DF91CF911F91FF90EF905F
:1033D000DF90CF9008951F920F920FB60F92112495
:1033E0000BB60F922F938F939F93EF93FF93E091E0
:1033F0008E04F0918F048081E0919404F091950403
:1034000082FD12C09081809197048F5F8F7320910D
:103410009804821751F0E0919704F0E0E258FB4FD6
:10342000958F8093970401C08081FF91EF919F91C8
:103430008F912F910F900BBE0F900FBE0F901F908A
:1034400018951F920F920FB60F9211240BB60F9280
:103450002F933F934F935F936F937F938F939F939C
:10346000AF93BF93EF93FF938EE794E0C7DEFF9196
:10347000EF91BF91AF919F918F917F916F915F91EC
:103480004F913F912F910F900BBE0F900FBE0F9059
:103490001F901895EEE7F4E01382128288EE93E015
:1034A000A0E0B0E084839583A683B78389E693E0A8
:1034B0009183808385EC90E09587848784EC90E00D
:1034C0009787868780EC90E0918B808B81EC90E0F1
:1034D000938B828B82EC90E0958B848B86EC90E0D2
:1034E000978B868B118E128E138E148E08951F92D9
:1034F0000F920FB60F9211240BB60F922F938F934A
:103500009F93EF93FF93E0912B05F0912C05808121
:10351000E0913105F091320582FD12C090818091D9
:1035200034058F5F8F7320913505821751F0E0913C
:103530003405F0E0E55EFA4F958F8093340501C0C5
:103540008081FF91EF919F918F912F910F900BBEF2
:103550000F900FBE0F901F9018951F920F920FB6ED
:103560000F9211240BB60F922F933F934F935F93BB
:103570006F937F938F939F93AF93BF93EF93FF933B
:103580008BE195E03BDEFF91EF91BF91AF919F9171
:103590008F917F916F915F914F913F912F910F90FC
:1035A0000BBE0F900FBE0F901F901895EBE1F5E04A
:1035B0001382128288EE93E0A0E0B0E084839583CA
:1035C000A683B78389E693E0918380838DEC90E0B6
:1035D000958784878CEC90E09787868788EC90E0CD
:1035E000918B808B89EC90E0938B828B8AEC90E0BE
:1035F000958B848B8EEC90E0978B868B118E128E40
:10360000138E148E08951F920F920FB60F921124ED
:103610000BB60F922F938F939F93EF93FF93E091AD
:10362000C805F091C9058081E091CE05F091CF05E4
:1036300082FD12C090818091D1058F5F8F732091A0
:10364000D205821751F0E091D105F0E0E854FA4F2D
:10365000958F8093D10501C08081FF91EF919F915B
:103660008F912F910F900BBE0F900FBE0F901F9058
:1036700018951F920F920FB60F9211240BB60F924E
:103680002F933F934F935F936F937F938F939F936A
:10369000AF93BF93EF93FF9388EB95E0AFDDFF917E
:1036A000EF91BF91AF919F918F917F916F915F91BA
:1036B0004F913F912F910F900BBE0F900FBE0F9027
:1036C0001F901895E8EBF5E01382128288EE93E0E4
:1036D000A0E0B0E084839583A683B78389E693E076
:1036E0009183808385ED90E09587848784ED90E0D9
:1036F0009787868780ED90E0918B808B81ED90E0BD
:10370000938B828B82ED90E0958B848B86ED90E09D
:10371000978B868B118E128E138E148E08951F92A6
:103720000F920FB60F9211240BB60F922F938F9317
:103730009F93EF93FF93E0916506F0916606808179
:10374000E0916B06F0916C0682FD12C09081809131
:103750006E068F5F8F7320916F06821751F0E09194
:103760006E06F0E0EB5AF94F958F80936E0601C01C
:103770008081FF91EF919F918F912F910F900BBEC0
:103780000F900FBE0F901F9018951F920F920FB6BB
:103790000F9211240BB60F922F933F934F935F9389
:1037A0006F937F938F939F93AF93BF93EF93FF9309
:1037B00085E596E023DDFF91EF91BF91AF919F9159
:1037C0008F917F916F915F914F913F912F910F90CA
:1037D0000BBE0F900FBE0F901F901895E5E5F6E019
:1037E0001382128288EE93E0A0E0B0E08483958398
:1037F000A683B78389E693E09183808385E391E094
:103800009587848784E391E09787868780E391E0BA
:10381000918B808B81E391E0938B828B82E391E0AB
:10382000958B848B86E391E0978B868B118E128E1D
:10383000138E148E08958F929F92AF92BF92CF9263
:10384000DF92EF92FF920F931F93CF93DF937C0150
:103850008B016C0182E0C80ED11C4701E5E08E0EA1
:10386000911CC0E0D0E0F60161916F014AE050E0A8
:10387000C801C6D05C016EE2C80167D08A0D9B1DED
:10388000C80FD91FC814D90471F74AE050E0F701F6
:103890006581C801B5D08C0F9D1FDF91CF911F911D
:1038A0000F91FF90EF90DF90CF90BF90AF909F90DF
:1038B0008F900895E2EFF6E089E793E091838083AB
:1038C00012821382148215820895CF92DF92EF92B2
:1038D000FF920F931F93CF93DF936C017A018B01BB
:1038E000C0E0D0E0CE15DF0589F0D8016D918D01E3
:1038F000D601ED91FC910190F081E02DC601199562
:10390000892B11F47E0102C02196ECCFC701DF9113
:10391000CF911F910F91FF90EF90DF90CF9008957E
:103920006115710579F0FB0101900020E9F73197ED
:10393000AF01461B570BDC01ED91FC910280F38136
:10394000E02D199480E090E00895DC01ED91FC9168
:103950000190F081E02D19944F925F926F927F92C7
:10396000EF92FF920F931F93CF93DF93CDB7DEB704
:10397000A1970FB6F894DEBF0FBECDBF7C01FA0150
:10398000CB0119A2223008F42AE08E010F5D1F4FEF
:10399000422E512C612C712CBF01A30192010E9477
:1039A0005431F901CA01015011096A3014F4605D03
:1039B00001C0695CD8016C93232B242B252B61F764
:1039C000B801C701ADDFA1960FB6F894DEBF0FBEF8
:1039D000CDBFDF91CF911F910F91FF90EF907F901E
:1039E0006F905F904F9008952115310541F4DC01EF
:1039F000ED91FC910190F081E02D642F1994ACCFF2
:103A00009A01462F50E060E070E0EECF8230A9F0DE
:103A100028F4882349F0813051F00895843021F151
:103A2000E8F0853039F1089510926E000895809184
:103A30006F008D7F80936F000895809170008D7F5F
:103A40008093700081E08093B0008091B100887F06
:103A500084608093B1001092B3000895809171004A
:103A60008D7F809371000895809172008D7F809387
:103A700072000895809173008D7F80937300089584
:103A8000CF93C82F8091E1028C1307C0E0EBF2E0E6
:103A9000E4918FEF8093E10201C0EFEF8E2FB6DF4C
:103AA00060E08C2FCF914DCB1F920F920FB60F92EB
:103AB00011240BB60F922F933F934F935F936F9305
:103AC0007F938F939F93AF93BF93EF93FF938091D7
:103AD000FB069091FC06A091FD06B091FE06892B95
:103AE0008A2B8B2B51F18091F806E091F906F09129
:103AF000FA069081892780838091FB069091FC06CD
:103B0000A091FD06B091FE06181619061A061B06AE
:103B1000BCF48091FB069091FC06A091FD06B0914B
:103B2000FE060197A109B1098093FB069093FC065C
:103B3000A093FD06B093FE0603C08091E102A0DFD2
:103B4000FF91EF91BF91AF919F918F917F916F9175
:103B50005F914F913F912F910F900BBE0F900FBE31
:103B60000F901F9018954F925F926F927F92AF9235
:103B7000BF92CF92DF92EF92FF920F931F93CF935A
:103B8000DF93CDB7DEB729013A019B01AC012419BF
:103B90003509460957098A899B89AC89BD89BC01C9
:103BA000CD016A197B098C099D090E942631A80163
:103BB000970124193509460957090E947631CA012F
:103BC000B9016A0D7B1D8C1D9D1DDF91CF911F9149
:103BD0000F91FF90EF90DF90CF90BF90AF907F90CC
:103BE0006F905F904F90089540E855E260E070E07C
:103BF00080E090E000C08130910571F01CF4892BC9
:103C000039F008958230910559F0039769F00895CD
:103C100026E08EE794E00BC026E08BE195E007C03C
:103C200026E088EB95E003C026E085E596E06ECBC4
:103C300070E090E09C01220F331F820F931F815090
:103C4000994F0C941A2C70E090E09C01220F331FC6
:103C5000820F931F8150994F0C94542C8FEF96E054
:103C60000C94512B1F920F920FB60F9211240BB68A
:103C70000F922F933F934F935F936F937F938F9305
:103C80009F93AF93BF93EF93FF938AE591EF909348
:103C90008500809384000E94AF2CFF91EF91BF912B
:103CA000AF919F918F917F916F915F914F913F91D4
:103CB0002F910F900BBE0F900FBE0F901F90189575
:103CC0008AE591EF9093850080938400AFE6B0E0A1
:103CD0008C918E7F8C93E0E8F0E080818C7F8083F4
:103CE000E1E8F0E08081877E80838081846080834A
:103CF00080818C7F80838C9181608C93089581E09A
:103D000008956F927F928F929F92AF92BF92CF92BF
:103D1000DF92EF92FF920F931F93CF93DF935C019B
:103D20007B014A0101E010E00E151F0564F56801F2
:103D30008FEFC81AD80AE801CC0FDD1FC80DD91DB6
:103D40006880798061147104E1F06BE773E0C3016E
:103D50000E941E33892B19F41982188212C06EE753
:103D600073E0C3010E941E33892B59F4CE14DF0483
:103D700041F06801E2E0CE0ED11C198218821B824C
:103D80001A828601D1CF81E0F5018083B401C70199
:103D90000E942629F5019283818380E090E0DF91E3
:103DA000CF911F910F91FF90EF90DF90CF90BF9038
:103DB000AF909F908F907F906F90089582E097E0F2
:103DC000089580E008950F931F93CF93DF938B01A5
:103DD000BA01E901198218829801012E000C440BE6
:103DE000550BFC01818192810E94E613019621F01E
:103DF0001983088380E001C081E0DF91CF911F919A
:103E00000F9108950F931F93CF93DF931F921F92EB
:103E1000CDB7DEB7FB018A01B9019E012F5F3F4F8D
:103E2000AF01FC01818192810E943D29019639F008
:103E300089819A81F8019183808380E001C081E0CB
:103E40000F900F90DF91CF911F910F910895FC017A
:103E5000808108950895089581E0FB01808380E0CA
:103E60000895089510922C070895FC018181928194
:103E70000C941D29CF93DF93CDB7DEB72A970FB6E9
:103E8000F894DEBF0FBECDBFAC01CB0160E070E0A7
:103E900049835A836B837C83092E000CAA0BBB0BCE
:103EA0008D839E83AF83B8879E01275F3F4FAE010E
:103EB0004F5F5F4F68E070E080911B0790911C0797
:103EC00082DF811108C081E029853A8528303105DB
:103ED00019F480E001C081E02A960FB6F894DEBFA5
:103EE0000FBECDBFDF91CF9108950F931F93CF9356
:103EF000DF931F921F92CDB7DEB78B019E012F5F1C
:103F00003F4FAC0180911B0790911C075CDF811132
:103F100008C081E029813A812017310719F480E037
:103F200001C081E00F900F90DF91CF911F910F9111
:103F30000895CF93DF93EC0110921F0710921E0794
:103F400010922B0710922A07AC0160E070E0CB01C1
:103F50000E94550DAE0161E070E080E090E00E94AB
:103F6000550D80911B0790911C07DF91CF9179CF60
:103F70004F925F926F927F928F929F92AF92BF9279
:103F8000CF92DF92EF92FF920F931F93CF93DF9325
:103F90001F921F92CDB7DEB79C016C0197FF03C043
:103FA00087E0C80ED11C43E0D594C7944A95E1F749
:103FB000C90168E070E00E9441317C0189010E5F17
:103FC0001F4F8091190790911A07801791070CF0E5
:103FD000DCC08091170790911807009731F00E947C
:103FE000763210921A0710921907C8010E94E13127
:103FF0009093180780931707892B29F010931A07BD
:1040000000931907C2C0A12CB12CAC14BD040CF054
:104010005EC0412C512C320100E010E09801205E7E
:10402000384FAE014F5F5F4F61E070E080911B073A
:1040300090911C07E7DE811198C189819A812FEF49
:10404000421A520A620A720A20E942162FE5520603
:1040500021E0620671043CF060912A0770912B0701
:104060008DEE90E02DC0080F191F0A30110551F593
:1040700049E050E060E070E080E297E00E94C829EB
:1040800060912A0770912B078823C1F0809128073F
:1040900090E06817790709F0B8CF8EEE90E0EADE7D
:1040A00080912A0790912B070196992790932B07CF
:1040B00080932A078FEFA81AB80AA7CF8FEE90E057
:1040C000D9DEA7CF0A3011050CF4A8CF9ECFEF2878
:1040D00009F44BC1C12CD12C760100E010E098010D
:1040E000205E384FAE014F5F5F4F61E070E080911E
:1040F0001B0790911C0786DE811137C189819A8147
:104100002FEFC21AD20AE20AF20A20E9C2162FE5FC
:10411000D20621E0E206F1043CF060912A0770919A
:104120002B078DEE90E02AC0080F191F0A301105E9
:1041300039F549E050E060E070E080E297E00E94ED
:10414000C82960912A0770912B078823A9F08091D4
:10415000280790E06817790709F007C18EEE90E014
:1041600089DE80912A0790912B07019699279093D9
:104170002B0780932A07F9C08FEE90E07BDEAACF51
:104180000A3011050CF4ABCFF0C000E010E00C15C4
:104190001D050CF077C0412C512C3201A12CB12C03
:1041A000480193E0880C991C9A95E1F72091170734
:1041B00030911807C4018A0D9B1D280F391FAE01CD
:1041C0004F5F5F4F61E070E080911B0790911C078B
:1041D00019DE8111CAC089819A812FEF421A520AD1
:1041E000620A720A20E942162FE5520621E06206B1
:1041F00071043CF060912A0770912B078DEE90E0DE
:1042000034C0A80EB91E8AE0A816B104A9F549E089
:1042100050E0B40180911707909118070E94C829B7
:1042200060912A0770912B078823E9F08091170786
:1042300090911807FC01E80DF91D808590E0681742
:10424000790709F0A4CF8EEE90E014DE80912A0762
:1042500090912B070196992790932B0780932A071B
:104260000F5F1F4F94CF8FEE90E004DE412C512C56
:104270003201A12CB12C9ACF2AE0A216B1040CF481
:1042800095CF85CFE114F10409F46AC0680183E099
:10429000CC0CDD1C8A95E1F7812C912C540100E0B7
:1042A00010E09801205E384FAE014F5F5F4F61E034
:1042B00070E080911B0790911C07A4DD811155C00F
:1042C00089819A812FEF821A920AA20AB20A20E902
:1042D00082162FE5920621E0A206B1043CF060911F
:1042E0002A0770912B078DEE90E034C0080F191F3C
:1042F0000A30110589F549E050E060E070E080E2A5
:1043000097E00E94C82960912A0770912B078823A3
:10431000F9F08091280790E06817790709F58EEE8B
:1043200090E0A8DD8091170790911807A70160E23F
:1043300077E08C0D9D1D0E940E3380912A0790918D
:104340002B070196992790932B0780932A0708C083
:104350008FEE90E08FDDA0CF0A3011050CF4A1CFD5
:10436000809117079091180702C080E090E00F90AD
:104370000F90DF91CF911F910F91FF90EF90DF9001
:10438000CF90BF90AF909F908F907F906F905F90F5
:104390004F900895CF92DF92EF92FF920F931F9369
:1043A000CF93DF931F92CDB7DEB76C017B018A01FB
:1043B000452B31F0AB0160E070E0C801E5D789839F
:1043C000B701C60157DD81110DC00115110551F06E
:1043D000B701C8018ADD811105C061E070E0CE013E
:1043E000019683DD0F90DF91CF911F910F91FF9088
:1043F000EF90DF90CF900895CF92DF92EF92FF92EF
:10440000CF93DF93CDB7DEB728970FB6F894DEBF12
:104410000FBECDBF6B01E12CF12CC982DA82EB8299
:10442000FC822D833E834F835887AE014F5F5F4FE1
:1044300068E070E0AFDF28960FB6F894DEBF0FBEDD
:10444000CDBFDF91CF91FF90EF90DF90CF90089597
:104450000F931F93CF93DF93EC018B01AFDC90930D
:104460001C0780931B07009739F0A801BE0149DCA7
:10447000EC01892B19F40BC0CAE8D3E080911B072B
:1044800090911C07E7DC10921C0710921B07CE01CD
:10449000DF91CF911F910F91089580911B0790910B
:1044A0001C07D5CC2F923F924F925F926F927F92D2
:1044B0008F929F92AF92BF92CF92DF92EF92FF9234
:1044C0000F931F93CF93DF93CDB7DEB769970FB6E6
:1044D000F894DEBF0FBECDBF20911F07222309F441
:1044E00026C25D8B4C8B688B798B8A8B9B8B9A0158
:1044F000AB01BC01CE0101960E94551210E038E0DC
:10450000232E312C89819A81181619060CF00AC2C3
:104510001F861E861D861C8689819A81AC85BD8575
:10452000A817B9070CF0F3C1EB81FC812E853F85FC
:10453000E20FF31F20813181309316072093150776
:10454000848195819093140780931307428153814E
:1045500050931207409311074681578150931007DB
:1045600040930F07820F931F9C01990F440B550B2B
:104570002E8B3F8B488F598FC12CD12C76012E89E1
:104580003F89488D598DC216D306E406F50608F01A
:10459000A2C11F8260911507709116078B01072E2B
:1045A000000C220B330BD701C6010496A11DB11DCF
:1045B00080179107A207B30728F4E0911107F09143
:1045C00012070AC0E4E0F0E0E61BF70BEC0DFD1D5E
:1045D00080910F0790911007E80FF91F4080512C30
:1045E000612C712CD701C6010596A11DB11D801744
:1045F0009107A207B30728F4E0911107F091120781
:104600000AC0E5E0F0E0E61BF70BEC0DFD1D809124
:104610000F0790911007E80FF91F8081582AD701E2
:10462000C6010696A11DB11D80179107A207B30709
:1046300028F4E0911107F09112070AC0E6E0F0E0DB
:10464000E61BF70BEC0DFD1D80910F0790911007F5
:10465000E80FF91F8081682AD701C6010796A11DBE
:10466000B11D80179107A207B30728F4E091110745
:10467000F09112070AC0E7E0F0E0E61BF70BEC0D43
:10468000FD1D80910F0790911007E80FF91F8081A1
:10469000782A4601570148E0840E911CA11CB11CE8
:1046A000081519052A053B0508F4B4C0C016D10643
:1046B000E206F30638F480911107909112078C0DF1
:1046C0009D1D09C0C601861B970B20910F073091D5
:1046D0001007820F931F68E070E007DCE091150778
:1046E000F09116079F010F2E000C440B550BD301C0
:1046F000C201880D991DAA1DBB1D281739074A073D
:104700005B07C8F082169306A406B50638F420911C
:10471000110730911207C601089609C0C1018E1B0E
:104720009F0B8C0D9D1D20910F0730911007820F5C
:10473000931FB20199C08601BF01685071096C19BD
:104740007D0982169306A406B50638F42091110758
:1047500030911207C601089609C0C1018E1B9F0B3C
:104760008C0D9D1D20910F0730911007820F931F14
:10477000BCDB8091150790911607B101681B790B7E
:10478000600F711F640D751D80910F0790911007C8
:10479000ACDB8091150790911607AC014850510988
:1047A000FA01E01BF10BAC01092E000C660B770B34
:1047B00084169506A606B70638F4209111073091A5
:1047C0001207C60108960AC09101281B390BC901BE
:1047D0008C0D9D1D20910F0730911007820F931FA4
:1047E000AF0160E070E0D0D58F8320911507309144
:1047F0001607A101421B530B9A01200F311F240DF4
:10480000351D40E050E0682F80910F079091100710
:10481000A7D550C0C016D106E206F306C8F46C193D
:104820007D0980911107909112078C0D9D1D5DDB14
:104830008091150790911607B101681B790B6C0DDB
:104840007D1D640D751D80910F07909110070CC0A0
:10485000C601861B970B20910F0730911007B201FC
:10486000685F7F4F820F931F40DB80911507909107
:104870001607AC01092E000C660B770B8416950603
:10488000A606B70638F42091110730911207C60129
:1048900008960AC0D101A81BB90BCD018C0D9D1D36
:1048A00020910F0730911007820F931FA20160E043
:1048B00070E06AD58F8361E070E0CE01079615DB6A
:1048C000182FB8E04B0E511C611C711CC40CD51C78
:1048D000E61CF71C54CE8C859D85880F991FED81B1
:1048E000FE81E80FF91F488959896A897B8980818F
:1048F00091810E94870D4C855D854F5F5F4F5D877D
:104900004C878E859F8508969F878E8705CE2C893C
:104910003D89488959896A897B89CE0101960E941F
:104920005512F0CD112319F08C899D8902DB69960F
:104930000FB6F894DEBF0FBECDBFDF91CF911F91B0
:104940000F91FF90EF90DF90CF90BF90AF909F902E
:104950008F907F906F905F904F903F902F90089531
:10496000CF93DF93EC01AC0160E070E0CB019ADD06
:10497000AE0161E070E080E090E0DF91CF9192CDF8
:10498000CF9380911B0790911C071BDAC82F8111D0
:104990000BC060E070E0CB010E945D0861E070E058
:1049A00080E090E00E945D088C2FCF9108950F93D6
:1049B0001F9389019A01AB01BC0180911B07909163
:1049C0001C0749DA1F910F9108953F924F925F9211
:1049D0006F927F928F929F92AF92BF92CF92DF920F
:1049E000EF92FF920F931F93CF93DF93CDB7DEB774
:1049F00067970FB6F894DEBF0FBECDBF6C017B0189
:104A00005A0180911F07882331F080911F07882366
:104A100009F45FC30AC06FE177E080911B079091B2
:104A20001C071ADA811155C3F0CF80911E071A8234
:104A30001982882309F46AC0E0E94E2EEFE55E2E64
:104A400066246394712C00E010E098012B5F384FCE
:104A5000AE014F5F5F4F61E070E080911B07909166
:104A60001C07D0D9982E81114DC089819A81080FD9
:104A7000191F0115110509F445C081E0481A5108B4
:104A80006108710839F460912A0770912B078DEE47
:104A900090E030C00A30110589F549E050E060E04F
:104AA00070E085E097E074D460912A0770912B073D
:104AB0008823F1F080910D0790E068177907D9F409
:104AC0008EEE90E0D7D988E0E5E0F7E0DE011996B8
:104AD00001900D928A95E1F720912A0730912B07DA
:104AE0002F5F3F4F332730932B0720932A070AC0AD
:104AF0008FEE90E0BFD91A82198204C00A301105E6
:104B00000CF4A3CF81E029813A8124C000E010E0B9
:104B100078E0672E712C29E030E02C0F3D1F200F2C
:104B2000311FAE014F5F5F4FB301601B710B80916E
:104B30001B0790911C0766D9982E29813A81811113
:104B400008C0020F131F0115110519F008301105D7
:104B500014F381E0121613060CF080E09110B6C237
:104B6000882309F4B6C280911E07811104C01986FA
:104B70001A861B861C8689859A85AB85BC85803103
:104B8000910508F0A6C2FC018827EC57FF4F8F4F14
:104B90000C949231D6011696ED91FC911797808175
:104BA0009181A281B38189839A83AB83BC83AE0157
:104BB0004F5F5F4F64E070E085E190E07FC18D85DD
:104BC0009E85D6D9009731F42FEF3FEFA90161E020
:104BD00070E00EC0FC0180809180A280B380A701AC
:104BE000C501B4010E94000DA501940160E070E0D0
:104BF0008DE190E069C28D859E85BAD9009721F438
:104C00002FEF3FEFA90110C0DC018D909D90AD907A
:104C1000BD90AD0195018401B701C6010E94A209B2
:104C2000A5019401882319F061E070E002C060E002
:104C300070E08BE190E048C28D859E8599D9009700
:104C400021F42FEF3FEFA9010FC0FC01819091905B
:104C5000A190B190BF01A5019401C6010E94A50BCE
:104C6000A5019401882319F061E070E002C060E0C2
:104C700070E08CE190E028C2D6011496ED91FC9191
:104C8000159700811181F80182809380A080B18006
:104C900060E1462E512C612C712C49825A826B8224
:104CA0007C8288E090E0A0E0B0E08D839E83AF83BB
:104CB000B8879E012F5E3F4FAE014F5F5F4F68E0A8
:104CC00070E080911B0790911C077DD8882319F014
:104CD00000E010E0BBC089899A890897C9F7D8011C
:104CE000ED90FC90B8E0EB0EF11CEE0CFF1CEE0C0E
:104CF000FF1CC7010E94E1318C01892B49F34982D5
:104D00005A826B827C82C7010F2C000CAA0BBB0B52
:104D10008D839E83AF83B8879E012F5E3F4FAE0188
:104D20004F5F5F4F68E070E080911B0790911C0718
:104D30004AD881118BC089899A89089709F086C061
:104D4000D6011296ED91FC911397408151816281B9
:104D50007381D8014D935D936D937C931397448138
:104D600055816681778114964D935D936D937C9305
:104D70001797408551856285738518964D935D938D
:104D80006D937C931B9784859585A685B785F801DF
:104D900084879587A687B787108A118A128A138A13
:104DA00084E090E0A0E0B0E0848B958BA68BB78B7D
:104DB0008091CE029091CF02A0E0B0E0808F918FE1
:104DC000A28FB38FC5010B2C000CAA0BBB0B848FD9
:104DD000958FA68FB78FF401D801909680E090E070
:104DE0008A159B0554F44191519160E070E04D9318
:104DF0005D936D937D930196F3CF9E012F5E3F4FA0
:104E0000A801B70180911B0790911C070E94E31E27
:104E100081111CC089899A898E159F05B9F4A70153
:104E200060E070E0C801B0D28B8B9E012F5E3F4FD7
:104E3000AE014D5E5F4F61E070E080911B07909185
:104E40001C070E94E31E81E080931E07C80167963D
:104E50000FB6F894DEBF0FBECDBFDF91CF911F918B
:104E60000F91FF90EF90DF90CF90BF90AF909F9009
:104E70008F907F906F905F904F903F900C94763220
:104E80008D859E85AF85B8890097A105B10521F470
:104E900081E080931D071DC16BD8009789F481E0E4
:104EA00090E0A0E0B0E089839A83AB83BC83AE013D
:104EB0004F5F5F4F64E070E082E190E06BDA09C120
:104EC000BC01C6010E94B00719821A821B821C8293
:104ED000AE014F5F5F4F64E070E082E190E05ADA2C
:104EE0008111F7C0D5CFD6011496ED91FC9115979D
:104EF0000190F081E02D008511858FEF89830115E8
:104F0000110509F472C0D8016D907C90A280B38025
:104F100020E030E060E070E080E090E086159705EA
:104F20000CF5F801A281B381A20FB31F1296ED9187
:104F3000FC911397EE0FFF1FEA0DFB1D0190F0810E
:104F4000E02D16960D90BC91A02DEA9FA001EB9F3D
:104F5000500DFA9F500D1124640F751F0196285FA4
:104F60003F4FDCCF83E190E00E943A1F8111B1C036
:104F7000C12CD12CE12CF12CE614F7047CF5D801DE
:104F80001296ED91FC911397EC0DFD1D80809180A0
:104F9000A281B381AA0FBB1FAA0DBB1D2D913C910D
:104FA00086819781289F2001299F500C389F500CA3
:104FB0001124B201C4010E94751F382E920140E0F5
:104FC00050E06981C401CCD18983B8E0CB0ED11CFB
:104FD00031107FC0EFEFEE1AFE0ACECF61E070E035
:104FE000CE0101960E94751F74C060E070E083E1FD
:104FF00090E00E943A1F6DC040E050E060E070E039
:1050000081E190E0C7D9811164C0812C912C5401B9
:10501000C501B4010E94890980917004882321F0A0
:10502000A701C501B4013EDAA701C501B4010E9480
:1050300089088A9489288A288B2829F0812C912C28
:1050400054018394E5CF10921F0710921E0710920F
:105050002B0710922A0780911B0790911C070E9432
:10506000321F37C081E090E0909372048093710406
:1050700040E050E060E070E086E190E01FCF81E02A
:10508000D5018C9326C08D859E850E94B81F009700
:1050900031F42FEF3FEFA90161E070E013C0FC0194
:1050A0002081318142815381CA01B9012C8B3D8B12
:1050B0004E8B5F8B0E94600D2C893D894E895F89E4
:1050C00060E070E08EE190E097D903C0C7010E94D4
:1050D000991F67960FB6F894DEBF0FBECDBFDF9164
:1050E000CF911F910F91FF90EF90DF90CF90BF90E5
:1050F000AF909F908F907F906F905F904F903F9078
:105100000895CF92DF92EF92FF92CF93DF93EC015D
:10511000C12CD12C7601C701B6010E948909AE01CC
:10512000C701B601BFD9AE01C701B6010E94890807
:105130008091170790911807009731F00E947632FE
:105140001092180710921707CA94CD28CE28CF289E
:1051500029F0C12CD12C7601C394DDCF80911E079C
:10516000882359F040E050E060E070E084E190E096
:1051700011D9F82E10921E0701C0F12C80911F0743
:10518000882341F010921F0781E090E09093CF02B6
:105190008093CE0280911B0790911C070E94351FBF
:1051A00080911B0790911C070E942A1F8F2DDF9171
:1051B000CF91FF90EF90DF90CF900895CF93DF9342
:1051C000EC01AC0160E070E0CB010E94C611AE01C1
:1051D00061E070E080E090E0DF91CF910C94C61127
:1051E00060E070E0CB010E94321261E070E080E08C
:1051F00090E00C943212CF92DF92EF92FF920F93D5
:105200001F93CF93DF93EC016A017B0100E010E074
:1052100098010E94B00D01E010E020E030E0B701FD
:10522000A601CE010E94B00DDF91CF911F910F9189
:10523000FF90EF90DF90CF90089568EE73E080E0EC
:1052400090E00E944C1780E090E0089526E040E056
:1052500050E16EE070E08EE794E00E9486198EE7E0
:1052600094E00E94D018892B29F08EE794E00E94E8
:10527000EA18F5CF80E090E00895AF92BF92CF9208
:10528000DF92EF92FF920F931F93CF93DF931F92C2
:105290001F92CDB7DEB77A018901F9011182108220
:1052A0008EE794E069837A830E94D01869817A81BD
:1052B000892B99F15B01DD24D39485E6C82E80917A
:1052C0002C07811124C08EE794E00E94EA188536ED
:1052D0009105A9F7D0922C07F501C1925F01F80161
:1052E00080819181019691838083E9CF8EE794E05C
:1052F0000E94EA188F3FFFEF9F0749F0F501819365
:105300005F01F80180819181019691838083F8018A
:10531000808191818E159F0548F380E090E00F9089
:105320000F90DF91CF911F910F91FF90EF90DF9041
:10533000CF90BF90AF9008950F931F93CF93DF93BB
:10534000EA0189018EE794E00E94651CF801D1838F
:10535000C08380E090E0DF91CF911F910F9108957D
:10536000DC01A40FB51F240F351FAD01481B590BDD
:105370004217530738F4ED91E627F0E0EF54FD4F64
:105380006491F3CF862F08959A01AB016FEFE8CFB8
:10539000CF93FC01E60FF71FE40FF51FC081F4DF88
:1053A00091E0C81390E0892FCF910895CF92DF92BA
:1053B000EF92FF920F931F93CF93DF936C018B01BA
:1053C0007A01EC01C25DD84F888187FF04C0FB01E0
:1053D0001182108224C08CE08C9D90018D9D300D37
:1053E00011248881A901480F511D87FD5A9580918C
:1053F0002D0790E04817590794F48881A901480FB8
:10540000511D87FD5A95CA01FA01EE0FFF1F8E0F3D
:105410009F1FFC01EE5CF84F808186FD19C08881DA
:105420008F5F88838CE08C9D90018D9D300D1124C1
:105430008881A901480F511D87FD5A9580912D073C
:1054400090E048175907BCF488818C3044F113C0B0
:105450008881280F311D87FD3A95F901EE0FFF1F56
:105460002E0F3F1FF901EE5CF84F808160E08F73D3
:105470000E94A118D4CFF8018081918104968034D4
:105480009C4918F480E49CE904C0F8018081918172
:105490000496F701918380838FEF888345C0F801DC
:1054A000408151818881B901680F711D87FD7A950E
:1054B000CB01FB01EE0FFF1F8E0F9F1FFC01EE5C67
:1054C000F84F81819281840F951FF701918380832A
:1054D0008881A901480F511D87FD5A95CA01FA011B
:1054E000EE0FFF1F8E0F9F1FFC01EE5CF84F8081B7
:1054F00086FF1AC08881280F311D87FD3A95F90172
:10550000EE0FFF1F2E0F3F1FF901EE5CF84F808159
:1055100061E08F73DF91CF911F910F91FF90EF901A
:10552000DF90CF900C94A118DF91CF911F910F9134
:10553000FF90EF90DF90CF9008951F920F920FB6DB
:105540000F9211240BB60F922F933F934F935F93BB
:105550006F937F938F939F93AF93BF93EF93FF933B
:1055600048E850E064E870E081E090E01FDFFF91E0
:10557000EF91BF91AF919F918F917F916F915F91CB
:105580004F913F912F910F900BBE0F900FBE0F9038
:105590001F9018951F920F920FB60F9211240BB601
:1055A0000F922F933F934F935F936F937F938F93BC
:1055B0009F93AF93BF93EF93FF9348E950E064E963
:1055C00070E082E090E0F2DEFF91EF91BF91AF9149
:1055D0009F918F917F916F915F914F913F912F910B
:1055E0000F900BBE0F900FBE0F901F9018951F923B
:1055F0000F920FB60F9211240BB60F922F933F9379
:105600004F935F936F937F938F939F93AF93BF93CA
:10561000EF93FF9348EA50E064EA70E083E090E0A3
:10562000C5DEFF91EF91BF91AF919F918F917F91D7
:105630006F915F914F913F912F910F900BBE0F9003
:105640000FBE0F901F9018951F920F920FB60F92DA
:1056500011240BB60F922F933F934F935F936F9349
:105660007F938F939F93AF93BF93EF93FF9348E202
:1056700051E064E271E080E090E098DEFF91EF910C
:10568000BF91AF919F918F917F916F915F914F915A
:105690003F912F910F900BBE0F900FBE0F901F9058
:1056A0001895FC0190912D079033A0F481E0890FAB
:1056B00080932D079083892F90E0FC01EE0FFF1F50
:1056C0008E0F9F1FFC01EE5CF84F88EB9BE09283EE
:1056D000818308958FEF80830895DF92EF92FF9288
:1056E0000F931F93CF93DF93EC01D62E7A0189019C
:1056F0008881803308F069C061E08D2D0E946518B3
:105700008881E82FF0E09F01220F331FE20FF31F83
:10571000EE5CF84F9D2D9F732081207CD22ED92ADC
:10572000D08260E272E0AB014E195F0957FF02C000
:105730004D5F5F4F5595479555954795498340E691
:1057400059E09A01201B310B37FF02C02D5F3F4FFC
:1057500035952795359527952A836CE086D59CE06D
:10576000899FB001112440E050E09A01260F371FB5
:10577000F901EE0FFF1F2E0F3F1FF901EE5CF84FEE
:10578000908196FD16C04F5F5F4F4C30510569F711
:10579000813021F51092800082E080938100109288
:1057A000850010928400B19A80916F00826080938E
:1057B0006F00E881F0E0CF01880F991FE80FF91F13
:1057C000EE5CF84F8081806480838881DF91CF9187
:1057D0001F910F91FF90EF90DF900895823061F458
:1057E0001092900080939100109295001092940076
:1057F00088BB80937100DDCF833069F41092A000E4
:1058000082E08093A1001092A5001092A40089BBB1
:1058100080937200CECF8111CCCF1092200182E014
:105820008093210110922501109224018ABB80935C
:105830007300BFCF20E639E040E252E04ECFFC01DA
:105840009081903380F5818128E830E0281B310970
:1058500087FD3395220F331F220F331F6217730703
:105860007CF0828128E532E0281B310987FD3395E1
:10587000220F331F220F331F621773070CF49B0193
:1058800022503109220F331F4FB7F894892F90E02F
:10589000FC01EE0FFF1F8E0F9F1FFC01EE5CF84F07
:1058A000328321834FBF0895AF92BF92CF92DF9290
:1058B000EF92FF920F931F93CF93DF93EC0160322F
:1058C00082E078070CF03FC077FD06C0653B7105AC
:1058D0002CF064EB70E002C060E070E0898128E8A1
:1058E00030E05901A81AB10887FDB394AA0CBB1C7B
:1058F000AA0CBB1C0B2C000CCC08DD08072E000CDE
:10590000880B990B2A8108E512E0021B110927FD7B
:105910001395000F111F000F111F012E000C220BF9
:10592000330B3F932F931F930F9314EBE12EF12C26
:1059300000E010E020E030E0A9010E94B31D0F90CC
:105940000F900F900F90CE01DF91CF911F910F918B
:10595000FF90EF90DF90CF90BF90AF9070CF80918D
:10596000C30791E0980F9093C307882349F021E083
:1059700030E03093C5072093C4078093C307089590
:1059800078940E947202F8948091C30781508093AA
:10599000C3070C94D613FF920F931F93CF93DF93FB
:1059A0001F921F92CDB7DEB7FF24F394FA820E94B4
:1059B00085170E94F41D0091630310916403F801A0
:1059C0001182108260E070E080E090E00E94DF13BE
:1059D0000E94C1057894C80182960E94DE1381E07E
:1059E00090E00E94DA131982AE014F5F5F4F61E0D1
:1059F00070E0F801828193810E9484138981882359
:105A000011F0F801F6A20E94E513F8940E94601EBE
:105A1000F80180819181892B19F481E096A191117F
:105A200080E08A8378947894FF24F3948A81882391
:105A300071F11982AE014F5F5F4F61E070E0F801D4
:105A4000828193810E94C0138981882311F0F8011B
:105A5000F6A2F80180819181892B31F481E096A131
:105A6000911103C080E001C081E08093C207909152
:105A7000C20781E0911180E08A838A81882319F02E
:105A80000E947F1E02C080E090E08A83CFCF81E039
:105A900090E00E94DC130E948306F89480E090E07E
:105AA0000F900F90DF91CF911F910F91FF9008956C
:105AB0005058BB27AA270ED0D1C1C2D130F0C7D1D0
:105AC00020F031F49F3F11F41EF4B7C10EF4E095BD
:105AD000E7FB9FC1E92FD3D180F3BA1762077307A1
