:10000000DEC100000C94B2150C94DD150C9408169A
:100010000C9433160C945E160C9489160C94B4163A
:100020000C94DF16FDC10000FBC10000F9C1000007
:10003000F7C100000C94811DF3C10000F1C1000064
:10004000EFC100000C94CA2AEBC10000E9C1000016
:100050000C945F1EE5C10000E3C100000C940A1778
:10006000DFC100000C94181A0C944E1AD9C100007C
:10007000D7C10000D5C10000D3C10000D1C100002C
:100080000C94F72ACDC10000CBC10000C9C100000B
:100090000C94A41A0C94DA1AC3C10000C1C1000068
:1000A000BFC10000BDC100000C94242BB9C10000E9
:1000B000B7C10000B5C10000B3C100000C94512BC2
:1000C000AFC10000ADC10000ABC100000C94301BFB
:1000D0000C94661BA5C100000C94BC1B0C94F21B75
:1000E0009FC1000057185A1849184D1853189118F5
:1000F0005E18621868186C18701876187A187E18CE
:100100009118841888188C1869262928932896280D
:100110006D27A027282649260C2670285F286C28E2
:10012000962896289628F72507634236B79BD8A7C6
:100130001A39685618AEBAAB558C1D3CB7CC57630C
:10014000BD6DEDFD753EF6177231BF000000803FBA
:1001500008000000BE922449123EABAAAA2ABECDD6
:10016000CCCC4C3E00000080BEABAAAAAA3E000048
:100170000000BF000000803F000000000008417840
:10018000D3BB4387D1133D190E3CC3BD4282AD2B77
:100190003E68EC8276BED98FE1A93E4C80EFFFBE6F
:1001A00001C4FF7F3F000000000000000A0B0209AD
:1001B0000C0D0E0807030401000000000000000001
:1001C000000000000000000000000000000000002F
:1001D00000000000000012111000000000000000EC
:1001E000000000000000000000000000000000000F
:1001F0000102102020080810204010204080020139
:10020000020108040201010204081020408080401D
:10021000201008040201800402018040201008041C
:1002200002010804020101020408102040800102BA
:100230000408102040800505050507050808080882
:10024000020202020A0A080804040404010101016E
:100250000101010103030303030303030407070769
:100260000C0C0C0C0C0C0C0C02020202060606060E
:10027000060606060B0B0B0B0B0B0B0B00002200EC
:10028000250028002B002E00310034000201000060
:10029000050108010B0100002100240027002A00AD
:1002A0002D003000330001010000040107010A01A4
:1002B00002001D3A2774694E53E8F5D2CF9C81A6FF
:1002C000BBCDD0F7EAB9A4839E25381F02514C6BF1
:1002D00076879ABDA0F3EEC9D46F7255481B0621EC
:1002E0003C4A57706D3E230419A2BF9885D6CBECCB
:1002F000F1130E2934677A5D40FBE6C1DC8F92B5BD
:10030000A8DEC3E4F9AAB7908D362B0C11425F78B2
:10031000659489AEB3E0FDDAC77C61465B081532AF
:100320002F5944637E2D30170AB1AC8B96C5D8FF88
:10033000E2263B1C01524F6875CED3F4E9BAA78080
:100340009DEBF6D1CC9F82A5B8031E3924776A4D68
:1003500050A1BC9B86D5C8EFF24954736E3D20076F
:100360001A6C71564B1805223F8499BEA3F0EDCA52
:10037000D735280F12415C7B66DDC0E7FAA9B4933C
:100380008EF8E5C2DF8C91B6AB100D2A3764795E2A
:1003900043B2AF8895C6DBFCE15A47607D2E33142B
:1003A000097F6245580B16312C978AADB0E3FED910
:1003B000C400771A031B8F1B1B1C871C5B1E112498
:1003C0001FBECFEFD1E2DEBFCDBF00E00CBF13E018
:1003D000A0E0B2E0ECEAF6E600E00BBF02C0079056
:1003E0000D92A23CB107D9F728E0A2ECB3E001C01E
:1003F0001D92AD32B207E1F711E0CFEDD1E000E0A0
:1004000006C021970109802FFE010E94BF31C93D1E
:10041000D10780E00807A9F70E94F82C0C94543308
:10042000EFCD60E070E080E89FE7089560E070E065
:1004300080E89FE7089560E070E080E89FEF08950E
:1004400060E070E080E89FEF089560E070E080EC8D
:100450009FEF089560E070E080EC9FEF0895F5DF76
:100460006093CE077093CF078093D0079093D10706
:10047000F1DF6093C2077093C3078093C407909322
:10048000C507CFDF6093CA077093CB078093CC0773
:100490009093CD07CBDF6093C6077093C707809317
:1004A000C8079093C907C7DF6093D2077093D3073B
:1004B0008093D4079093D507C3DF6093D6077093DA
:1004C000D7078093D8079093D9070895CF93C1E0B9
:1004D0009B01AC010E94EA2D811101C0C0E08C2F6C
:1004E000CF9108954F925F926F927F928F929F92D9
:1004F000AF92BF92CF92DF92EF92FF921F93CF9372
:10050000DF93CDB7DEB760970FB6F894DEBF0FBEAE
:10051000CDBF2091A2023091A3024091A40250913C
:10052000A502609186027091870280918802909165
:1005300089020E94992F4B015C0140909E025090CD
:100540009F026090A0027090A1029B01AC01C301C8
:10055000B2010E94862D9B01AC0160E070E080E852
:100560009FE30E94EE2D6B017C0160931108709354
:1005700012088093130890931408A3019201C501F7
:10058000B4010E94852DA70196010E94992F2B018D
:100590003C016AED77E08DE098E00E9446142091DE
:1005A0000D0830910E0840910F085091100860918D
:1005B000A6027091A7028091A8029091A9020E94C0
:1005C000852D4B015C01C090DE07D090DF07E090E5
:1005D000E007F090E107A7019601C301B2010E9474
:1005E000992F2B013C0120917A0230917B0240919E
:1005F0007C0250917D02C501B4010E94992FA30194
:1006000092010E94852D6D837E838F839887209130
:10061000AA023091AB024091AC025091AD020E940F
:10062000992F2B013C012091AE023091AF024091F5
:10063000B0025091B102C701B6010E94992F9B01EF
:10064000AC01C301B2010E94862D209111083091A6
:10065000120840911308509114080E94992F20917C
:1006600086023091870240918802509189020E944F
:10067000992F69877A878B879C8720918A0230918E
:100680008B0240918C0250918D02C501B4010E94F1
:10069000992F6B017C01609311087093120880936D
:1006A00013089093140820917E0230917F024091AC
:1006B000800250918102C501B4010E94992F698383
:1006C0007A838B839C832091E2073091E3074091EA
:1006D000E4075091E507C701B6010E94862D2985E0
:1006E0003A854B855C850E94862D6B017C012091AB
:1006F000BA023091BB024091BC025091BD020E94EF
:10070000992F6D877E878F87988B80908E0290902F
:100710008F02A0909002B0909102A5019401C701B0
:10072000B6010E94952F181684F080908202909056
:100730008302A0908402B0908502A5019401C701B4
:10074000B6010E94952F87FF2AC0A5019401C70119
:10075000B6010E94852D4B015C0120E030E0A9012B
:100760000E94EA2D87FD21C020E030E0A901C501EB
:10077000B4010E94952F1816FCF020E030E0A9018A
:10078000C501B4010E94EA2D8823E9F04090CE070C
:100790005090CF076090D0077090D10717C0812C80
:1007A000912C54012401350111C0412C512C30E809
:1007B000632E3FEB732E0AC0412C512C20E8622E91
:1007C0002FE3722E03C0412C512C320120E030E087
:1007D000A90169817A818B819C810E94EA2D87FD24
:1007E0001FC020E030E0A90169817A818B819C8162
:1007F0000E94952F1816DCF020E030E0A9016981F5
:100800007A818B819C810E94EA2D8823B9F0C09067
:10081000CE07D090CF07E090D007F090D10711C05D
:10082000C12CD12C90E8E92E9FEBF92E0AC0C12CE7
:10083000D12C80E8E82E8FE3F82E03C0C12CD12CF8
:100840007601C701B60142DE81110BC020E030E025
:1008500040E853E4C701B6010E94CB2E6B017C0136
:1008600003C0C12CD12C760120E030E040E053E4FD
:10087000C301B2010E94EA2D87FF06C0C301B20185
:100880000E94562E162F01C01FE7A50194016D8509
:100890007E858F8598890E94EA2D882369F120E062
:1008A00030E0A901C701B6010E94EA2D87FF0BC005
:1008B000C701B60190580E945B2E862F8195082EA5
:1008C000000C990B07C0C701B6010E945B2E862F52
:1008D000660F990B212F110F330B8217930761F4C9
:1008E0008091B6029091B702A091B802B091B9027E
:1008F00089839A83AB83BC832091BE023091BF026F
:100900004091C0025091C10269817A818B819C81A2
:100910000E94992F4B015C012091E2073091E3077F
:100920004091E4075091E5070E94862D2B013C0180
:100930002091110830911208409113085091140829
:100940000E94862D29853A854B855C850E94862DDF
:100950006B017C0160931108709312088093130857
:100960009093140880918E0290918F02A091900232
:10097000B091910289839A83AB83BC839C01AD01C2
:10098000C701B6010E94952F1816A4F0809182022B
:1009900090918302A0918402B091850289839A8309
:1009A000AB83BC839C01AD01C701B6010E94EA2D57
:1009B00087FF0CC089819A81AB81BC81809311082B
:1009C00090931208A0931308B09314088091C60264
:1009D0008130D1F020919602309197024091980297
:1009E0005091990260919A0270919B0280919C02B1
:1009F00090919D020E94992F6093110870931208A4
:100A00008093130890931408C0901108D090120896
:100A1000E0901308F090140820E030E040E853E440
:100A2000C701B6010E94EA2D87FF0EC020E030E02A
:100A3000A901C701B6010E94952F87FD07C0C70114
:100A4000B6010E945B2E03C06FEF01C060E0809191
:100A5000C7020E94501E6AED77E08DE098E00E9488
:100A600073158D819E81AF81B8858093DE07909349
:100A7000DF07A093E007B093E107A3019201C5014E
:100A8000B4010E94862D6093E2077093E307809380
:100A9000E4079093E50781E090E00E94F413409111
:100AA000FC075091FD076091FE077091FF0780E001
:100AB00090E00E94F0138090080890900908A090A0
:100AC0000A08B0900B0820E030E040E85FEBC50179
:100AD000B4010E94EA2D882331F1C090FC07D09028
:100AE000FD07E090FE07F090FF07A7019601C50102
:100AF000B4010E94852D4B015C0120E030E040E014
:100B000054E3C701B6010E94992F9B01AC01C501B6
:100B1000B4010E94952F181634F08EED92E0909358
:100B2000E7078093E60780910C08882331F08EED6B
:100B300092E09093E7078093E607809100089091F8
:100B40000108A0910208B0910308BC01CD016F5FBC
:100B50007F4F8F4F9F4F60930008709301088093E1
:100B60000208909303080E94872E20910408309178
:100B7000050840910608509107080E94992F60933C
:100B8000FC077093FD078093FE079093FF07609624
:100B90000FB6F894DEBF0FBECDBFDF91CF911F918E
:100BA000FF90EF90DF90CF90BF90AF909F908F908D
:100BB0007F906F905F904F900895EF92FF920F9308
:100BC0001F93CF93DF9384E090E049DCE6EEF7E0FB
:100BD00087E2DF011D928A95E9F780E090E0A0E8C6
:100BE000BFEB82A393A3A4A3B5A38FE892ECA5E7E0
:100BF000BDE3868F978FA0A3B1A38EE497E4ADE108
:100C0000BDEC84839583A683B78385E99CE0A9EE38
:100C1000BAE480879187A287B3878AEE93EEA8E033
:100C2000B0EE84879587A687B78788E59BE0A0E428
:100C3000B2E7808B918BA28BB38BA8EDB3E0B3832B
:100C4000A283C4EDD3E01196DC93CE938EE593E0BE
:100C5000998388839B838A838AEF97E015969C9378
:100C60008E9314978AEE97E013969C938E93129727
:100C70008CEF97E017969C938E93169788E0ADE0E3
:100C8000B8E0ED0119928A95E9F78AEDE82E87E040
:100C9000F82E8CE0D7011D928A95E9F7A2ECB3E01B
:100CA00082E1ED0119928A95E9F7B58BA48B8EE06C
:100CB00090E011969C938E938EE592E013969C9310
:100CC0008E93129782E492E015969C938E931497DC
:100CD0008EE292E017969C938E9316978AE092E0AC
:100CE00019969C938E9318970AE712E0F801608D8D
:100CF0008091C7020E94451ED7011D921D921D9230
:100D00001C921397E80188AD99ADAAADBBADF70170
:100D100084839583A683B7838091C2029091C30296
:100D2000A091C402B091C50280879187A287B38742
:100D3000DF91CF911F910F91FF90EF90089508954B
:100D4000EF92FF920F931F93CF93DF93DC01EA01A1
:100D5000F90114968D919C91159712960D911C9105
:100D60001397080F191F2881398118964D915C91AE
:100D700019974217530728F04D915C911197452B15
:100D800039F17801E21AF30A18964D915C9119979E
:100D9000481B590B4E0D5F1D4617570794F1A901CB
:100DA000460F571F40175107E0F0F182E08233836E
:100DB00022836E197F0975836483161617061CF447
:100DC000382F292F02C030E020E03683278313C05C
:100DD00018968D919C911997821B930B86179707F4
:100DE00084F0718360833383228315821482178297
:100DF000168288819981680F791F7983688380E0E2
:100E000001C081E0DF91CF911F910F91FF90EF9092
:100E10000895CF92DF92EF92FF92CF93DF936B0111
:100E20007C0184E48C9DE0018D9DD00D1124CC517A
:100E3000DC4F8AA99BA9009721F00E94A3321BAA2C
:100E40001AAA84E48C9DF0018D9DF00D1124EC51C3
:100E5000FC4F86A997A9009711F00E94A33284E461
:100E60008C9DF0018D9DF00D1124EC51FC4F138AE7
:100E7000128A168A178A108E118E128E138E148E75
:100E8000158E168E178E10A211A281E090E093A30A
:100E900082A315A214A216A217A210A611A613A629
:100EA00012A615A614A616A617A610AA11AA13AA6A
:100EB00012AA15AA14AA17AA16AA11AE10AE12AE3B
:100EC00013AE14AE15AEDF01DE961D921D921D927B
:100ED0001C921397EE5BFF4F11821082DF91CF912E
:100EE000FF90EF90DF90CF9008950F931F93CF93D3
:100EF000DF93EB01DC018D919C91FC01A681B78110
:100F0000E881F98123E0EE0FFF1F2A95E1F71296A1
:100F10002D913C911397E20FF31F00811181AC8555
:100F2000BD859D01220F331FDC0112968D919C918E
:100F30001397D901A80FB91F8D919C9124813581F8
:100F4000232B19F461E070E002C062E070E0689F5A
:100F50009001699F300D789F300D11248885998507
:100F6000289FB001299F700D389F700D1124EC81CE
:100F7000FD812E9FC0012F9F900D3E9F900D11244B
:100F8000800F911FFA019183808373836283DF91C5
:100F9000CF911F910F9108952F923F924F925F92A0
:100FA0006F927F928F929F92AF92BF92CF92DF9279
:100FB000EF92FF920F931F93CF93DF9300D000D057
:100FC000CDB7DEB7DC011496ED91FC911597019039
:100FD000F081E02D808591859A838983A281B381F8
:100FE000BC83AB83FB0181909190A190B1908F0164
:100FF000C12CD12C7601C814D904EA04FB040CF0EE
:101000005FC0D80114964D905D906D907C901797BD
:1010100018964D915D916D917C911B97F80170969A
:10102000FE83ED83F801A081B18183E0AA0FBB1F8D
:101030008A95E1F7E981FA8182819381A80FB91F2E
:101040002D903C901197F80124853585220F331F90
:101050008B819C81280F391FF90100811181149621
:101060008D919C911597892B19F481E090E002C035
:1010700082E090E0809F9001819F300D909F300D25
:101080001124249F8001259F100D349F100D1124E1
:10109000249DC001259D900D349D900D1124A80123
:1010A0006D817E81820D931D0E943B338D819E81D7
:1010B000080F191F9FEFC91AD90AE90AF90A9BCF2D
:1010C00026960FB6F894DEBF0FBECDBFDF91CF914D
:1010D0001F910F91FF90EF90DF90CF90BF90AF9056
:1010E0009F908F907F906F905F904F903F902F9048
:1010F0000895CF93DF93DB01A853BD4F2C9122239A
:1011000069F024E4269FF001279FF00D1124EC5193
:10111000FC4FEF0119922A95E9F71C9224E4269FCF
:10112000F001279FF00D1124EC51FC4F1482158221
:10113000168217821186108613861286118A108AEB
:1011400017861686DF91CF9164CE2F923F924F92F1
:101150005F926F927F928F929F92AF92BF92CF9247
:10116000DF92EF92FF920F931F93CF93DF93CDB750
:10117000DEB728970FB6F894DEBF0FBECDBF6B0168
:101180007C011A0184E48C9D90018D9D300D112409
:101190002C513C4FF90184819581A681B781892B1F
:1011A0008A2B8B2B09F4B8C0A12CB12C412C512CCB
:1011B000320138872F83C90104969A838983D90124
:1011C0001896BC83AB83E981FA8180819181A281E9
:1011D000B381481659066A067B0694F5AB81BC813B
:1011E000ED91FC91EA0DFB1D228133818901812C57
:1011F000912C82149304C4F4D801ED91FC913097A2
:1012000069F0848195812D833E830E94A332F80189
:10121000808191810E94A3323E812D81FFEF8F1A40
:101220009F0A0E5F1F4FE5CFC9010E94A3328FEFC7
:10123000481A580A680A780A94E0A90EB11CC3CF6C
:10124000AF81B88518968D919C9119970E94A33211
:10125000EF81F88582859385892B59F1A12CB12CDA
:10126000812C912C84E48C9D80018D9D100D112486
:1012700002511C4F8214930484F4D801ED91FC9127
:10128000EA0DFB1D848195810E94A332BFEF8B1A6A
:101290009B0AEEE0AE0EB11CEDCF84E48C9DF00114
:1012A0008D9DF00D1124EC51FC4F828593850E9499
:1012B000A33284E48C9D90018D9D300D1124890111
:1012C0000C511C4FD80150968D919C9151970E94C2
:1012D000A332F801868597850E94A332C701B60123
:1012E00098DDC701B60128960FB6F894DEBF0FBE91
:1012F000CDBFDF91CF911F910F91FF90EF90DF90C5
:10130000CF90BF90AF909F908F907F906F905F90A5
:101310004F903F902F90EDCE28960FB6F894DEBFF9
:101320000FBECDBFDF91CF911F910F91FF90EF9036
:10133000DF90CF90BF90AF909F908F907F906F90F5
:101340005F904F903F902F90089524E4269FF001E6
:10135000279FF00D1124EC51FC4F8289938904974B
:10136000029758F485E090E0938B828B8FEF9FEF8C
:10137000DC01828F938FA48FB58F08952F923F92B7
:101380004F925F926F927F928F929F92AF92BF9295
:10139000CF92DF92EF92FF920F931F93CF93DF9341
:1013A000CDB7DEB7E0970FB6F894DEBF0FBECDBF66
:1013B0009AA389A31B016A012801390184E4849D51
:1013C0008001859D100D112498012C513C4F79010D
:1013D000D9014D925D926D927C921397AB01C3013E
:1013E000B201B3DEF801E851FC4FD6014D915D9199
:1013F0006D917D918D01CA01408351836283738316
:1014000064E070E00E94F431F70191878087892BB6
:1014100009F499C11E8E1D8E198E1A8E1B8E1C8E7C
:10142000F8A2EF8E97012C5F3F4F38A72FA32C5FB8
:101430003F4F3AA729A7EFA1F8A580819181A2810A
:10144000B381298D3A8D4B8D5C8D281739074A075A
:101450005B070CF0E4C0A9A5BAA58D919C912D8DD8
:101460003E8D280F391F3A8B298BD801ED91FC91C5
:10147000EE0FFF1FA9A1BAA18D919C91E80FF91F52
:1014800080819181F90191838083D80114962D91F7
:101490003D914D915C9117972BA33CA34DA35EA367
:1014A000085F1F4F62E070E0C1010E94F431E989DA
:1014B000FA8993838283892B09F445C11D8A1E8A88
:1014C0001F8A188E2D893E894F89588D8BA19CA12A
:1014D000ADA1BEA1281739074A075B070CF08CC0E5
:1014E000D801ED90FC90EE0CFF1CE989FA89C280CE
:1014F000D380CE0CDF1C68E070E081E090E00E94B9
:10150000F431D6018D939C93E989FA898281938184
:10151000FC01EE0DFF1DC080D180C114D10409F47F
:1015200012C1D80114964D915D916D917C911797E0
:10153000CA01F6014083518362837383085F1F4FA2
:1015400064E070E00E94F431D60115969C938E936E
:101550001497892B09F4F7C01C8A1B8A812C912CC3
:101560005401F60180819181A281B3818816990688
:10157000AA06BB06A4F5F601E480F5802B893C8918
:10158000E20EF31EF801DE01119680E101900D924A
:101590008A95E1F7005F1F4FA701BE016F5F7F4F84
:1015A000A9A1BAA114968D919C9115979EDCF60184
:1015B00026813781D70112968D919C911397820FC6
:1015C000931F97838683BFEF8B1A9B0AAB0ABB0AD4
:1015D0002B893C892C5F3F4F3C8B2B8BC2CF2D89B5
:1015E0003E894F89588D2F5F3F4F4F4F5F4F2D8B57
:1015F0003E8B4F8B588F66CF298D3A8D4B8D5C8DEE
:101600002F5F3F4F4F4F5F4F298F3A8F4B8F5C8F2C
:101610002D8D3E8D2C5F3F4F3E8F2D8F0CCF6EE07A
:1016200070E0C1010E94F431AF8DB8A11B969C936C
:101630008E931A97812C912CA12CB12CC12CD12CDA
:1016400024E4249DC001259D900D11249C0122516C
:101650003C4F3A8B298B21E030E0A214B3040CF00C
:101660004AC0D8014D915D916D917D918D01CA0166
:10167000E989FA89E080F180E80CF91C57FD63C024
:10168000D70111963C932E930097A1F02FA738AB6A
:101690004BA75CA76DA77EA70E940E32F70195832A
:1016A00084832FA538A94BA55CA56DA57EA5892BA4
:1016B00031F449C0D70115961C921E921497F70178
:1016C0005383428384819581978386839187808722
:1016D0001386128681E090E0452B462B472B11F4B0
:1016E00080E090E0C80ED91EFFEFAF1ABF0A4EE0AF
:1016F000840E911CB2CF84E4849D8001859D100DE1
:1017000011240C511C4FD8011D961C921E921C973F
:10171000C60133E0880F991F3A95E1F70E940E3217
:10172000F801918B808B892B71F0C601880F991F6E
:101730000E940E32D8011F969C938E931E97892B80
:1017400011F080E005C0A101C301B201FEDC81E01F
:10175000E0960FB6F894DEBF0FBECDBFDF91CF91FC
:101760001F910F91FF90EF90DF90CF90BF90AF90BF
:101770009F908F907F906F905F904F903F902F90B1
:1017800008952F923F924F925F926F927F928F9225
:101790009F92AF92BF92CF92DF92EF92FF920F9300
:1017A0001F93CF93DF93CDB7DEB768970FB6F8944A
:1017B000DEBF0FBECDBF9C8B8B8BDB0149015A0175
:1017C00024E4289DC001299D900D11249C012C51D9
:1017D0003C4F79012D913C911197F701358B248B6A
:1017E000FC01E650FC4F14964D915D916D917C91FA
:1017F00017974083518362837383FC01E250FC4F4F
:1018000018964D915D916D917C911B97408351830A
:1018100062837383FC01EE5FFB4F1C964D915D91DB
:101820006D917C911F974083518362837383FC0188
:10183000EE5EFB4F50965C91509751964C915197AC
:1018400052963C91529753962C91539750834183D3
:10185000328323838D010C5E1F4F852F942F181622
:1018600019060CF068C0880F991F880F991F0E94F5
:101870000E32D701D3969C938E93D297892B09F47D
:10188000BCC0212C312C412C512C32019701225DFE
:101890003F4F3E8B2D8B2C5F3F4F388F2F8B2E5F12
:1018A0003F4F3A8B298BB301A2012FEF421A520A04
:1018B000620A720AED89FE8980819181A281B381D9
:1018C000481759076A077B074CF5AF89B88DCD904B
:1018D000DC90C20CD31CF801DE01119680E101906E
:1018E0000D928A95E1F7005F1F4FA601BE016F5F61
:1018F0007F4FEB89FC8984819581F7DAA989BA89C0
:101900008D919C911197F60122813381820F931F53
:101910008D939C93F4E02F0E311CC5CFD701D49644
:101920008D919C91D5970E940E32F70197AB86ABB3
:10193000892B09F462C0F80180819181A281B38171
:1019400024E4289DF001299DF00D1124EC51FC4F59
:10195000AC01BD014D7F21E030E0452B462B472BEC
:1019600011F020E030E033A322A324E4289DF0010D
:10197000299DF00D1124EC51FC4F0197A109B109EB
:1019800021E030E00297A105B10510F020E030E041
:1019900035A324A384E4889DF001899DF00D1124D2
:1019A000CF01865F9B4FD80114964D915D916D914B
:1019B0007C911797DC014D935D936D937C93139706
:1019C000EC51FC4F868D978DA0A1B1A1B7FF10C03F
:1019D000B095A095909581959F4FAF4FBF4F82AF27
:1019E00093AFA4AFB5AF168E178E10A211A20AC086
:1019F00012AE13AE14AE15AE05C0C501B40109DABE
:101A000081E001C080E068960FB6F894DEBF0FBE9B
:101A1000CDBFDF91CF911F910F91FF90EF90DF909D
:101A2000CF90BF90AF909F908F907F906F905F907E
:101A30004F903F902F900895CF92DF92EF92FF92B8
:101A4000CF93DF9310926C0424E4269FF001279F2C
:101A5000F00D1124EC51FC4F15A614A620E030E047
:101A6000C12CD12CDF011A96C1E0D0E0C416D506F6
:101A7000D4F4ED91FC911197E20FF31FE280F38013
:101A80001E141F0454F4E480F580F782E682F18688
:101A9000E08613861286D183C083EFEFCE1ADE0A6A
:101AA000225F3F4FE3CF24E4269FF001279FF00DF4
:101AB0001124EC51FC4F13A612A611AE10AEDF019B
:101AC000DE961D921D921D921C92139782E090E06B
:101AD000938B828BDF91CF91FF90EF90DF90CF902F
:101AE000089524E4269FF001279FF00D1124EC5166
:101AF000FC4F138A128A29CB24E4269FF001279FEA
:101B0000F00D1124EC51FC4F8289938981309105AD
:101B1000C8F08530910518F0059769F008958FEFAA
:101B20009FEFDC01828F938FA48FB58F85E090E0CB
:101B3000938B828B08958FEF9FEFDC01828F938FC1
:101B4000A48FB58F089524E4249FF001259FF00D04
:101B50001124EC51FC4F2EE0AC01249FC001259FC5
:101B6000900D11240284F385E02DE80FF91F81E028
:101B700080936C0482859385918780874085518509
:101B80002681378181E090E04217530711F080E011
:101B900090E09183808308952F923F924F925F92BD
:101BA0006F927F928F929F92AF92BF92CF92DF926D
:101BB000EF92FF920F931F93CF93DF93CDB7DEB7D2
:101BC000C255D1090FB6F894DEBF0FBECDBF219626
:101BD0009FAF8EAF21974BA75CA76DA77EA748014B
:101BE000590184E4889D8001899D100D1124F8011C
:101BF000EC51FC4F2285338527963FAF2EAF2797B8
:101C000082899389029709F060C186A597A5A0A94A
:101C1000B1A9892B8A2B8B2B29F484E090E0938B3C
:101C2000828B53C18489958921964EAD5FAD2197F2
:101C30004817590709F049C186A997A99AAB89ABFA
:101C40001EAE1DAE19AE1AAE1BAE1CAE8F01DF016B
:101C50009E962996BFAFAEAF2997F2962B96FFAF0F
:101C6000EEAF2B979801285C3F4F2D963FAF2EAFDC
:101C70002D97A8014A5D5F4F2F965FAF4EAF2F970C
:101C8000C801829661969FAF8EAF61971A9763964F
:101C9000BFAFAEAF63972996EEADFFAD29978081B8
:101CA0009181A281B38129AD3AAD4BAD5CAD2817CE
:101CB00039074A075B070CF0E7C02B96EEADFFAD86
:101CC0002B97808191812DAD3EAD280F391F3EAB02
:101CD0002DABD90112960D90BC91A02D2396BFAFCC
:101CE000AEAF2397B695A795B695A7952596BFAFA6
:101CF000AEAF25972D96EEADFFAD2D9780819181EA
:101D0000892B09F496C02F96AEADBFAD2F97CD901D
:101D1000DD90ED90FC9029A83AA8F9010190F0819E
:101D2000E02DF8ABEFA718AE1FAA8FA998AD2596A6
:101D3000AEADBFAD25978A179B070CF07AC06196B0
:101D4000AEADBFAD61978D919C91892B69F1EFA5E7
:101D5000F8A94080518062807380A7019601C30179
:101D6000B2010E94952F87FD0BC0A7019601D101FA
:101D70006D917D918D919C910E94EA2D87FD8CC083
:101D8000A7019601C301B2010E94952F181664F4B1
:101D9000A7019601F10160817181828193810E9486
:101DA000EA2D882309F478C06396AEADBFAD639782
:101DB0008D919C91892B69F1EFA5F8A94080518004
:101DC00062807380A7019601C301B2010E94EA2DCF
:101DD00087FF0BC0A7019601D1016D917D918D9177
:101DE0009C910E94952F87FF57C0A7019601C301C0
:101DF000B2010E94EA2D81110CC0A7019601F101E8
:101E000060817181828193810E94952F18160CF454
:101E100043C02FA938AD2F5F3F4F38AF2FAB34E011
:101E2000230E311C4FA558A94C5F5F4F58AB4FA7ED
:101E30007CCFEDA9FEA96081718123964EAD5FAD87
:101E4000239789A99AA90E943B3325968EAD9FAD11
:101E50002597880F991F880F991F29A93AA9280F3C
:101E6000391F3AAB29AB89AD9AADABADBCAD01968C
:101E7000A11DB11D89AF9AAFABAFBCAFADADBEADCB
:101E80001496BEAFADAF07CF81E090E0D801D996F0
:101E90009C938E93D89719C084E4889DF001899D06
:101EA000F00D1124EC51FC4F868D978DA0A1B1A1AE
:101EB000892B8A2B8B2B09F064C284E090E0938BF2
:101EC000828B86AD97AD93A782A784E4889DF001AD
:101ED000899DF00D1124EC51FC4F82899389823049
:101EE000910571F482AD93ADA4ADB5AD1816190688
:101EF0001A061B060CF04CC2CC24C394D12C05C08E
:101F0000049709F045C2C12CD12C8EE02196EEAD8C
:101F1000FFAD21978E9F70018F9FF00C11242796A3
:101F20002EAD3FAD2797E20EF31ED70112964D91CD
:101F30005C9113974115510509F42AC216968D91AB
:101F40009C9117979AA789A7FE01319684E1DF013A
:101F50001D928A95E9F7898A9A8AAB8ABC8AC1144C
:101F6000D10409F457C084E4889DF001899DF00DE7
:101F70001124EC51FC4FDF01DE964D905D906D9089
:101F80007C9082AD93ADA4ADB5AD481659066A06F6
:101F90007B0609F03FC0F701648175810084F185FB
:101FA000E02D84819581A681B7819C018D8B9E8BCC
:101FB000AF8BB88F285F3F4F3E8B2D8BD701189684
:101FC0008D919C911997280F391F19963C932E9348
:101FD000189718968D919C911997460F571F841B3F
:101FE000950B97FD06C0860F971F19969C938E93AD
:101FF000189784E4889DF001899DF00D1124EE5D11
:10200000FB4FB1E04B1A51086108710840825182C0
:10201000628273829E012B5E3F4FAE01475D5F4F30
:1020200064E170E0C7010E94A006082F10E00115CE
:10203000110509F091C18CE090E0A0E0B0E08D8343
:102040009E83AF83B8879E01235E3F4FAE01475DFD
:102050005F4F64E070E0C7010E94A006082F10E007
:102060000115110509F078C180E190E0A0E0B0E031
:102070008D839E83AF83B8874D8D5E8DBE01655D78
:102080007F4F8F8D98A10E943B338BA19CA100971D
:1020900061F06D8D7E8DEBE2F0E0EC0FFD1F6E0FB9
:1020A0007F1F49A15AA10E943B331DA21EA21FA25D
:1020B00018A621962EAD3FAD2197220F331F38AFC2
:1020C0002FAB24E4289DC001299D900D11248C5133
:1020D0009C4FAC014C5F5F4F5AAF49AFDC01189683
:1020E000BEAFADAF2DA13EA14FA158A529AB3AABD4
:1020F0004BAB5CABE9ADFAAD80819181A281B3813C
:10210000281739074A075B070CF0CFC0ADADBEAD4D
:10211000ED91FC9189A99AA9880F991F880F991FA1
:10212000E80FF91FA081B1818C91882309F4AFC019
:10213000833009F4ACC00280F381E02D2FA938ADC3
:10214000E20FF31F4081518158AB4FA7452B09F493
:102150009EC089859A85AB85BC850196A11DB11D60
:1021600089879A87AB87BC879E01235E3F4FAE016C
:10217000475D5F4F64E070E0C7010E94A00690E0F9
:10218000009709F0E8C08D819E81AF81B8850496E3
:10219000A11DB11D8D839E83AF83B8874D8D5E8D4C
:1021A000BE016B5D7F4F8F8D98A10E943B338BA149
:1021B0009CA1009761F06D8D7E8DA5E2B0E0AC0F23
:1021C000BD1F6A0F7B1F49A15AA10E943B331EAA63
:1021D0001DAA412C512C3201EFA5F8A980819181D3
:1021E000A281B381481659066A067B060CF04FC0DF
:1021F000EFA5F8A9248035802DA93EA9220E331E13
:10220000D10112966D917C9113979E01235E3F4FF1
:10221000AE01475D5F4FC7010E94A00690E00097A6
:1022200009F099C0F10182819381092E000CAA0B5B
:10223000BB0B4D815E816F817885840F951FA61F32
:10224000B71F8D839E83AF83B887608171814D8D69
:102250005E8D8F8D98A10E943B338BA19CA100972E
:1022600059F0D1016D917C912D8D3E8D620F731FC0
:1022700049A15AA10E943B33BFEF4B1A5B0A6B0A7C
:102280007B0AEDA9FEA93496FEABEDABA5CF49A81C
:102290005AA86BA87CA8FFEF4F1A5F0A6F0A7F0A43
:1022A0004DA25EA26FA278A61DCF89859A85AB85C7
:1022B000BC85892B8A2B8B2B09F44EC08AE190E0D8
:1022C000A0E0B0E089839A83AB83BC8321962EADD6
:1022D0003FAD2197C901330FAA0BBB0B8D879E879A
:1022E000AF87B88B4D895E89BE016F5F7F4F8F8945
:1022F000988D0E943B338B8D9C8D009761F06D898A
:102300007E8941E050E04C0F5D1F640F751F498DC1
:102310005A8D0E943B3389A59AA5D70117969C93A5
:102320008E93169711961C921E92CD2889F184E403
:10233000889DF001899DF00D1124EE5DFB4F808199
:102340009181A281B3810196A11DB11D80839183EA
:10235000A283B3831DC08C01CD28D1F4012BC1F021
:1023600084E4889DF001899DF00D1124EC51FC4F0F
:1023700081E090E095A784A785E090E0938B828B25
:1023800007C083E090E0938B828B81E090E09BCD4F
:10239000CE5ADF4F0FB6F894DEBF0FBECDBFDF9130
:1023A000CF911F910F91FF90EF90DF90CF90BF9052
:1023B000AF909F908F907F906F905F904F903F90E5
:1023C0002F900895CF92DF92EF92FF920F931F9379
:1023D0006B017C0184E48C9DF0018D9DF00D112436
:1023E000EC51FC4F82899389009709F450C0019702
:1023F000B9F482A593A59C012F5F3F4F33A722A775
:10240000092E000CAA0BBB0B028D138D248D358D6C
:1024100080179107A207B307D1F5C701B6010CDBFE
:1024200084E48C9DF0018D9DF00D1124EC51FC4F46
:1024300082899389039759F582A593A59C012F5F03
:102440003F4F33A722A7092E000CAA0BBB0B468DCA
:10245000578D60A171A184179507A607B707BCF037
:1024600086AD97AD93A782A784E090E0938B828B93
:1024700082AD93ADA4ADB5AD181619061A061B06AC
:1024800034F4EE5BFF4F81E090E0918380831F91F5
:102490000F91FF90EF90DF90CF90089524E4269F56
:1024A000F001279FF00D1124EC51FC4F8289938994
:1024B0000497B1F482A593A5019693A782A7092E4C
:1024C000000CAA0BBB0B46895789608D718D841750
:1024D0009507A607B70721F485E090E0938B828BE0
:1024E00008952F923F924F925F926F927F928F92B8
:1024F0009F92AF92BF92CF92DF92EF92FF920F9393
:102500001F93CF93DF93CDB7DEB72E970FB6F89416
:10251000DEBF0FBECDBF49835A836B837C834901E5
:10252000442E552E24E4249DF001259DF00D112408
:10253000EC51FC4F228833889101245031091586D3
:1025400014862230310508F0DDC0DC0111961C92A2
:102550001E9213961C921E921297A12CB12C60E031
:1025600070E09F01265F3F4F38872F837F013CE05B
:10257000E30EF11CDF015096BA87A9879F01225F05
:102580003F4F3C872B87681579050CF06FC0EF81B2
:10259000F885A081B1819D012A0D3B1D3E872D87C5
:1025A000D9012D913C911197232B09F059C0189610
:1025B0000D911C9119971296ED91FC911397FE8342
:1025C000ED8316962D913C911797D7014D915C9113
:1025D000DA01E3E0AA0FBB1FEA95E1F7E985FA8586
:1025E000C080D180FD01EC0DFD1D440F551FAB8552
:1025F000BC85CD90DC904C0D5D1DDA016D937C9314
:10260000D7014D915C9111974F5F5F4F4D935C9354
:1026100013830283AD85BE851B963C932E931A9738
:102620000217130748F4201B310B318320831582D6
:1026300014821782168214C0AD85BE851496CD9083
:10264000DC9015974D815E814C0D5D1D401B510B3B
:10265000518340832C193D0935832483D782C68258
:102660006F5F7F4FBEE0AB0EB11C8DCF24E4249D85
:102670008001259D100D11240C511C4FF80124855B
:102680003585DC0111963C932E9340895189139630
:102690005C934E9312974685578515965C934E939F
:1026A0001497232BA1F5B5E02B16310481F5109278
:1026B0006C04828D938DA48DB58DAE014F5F5F4FFD
:1026C00064E070E08F3F9F4FAF4FBF4F59F480E2FF
:1026D00090E00E94F72169817A818B819C81A4011D
:1026E00000DA15C08FE190E00E94F721D8019B9697
:1026F0001C921E929A9781E090E053969C938E9341
:10270000529705C0FC0111821082138212822E960C
:102710000FB6F894DEBF0FBECDBFDF91CF911F91F2
:102720000F91FF90EF90DF90CF90BF90AF909F9070
:102730008F907F906F905F904F903F902F90089573
:10274000EF92FF920F931F93CF93DF937C018B0146
:10275000EA010E947A22811121C08091CA029091DF
:10276000CB02049711F183E090E09093CB02809329
:10277000CA021BC098819111F0CF28ED38EB45E0DB
:1027800050E060E070E0CB010E940425AE01B8018A
:10279000C7010E941225C8010E94DD2480916D04AA
:1027A00090916E04892B31F3D8CFDF91CF911F9197
:1027B0000F91FF90EF900895CF93DF932091CA027D
:1027C0003091CB022430310541F0EB010E941225FB
:1027D000CE01DF91CF910C94DD24DF91CF9108954C
:1027E0000C9428290C941D290C940B290C94ED248D
:1027F0000C94AE28089560E070E080E090E00C94C6
:1028000055220895AF92BF92CF92DF92EF92FF923E
:102810000F931F93CF93DF931F921F92CDB7DEB715
:102820005C0169017A018B0180E090E0C114D10460
:10283000E104F104F1F0C114D10421E0E206F10455
:1028400010F4A60102C04FEF5FEF9E012F5F3F4FD4
:10285000B801C5010E94C9298F3F2FEF920749F0A7
:1028600029813A81C21AD30AE108F108020F131F25
:10287000DDCF0F900F90DF91CF911F910F91FF90BF
:10288000EF90DF90CF90BF90AF9008954F925F92FE
:102890006F927F928F929F92AF92BF92CF92DF9270
:1028A000EF92FF920F931F93CF93DF93CDB7DEB7D5
:1028B00028970FB6F894DEBF0FBECDBF8C0120E085
:1028C00030E040E85FE3FB016081718182819381A8
:1028D0000E94EA2D8111F0C080916F0490917004E4
:1028E0002091150830911608821B930B9093700469
:1028F00080936F04E5E1F8E0828193818193919365
:1029000088E0E732F807C1F78FE091D39093280869
:102910008093270820916F0430917004820F931FD9
:102920009093700480936F046AE070E00E946E31AF
:10293000072E000C880B990B0E94892E23E333E3AA
:1029400043E55BE30E94992F6B017C0120E030E0BE
:1029500040EC50E40E94FC2F4B015C0120E030E091
:1029600040EA50E4C701B6010E94FC2F2B013C0154
:1029700020E030E040E850E4C701B6010E94FC2F9F
:1029800069837A838B839C8320E030E040E450E4C9
:10299000C701B6010E94FC2F6D837E838F839887C9
:1029A0002EE836E040EA5FE3C501B4010E94992FAA
:1029B0004B015C0122E03BE243E851E4C301B20178
:1029C0000E94992F9B01AC01C501B4010E94852D85
:1029D0004B015C012CE437EF49EA52E469817A81CA
:1029E0008B819C810E94992F9B01AC01C501B40190
:1029F0000E94862D4B015C0123EC35E741E653E450
:102A00006D817E818F8198850E94992F9B01AC01F9
:102A1000C501B4010E94852D4B015C01A7019601FF
:102A2000C701B6010E94992F26E636E645EA53E42F
:102A30000E94992F9B01AC01C501B4010E94862D13
:102A40004B015C012DEC3CE048E853E4C701B601C2
:102A50000E94992F9B01AC01C501B4010E94852DF4
:102A600024EA30E741EF52E40E94862D6B017C019D
:102A700020E030E044E352E40E94952F18168CF0D9
:102A800020E030E040EA50E4C701B6010E94EA2DA0
:102A900087FF0DC0C12CD12C90EAE92E90E4F92ECD
:102AA00006C0C12CD12C84E3E82E82E4F82EF80174
:102AB000C082D182E282F38228960FB6F894DEBFFC
:102AC0000FBECDBFDF91CF911F910F91FF90EF907F
:102AD000DF90CF90BF90AF909F908F907F906F903E
:102AE0005F904F9008950F931F93CF93DF938B01C7
:102AF00020E030E0A901FB01608171818281938136
:102B00000E94EA2D811127C060E08FE00BD383E0A3
:102B10008BD2C5E1D8E08FE08AD289939993209136
:102B20006F0430917004820F931F90937004809310
:102B30006F046CE370E080E090E0DBD1F8E0C93234
:102B4000DF0749F780E090E0A0E8BFE3F801808369
:102B50009183A283B383DF91CF911F910F91089549
:102B6000089508951F920F920FB60F9211240BB67D
:102B70000F922F933F934F935F936F937F938F9316
:102B80009F93AF93BF93EF93FF93E091D002F091A7
:102B9000D1021995FF91EF91BF91AF919F918F91C4
:102BA0007F916F915F914F913F912F910F900BBE4D
:102BB0000F900FBE0F901F9018951F920F920FB697
:102BC0000F9211240BB60F922F933F934F935F9365
:102BD0006F937F938F939F93AF93BF93EF93FF93E5
:102BE000E091D202F091D3021995FF91EF91BF913C
:102BF000AF919F918F917F916F915F914F913F9195
:102C00002F910F900BBE0F900FBE0F901F90189535
:102C10001F920F920FB60F9211240BB60F922F93A3
:102C20003F934F935F936F937F938F939F93AF9354
:102C3000BF93EF93FF93E091D402F091D5021995E1
:102C4000FF91EF91BF91AF919F918F917F916F9184
:102C50005F914F913F912F910F900BBE0F900FBE40
:102C60000F901F9018951F920F920FB60F9211247C
:102C70000BB60F922F933F934F935F936F937F9376
:102C80008F939F93AF93BF93EF93FF93E091D602FF
:102C9000F091D7021995FF91EF91BF91AF919F915C
:102CA0008F917F916F915F914F913F912F910F90F5
:102CB0000BBE0F900FBE0F901F9018951F920F9292
:102CC0000FB60F9211240BB60F922F933F934F9391
:102CD0005F936F937F938F939F93AF93BF93EF9384
:102CE000FF93E091CC02F091CD021995FF91EF9105
:102CF000BF91AF919F918F917F916F915F914F9114
:102D00003F912F910F900BBE0F900FBE0F901F9011
:102D100018951F920F920FB60F9211240BB60F92B7
:102D20002F933F934F935F936F937F938F939F93D3
:102D3000AF93BF93EF93FF93E091CE02F091CF0258
:102D40001995FF91EF91BF91AF919F918F917F91D5
:102D50006F915F914F913F912F910F900BBE0F900C
:102D60000FBE0F901F9018951F920F920FB60F92E3
:102D700011240BB60F922F933F934F935F936F9352
:102D80007F938F939F93AF93BF93EF93FF93E091C4
:102D9000D802F091D9021995FF91EF91BF91AF91AF
:102DA0009F918F917F916F915F914F913F912F9163
:102DB0000F900BBE0F900FBE0F901F9018951F9293
:102DC0000F920FB60F9211240BB60F922F933F93D1
:102DD0004F935F936F937F938F939F93AF93BF9323
:102DE000EF93FF93E091DA02F091DB021995FF91E6
:102DF000EF91BF91AF919F918F917F916F915F9173
:102E00004F913F912F910F900BBE0F900FBE0F90DF
:102E10001F9018951F920F920FB60F9211242F93A7
:102E20003F938F939F93AF93BF9380917204909140
:102E30007304A0917404B09175043091710423E07F
:102E4000230F2D3720F40196A11DB11D05C026E8E2
:102E5000230F0296A11DB11D20937104809372046B
:102E600090937304A0937404B093750480917604D6
:102E700090917704A0917804B09179040196A11DF6
:102E8000B11D8093760490937704A0937804B09357
:102E90007904BF91AF919F918F913F912F910F90A6
:102EA0000FBE0F901F9018953FB7F894809176044D
:102EB00090917704A0917804B091790426B5A89BED
:102EC00005C02F3F19F00196A11DB11D3FBFBA2FBC
:102ED000A92F982F8827820F911DA11DB11DBC011C
:102EE000CD0142E0660F771F881F991F4A95D1F7E1
:102EF00008958F929F92AF92BF92CF92DF92EF92FE
:102F0000FF926B017C01D0DF4B015C01C114D10445
:102F1000E104F104F1F024DEC7DFDC01CB01881904
:102F20009909AA09BB09883E9340A105B10570F330
:102F300021E0C21AD108E108F10888EE880E83E08A
:102F4000981EA11CB11CC114D104E104F10421F7A5
:102F5000DDCFFF90EF90DF90CF90BF90AF909F902C
:102F60008F900895789484B5826084BD84B5816023
:102F700084BD85B5826085BD85B5816085BDEEE681
:102F8000F0E0808181608083E1E8F0E01082808160
:102F900082608083808181608083E0E8F0E08081CE
:102FA00081608083E1EBF0E0808184608083E0EBEE
:102FB000F0E0808181608083E1E9F0E080818260DF
:102FC0008083808181608083E0E9F0E0808181609E
:102FD0008083E1EAF0E0808182608083808181608B
:102FE0008083E0EAF0E0808181608083E1E2F1E0CB
:102FF000808182608083808181608083E0E2F1E073
:10300000808181608083EAE7F0E080818460808352
:1030100080818260808380818160808380818068FC
:1030200080831092C10008958093DC020895863356
:1030300008F0865390917B00282F2870977F922B61
:1030400090937B0087702091DC0290E4299F90018F
:103050001124822B80937C0080917A00806480937D
:103060007A0080917A0086FDFCCF809178002091D3
:10307000790090E0922B089590E0FC013197E231C5
:10308000F10508F04EC08827EE58FF4F8F4F0C9483
:10309000BF31809180008F7703C0809180008F7D49
:1030A00080938000089580918000877FF9CF84B558
:1030B0008F7702C084B58F7D84BD08958091B00064
:1030C0008F7703C08091B0008F7D8093B00008950A
:1030D000809190008F7707C0809190008F7D03C012
:1030E00080919000877F8093900008958091A00048
:1030F0008F7707C08091A0008F7D03C08091A000D2
:10310000877F8093A0000895809120018F7707C06A
:10311000809120018F7D03C080912001877F809363
:1031200020010895CF93DF9390E0FC01E051FE4F22
:103130002491FC01EA5CFD4F8491882361F190E0C9
:10314000880F991FFC01EA56FD4FC591D491FC01EF
:10315000E458FD4FA591B491611109C09FB7F8944F
:103160008881209582238883EC912E230BC06230C6
:1031700061F49FB7F8943881822F809583238883E8
:10318000EC912E2B2C939FBF06C08FB7F894E8814B
:103190002E2B28838FBFDF91CF9108951F93CF935C
:1031A000DF93282F30E0F901E655FE4F8491F901B5
:1031B000E051FE4FD491F901EA5CFD4FC491CC235C
:1031C000C1F0162F811158DFEC2FF0E0EE0FFF1F3A
:1031D000E458FD4FA591B4918FB7F894111105C033
:1031E0009C91ED2FE095E92302C0EC91ED2BEC933F
:1031F0008FBFDF91CF911F910895FC01918D228D9A
:10320000892F90E0805C9F4F821B91098F739927D3
:103210000895FC01918D828D981731F0828DE80F11
:10322000F11D858D90E008958FEF9FEF0895FC01CB
:10323000918D828D981761F0828DDF01A80FB11DED
:103240005D968C91928D9F5F9F73928F90E0089511
:103250008FEF9FEF0895FC01848DDF01A80FB11D52
:10326000A35ABF4F2C91848D90E001968F739927BC
:10327000848FA689B7892C93A089B1898C918064A9
:103280008C93938D848D981306C00288F389E02D6A
:1032900080818F7D80830895CF93DF93EC01888DAB
:1032A0008823C1F0EA89FB89808185FD05C0A88952
:1032B000B9898C9186FD0EC00FB607FCF5CF8081D1
:1032C00085FFF2CFA889B9898C9185FFEDCFCE011A
:1032D000C2DFE8CFDF91CF910895EF92FF920F9375
:1032E0001F93CF93DF93EC0181E0888F9B8D8C8DB2
:1032F000981305C0E889F989808185FD23C0F62EE1
:103300000B8D10E00F5F1F4F0F731127E02E8C8D78
:10331000E8120BC00FB607FCFACFE889F989808163
:1033200085FFF5CFCE0197DFF2CF8B8DFE01E80F41
:10333000F11DE35AFF4FF0820B8FEA89FB898081F0
:10334000806207C0EE89FF896083E889F9898081FE
:103350008064808381E090E0DF91CF911F910F9195
:10336000FF90EF900895CF92DF92EF92FF921F931C
:10337000CF93DF93EC016A017B01122FE889F98971
:1033800082E080834115514E61057105B1F060E026
:1033900079E08DE390E0A70196010E948131DA0186
:1033A000C9010197A109B109B695A7959795879588
:1033B000AC01411580E15807A8F0E889F98910822D
:1033C00060E874E88EE190E0A70196010E948131E7
:1033D000BA01A901415051096109710976956795B2
:1033E00057954795EC85FD855083EE85FF85408395
:1033F000188EEC89FD891083EA89FB8980818061C0
:103400008083EA89FB89808188608083EA89FB89DF
:10341000808180688083EA89FB8980818F7D8083B9
:10342000DF91CF911F91FF90EF90DF90CF900895A3
:103430001F920F920FB60F9211240BB60F922F937B
:103440008F939F93EF93FF93E0918A04F0918B0405
:103450008081E0919004F091910482FD12C09081EE
:10346000809193048F5F8F7320919404821751F0A1
:10347000E0919304F0E0E658FB4F958F809393041E
:1034800001C08081FF91EF919F918F912F910F90BB
:103490000BBE0F900FBE0F901F9018951F920F92AA
:1034A0000FB60F9211240BB60F922F933F934F93A9
:1034B0005F936F937F938F939F93AF93BF93EF939C
:1034C000FF938AE794E0C7DEFF91EF91BF91AF9140
:1034D0009F918F917F916F915F914F913F912F912C
:1034E0000F900BBE0F900FBE0F901F901895EAE73C
:1034F000F4E01382128288EE93E0A0E0B0E08483CF
:103500009583A683B78385E693E09183808385ECDA
:1035100090E09587848784EC90E09787868780EC9D
:1035200090E0918B808B81EC90E0938B828B82EC8E
:1035300090E0958B848B86EC90E0978B868B118E38
:10354000128E138E148E08951F920F920FB60F9243
:1035500011240BB60F922F938F939F93EF93FF93AA
:10356000E0912705F09128058081E0912D05F091EB
:103570002E0582FD12C09081809130058F5F8F7380
:1035800020913105821751F0E0913005F0E0E95EBD
:10359000FA4F958F8093300501C08081FF91EF91A4
:1035A0009F918F912F910F900BBE0F900FBE0F9098
:1035B0001F9018951F920F920FB60F9211240BB601
:1035C0000F922F933F934F935F936F937F938F93BC
:1035D0009F93AF93BF93EF93FF9387E195E03BDE1B
:1035E000FF91EF91BF91AF919F918F917F916F91DB
:1035F0005F914F913F912F910F900BBE0F900FBE97
:103600000F901F901895E7E1F5E01382128288EE83
:1036100093E0A0E0B0E084839583A683B78385E63A
:1036200093E0918380838DEC90E0958784878CEC88
:1036300090E09787868788EC90E0918B808B89EC6F
:1036400090E0938B828B8AEC90E0958B848B8EEC50
:1036500090E0978B868B118E128E138E148E0895A8
:103660001F920F920FB60F9211240BB60F922F9349
:103670008F939F93EF93FF93E091C405F091C5055D
:103680008081E091CA05F091CB0582FD12C0908146
:103690008091CD058F5F8F732091CE05821751F0F9
:1036A000E091CD05F0E0EC54FA4F958F8093CD0575
:1036B00001C08081FF91EF919F918F912F910F9089
:1036C0000BBE0F900FBE0F901F9018951F920F9278
:1036D0000FB60F9211240BB60F922F933F934F9377
:1036E0005F936F937F938F939F93AF93BF93EF936A
:1036F000FF9384EB95E0AFDDFF91EF91BF91AF9128
:103700009F918F917F916F915F914F913F912F91F9
:103710000F900BBE0F900FBE0F901F901895E4EB0B
:10372000F5E01382128288EE93E0A0E0B0E084839B
:103730009583A683B78385E693E09183808385EDA7
:1037400090E09587848784ED90E09787868780ED69
:1037500090E0918B808B81ED90E0938B828B82ED5A
:1037600090E0958B848B86ED90E0978B868B118E05
:10377000128E138E148E08951F920F920FB60F9211
:1037800011240BB60F922F938F939F93EF93FF9378
:10379000E0916106F09162068081E0916706F09108
:1037A000680682FD12C0908180916A068F5F8F73D8
:1037B00020916B06821751F0E0916A06F0E0EF5A13
:1037C000F94F958F80936A0601C08081FF91EF9138
:1037D0009F918F912F910F900BBE0F900FBE0F9066
:1037E0001F9018951F920F920FB60F9211240BB6CF
:1037F0000F922F933F934F935F936F937F938F938A
:103800009F93AF93BF93EF93FF9381E596E023DD02
:10381000FF91EF91BF91AF919F918F917F916F91A8
:103820005F914F913F912F910F900BBE0F900FBE64
:103830000F901F901895E1E5F6E01382128288EE52
:1038400093E0A0E0B0E084839583A683B78385E608
:1038500093E09183808385E391E09587848784E377
:1038600091E09787868780E391E0918B808B81E35D
:1038700091E0938B828B82E391E0958B848B86E33E
:1038800091E0978B868B118E128E138E148E089575
:103890008F929F92AF92BF92CF92DF92EF92FF9260
:1038A0000F931F93CF93DF937C018B016C0182E018
:1038B000C80ED11C4701E5E08E0E911CC0E0D0E09F
:1038C000F60161916F014AE050E0C801C6D05C0189
:1038D0006EE2C80167D08A0D9B1DC80FD91FC8149E
:1038E000D90471F74AE050E0F7016581C801B5D00D
:1038F0008C0F9D1FDF91CF911F910F91FF90EF9043
:10390000DF90CF90BF90AF909F908F900895EEEE94
:10391000F6E085E793E0918380831282138214821C
:1039200015820895CF92DF92EF92FF920F931F932B
:10393000CF93DF936C017A018B01C0E0D0E0CE150C
:10394000DF0589F0D8016D918D01D601ED91FC91D3
:103950000190F081E02DC6011995892B11F47E01AB
:1039600002C02196ECCFC701DF91CF911F910F913B
:10397000FF90EF90DF90CF9008956115710579F079
:10398000FB0101900020E9F73197AF01461B570B6F
:10399000DC01ED91FC910280F381E02D199480E02F
:1039A00090E00895DC01ED91FC910190F081E02D13
:1039B00019944F925F926F927F92EF92FF920F93C2
:1039C0001F93CF93DF93CDB7DEB7A1970FB6F894CF
:1039D000DEBF0FBECDBF7C01FA01CB0119A22230A0
:1039E00008F42AE08E010F5D1F4F422E512C612CEE
:1039F000712CBF01A30192010E948131F901CA011A
:103A0000015011096A3014F4605D01C0695CD8018D
:103A10006C93232B242B252B61F7B801C701ADDF55
:103A2000A1960FB6F894DEBF0FBECDBFDF91CF9148
:103A30001F910F91FF90EF907F906F905F904F904C
:103A400008952115310541F4DC01ED91FC910190BF
:103A5000F081E02D642F1994ACCF9A01462F50E0ED
:103A600060E070E0EECF8230A9F028F4882349F0BE
:103A7000813051F00895843021F1E8F0853039F13A
:103A8000089510926E00089580916F008D7F80934D
:103A90006F000895809170008D7F8093700081E0A9
:103AA0008093B0008091B100887F84608093B100E2
:103AB0001092B3000895809171008D7F8093710002
:103AC0000895809172008D7F809372000895809197
:103AD00073008D7F809373000895CF93C82F8091DA
:103AE000DD028C1307C0E0EBF2E0E4918FEF8093EE
:103AF000DD0201C0EFEF8E2FB6DF60E08C2FCF919B
:103B00004DCB1F920F920FB60F9211240BB60F924E
:103B10002F933F934F935F936F937F938F939F93D5
:103B2000AF93BF93EF93FF938091F7069091F806C0
:103B3000A091F906B091FA06892B8A2B8B2B51F1B3
:103B40008091F406E091F506F091F60690818927C0
:103B500080838091F7069091F806A091F906B091C4
:103B6000FA06181619061A061B06BCF48091F70609
:103B70009091F806A091F906B091FA060197A10973
:103B8000B1098093F7069093F806A093F906B093D5
:103B9000FA0603C08091DD02A0DFFF91EF91BF9193
:103BA000AF919F918F917F916F915F914F913F91D5
:103BB0002F910F900BBE0F900FBE0F901F90189576
:103BC0004F925F926F927F92AF92BF92CF92DF92AD
:103BD000EF92FF920F931F93CF93DF93CDB7DEB792
:103BE00029013A019B01AC012419350946095709FD
:103BF0008A899B89AC89BD89BC01CD016A197B0981
:103C00008C099D090E945331A80197012419350997
:103C1000460957090E94A331CA01B9016A0D7B1DEB
:103C20008C1D9D1DDF91CF911F910F91FF90EF9003
:103C3000DF90CF90BF90AF907F906F905F904F904C
:103C4000089540E855E260E070E080E090E000C058
:103C50008130910571F01CF4892B39F00895823080
:103C6000910559F0039769F0089526E08AE794E0FA
:103C70000BC026E087E195E007C026E084EB95E0E5
:103C800003C026E081E596E06ECB70E090E09C01F9
:103C9000220F331F820F931F8550994F0C94472C8E
:103CA00070E090E09C01220F331F820F931F85501C
:103CB000994F0C94812C8BEF96E00C947E2B1F92E5
:103CC0000F920FB60F9211240BB60F922F933F93C2
:103CD0004F935F936F937F938F939F93AF93BF9314
:103CE000EF93FF938AE591EF909385008093840092
:103CF0000E94DC2CFF91EF91BF91AF919F918F912A
:103D00007F916F915F914F913F912F910F900BBEDB
:103D10000F900FBE0F901F9018958AE591EF90932A
:103D2000850080938400AFE6B0E08C918E7F8C9309
:103D3000E0E8F0E080818C7F8083E1E8F0E0808142
:103D4000877E808380818460808380818C7F808374
:103D50008C9181608C93089581E008956F927F9299
:103D60008F929F92AF92BF92CF92DF92EF92FF928B
:103D70000F931F93CF93DF935C017B014A0101E016
:103D800010E00E151F0564F568018FEFC81AD80AF8
:103D9000E801CC0FDD1FC80DD91D68807980611442
:103DA0007104E1F067E773E0C3010E944B33892B94
:103DB00019F41982188212C06AE773E0C3010E94E5
:103DC0004B33892B59F4CE14DF0441F06801E2E053
:103DD000CE0ED11C198218821B821A828601D1CF85
:103DE00081E0F5018083B401C7010E945329F501E8
:103DF0009283818380E090E0DF91CF911F910F91BA
:103E0000FF90EF90DF90CF90BF90AF909F908F90FA
:103E10007F906F9008958EEF96E0089580E008956A
:103E20000F931F93CF93DF938B01BA01E90119829E
:103E300018829801012E000C440B550BFC01818166
:103E400092810E940214019621F01983088380E078
:103E500001C081E0DF91CF911F910F9108950F93E1
:103E60001F93CF93DF931F921F92CDB7DEB7FB0155
:103E70008A01B9019E012F5F3F4FAF01FC01818193
:103E800092810E946A29019639F089819A81F8010C
:103E90009183808380E001C081E00F900F90DF91DB
:103EA000CF911F910F910895FC018081089508958D
:103EB000089581E0FB01808380E0089508951092C9
:103EC00028070895FC01818192810C944A29CF939F
:103ED000DF93CDB7DEB72A970FB6F894DEBF0FBEDB
:103EE000CDBFAC01CB0160E070E049835A836B83A6
:103EF0007C83092E000CAA0BBB0B8D839E83AF83A2
:103F0000B8879E01275F3F4FAE014F5F5F4F68E06C
:103F100070E0809117079091180782DF811108C027
:103F200081E029853A852830310519F480E001C007
:103F300081E02A960FB6F894DEBF0FBECDBFDF91A9
:103F4000CF9108950F931F93CF93DF931F921F92EA
:103F5000CDB7DEB78B019E012F5F3F4FAC01809143
:103F60001707909118075CDF811108C081E0298153
:103F70003A812017310719F480E001C081E00F90E9
:103F80000F90DF91CF911F910F910895CF93DF9301
:103F9000EC0110921B0710921A071092270710923B
:103FA0002607AC0160E070E0CB010E94710DAE010C
:103FB00061E070E080E090E00E94710D8091170751
:103FC00090911807DF91CF9179CF4F925F926F92C6
:103FD0007F928F929F92AF92BF92CF92DF92EF9299
:103FE000FF920F931F93CF93DF931F921F92CDB732
:103FF000DEB79C016C0197FF03C087E0C80ED11C9F
:1040000043E0D594C7944A95E1F7C90168E070E0B0
:104010000E946E317C0189010E5F1F4F8091150750
:1040200090911607801791070CF0DCC08091130760
:1040300090911407009731F00E94A3321092160756
:1040400010921507C8010E940E32909314078093B6
:104050001307892B29F01093160700931507C2C088
:10406000A12CB12CAC14BD040CF05EC0412C512C21
:10407000320100E010E09801245E384FAE014F5F3E
:104080005F4F61E070E08091170790911807E7DEBD
:10409000811198C189819A812FEF421A520A620ACE
:1040A000720A20E942162FE5520621E062067104E9
:1040B0003CF060912607709127078DEE90E02DC0AF
:1040C000080F191F0A30110551F549E050E060E072
:1040D00070E08CE197E00E94F529609126077091CD
:1040E00027078823C1F08091240790E0681779079B
:1040F00009F0B8CF8EEE90E0EADE8091260790912D
:1041000027070196992790932707809326078FEF1B
:10411000A81AB80AA7CF8FEE90E0D9DEA7CF0A3051
:1041200011050CF4A8CF9ECFEF2809F44BC1C12C88
:10413000D12C760100E010E09801245E384FAE01EA
:104140004F5F5F4F61E070E0809117079091180713
:1041500086DE811137C189819A812FEFC21AD20A76
:10416000E20AF20A20E9C2162FE5D20621E0E206B1
:10417000F1043CF060912607709127078DEE90E0E6
:104180002AC0080F191F0A30110539F549E050E01F
:1041900060E070E08CE197E00E94F52960912607CD
:1041A000709127078823A9F08091240790E0681771
:1041B000790709F007C18EEE90E089DE809126072D
:1041C00090912707019699279093270780932607B8
:1041D000F9C08FEE90E07BDEAACF0A3011050CF417
:1041E000ABCFF0C000E010E00C151D050CF077C05F
:1041F000412C512C3201A12CB12C480193E0880CA8
:10420000991C9A95E1F72091130730911407C40186
:104210008A0D9B1D280F391FAE014F5F5F4F61E074
:1042200070E0809117079091180719DE8111CAC0BC
:1042300089819A812FEF421A520A620A720A20E992
:1042400042162FE5520621E0620671043CF06091AF
:104250002607709127078DEE90E034C0A80EB91E96
:104260008AE0A816B104A9F549E050E0B4018091B4
:104270001307909114070E94F52960912607709109
:1042800027078823E9F08091130790911407FC0118
:10429000E80DF91D808590E06817790709F0A4CF33
:1042A0008EEE90E014DE809126079091270701960C
:1042B000992790932707809326070F5F1F4F94CF6E
:1042C0008FEE90E004DE412C512C3201A12CB12C58
:1042D0009ACF2AE0A216B1040CF495CF85CFE11451
:1042E000F10409F46AC0680183E0CC0CDD1C8A95F6
:1042F000E1F7812C912C540100E010E09801245E3C
:10430000384FAE014F5F5F4F61E070E0809117075B
:1043100090911807A4DD811155C089819A812FEFF2
:10432000821A920AA20AB20A20E982162FE59206A0
:1043300021E0A206B1043CF06091260770912707A6
:104340008DEE90E034C0080F191F0A30110589F571
:1043500049E050E060E070E08CE197E00E94F529D0
:1043600060912607709127078823F9F08091240730
:1043700090E06817790709F58EEE90E0A8DD80914E
:10438000130790911407A7016CE177E08C0D9D1D38
:104390000E943B3380912607909127070196992729
:1043A000909327078093260708C08FEE90E08FDD5B
:1043B000A0CF0A3011050CF4A1CF80911307909182
:1043C000140702C080E090E00F900F90DF91CF9132
:1043D0001F910F91FF90EF90DF90CF90BF90AF9023
:1043E0009F908F907F906F905F904F900895CF92A5
:1043F000DF92EF92FF920F931F93CF93DF931F9261
:10440000CDB7DEB76C017B018A01452B31F0AB01E2
:1044100060E070E0C801E5D78983B701C60157DDC8
:1044200081110DC00115110551F0B701C8018ADDD8
:10443000811105C061E070E0CE01019683DD0F902F
:10444000DF91CF911F910F91FF90EF90DF90CF9070
:104450000895CF92DF92EF92FF92CF93DF93CDB783
:10446000DEB728970FB6F894DEBF0FBECDBF6B0145
:10447000E12CF12CC982DA82EB82FC822D833E830F
:104480004F835887AE014F5F5F4F68E070E0AFDF4A
:1044900028960FB6F894DEBF0FBECDBFDF91CF9147
:1044A000FF90EF90DF90CF9008950F931F93CF93DD
:1044B000DF93EC018B01AFDC909318078093170713
:1044C000009739F0A801BE0149DCEC01892B19F4F1
:1044D0000BC0C6E8D3E08091170790911807E7DC7E
:1044E0001092180710921707CE01DF91CF911F91FC
:1044F0000F9108958091170790911807D5CC2F92AE
:104500003F924F925F926F927F928F929F92AF9263
:10451000BF92CF92DF92EF92FF920F931F93CF93B0
:10452000DF93CDB7DEB769970FB6F894DEBF0FBE45
:10453000CDBF20911B07222309F426C25D8B4C8B33
:10454000688B798B8A8B9B8B9A01AB01BC01CE0166
:1045500001960E94711210E038E0232E312C8981DF
:104560009A81181619060CF00AC21F861E861D862F
:104570001C8689819A81AC85BD85A817B9070CF086
:10458000F3C1EB81FC812E853F85E20FF31F208173
:104590003181309312072093110784819581909384
:1045A000100780930F074281538150930E07409369
:1045B0000D074681578150930C0740930B07820FDC
:1045C000931F9C01990F440B550B2E8B3F8B488FEB
:1045D000598FC12CD12C76012E893F89488D598D58
:1045E000C216D306E406F50608F0A2C11F82609148
:1045F0001107709112078B01072E000C220B330B51
:10460000D701C6010496A11DB11D80179107A2070D
:10461000B30728F4E0910D07F0910E070AC0E4E01B
:10462000F0E0E61BF70BEC0DFD1D80910B07909160
:104630000C07E80FF91F4080512C612C712CD70119
:10464000C6010596A11DB11D80179107A207B307EA
:1046500028F4E0910D07F0910E070AC0E5E0F0E0C4
:10466000E61BF70BEC0DFD1D80910B0790910C07DD
:10467000E80FF91F8081582AD701C6010696A11DAF
:10468000B11D80179107A207B30728F4E0910D0729
:10469000F0910E070AC0E6E0F0E0E61BF70BEC0D28
:1046A000FD1D80910B0790910C07E80FF91F808189
:1046B000682AD701C6010796A11DB11D8017910771
:1046C000A207B30728F4E0910D07F0910E070AC086
:1046D000E7E0F0E0E61BF70BEC0DFD1D80910B070A
:1046E00090910C07E80FF91F8081782A4601570145
:1046F00048E0840E911CA11CB11C081519052A055F
:104700003B0508F4B4C0C016D106E206F30638F43F
:1047100080910D0790910E078C0D9D1D09C0C6015B
:10472000861B970B20910B0730910C07820F931F6C
:1047300068E070E007DCE0911107F09112079F013B
:104740000F2E000C440B550BD301C201880D991D8F
:10475000AA1DBB1D281739074A075B07C8F0821638
:104760009306A406B50638F420910D0730910E0784
:10477000C601089609C0C1018E1B9F0B8C0D9D1DA3
:1047800020910B0730910C07820F931FB20199C043
:104790008601BF01685071096C197D098216930664
:1047A000A406B50638F420910D0730910E07C60116
:1047B000089609C0C1018E1B9F0B8C0D9D1D209179
:1047C0000B0730910C07820F931FBCDB8091110700
:1047D00090911207B101681B790B600F711F640D76
:1047E000751D80910B0790910C07ACDB8091110730
:1047F00090911207AC0148505109FA01E01BF10BEE
:10480000AC01092E000C660B770B84169506A606E4
:10481000B70638F420910D0730910E07C6010896AF
:104820000AC09101281B390BC9018C0D9D1D2091D7
:104830000B0730910C07820F931FAF0160E070E00F
:10484000D0D58F832091110730911207A101421B0F
:10485000530B9A01200F311F240D351D40E050E00D
:10486000682F80910B0790910C07A7D550C0C016F8
:10487000D106E206F306C8F46C197D0980910D0794
:1048800090910E078C0D9D1D5DDB8091110790911D
:104890001207B101681B790B6C0D7D1D640D751D30
:1048A00080910B0790910C070CC0C601861B970BDB
:1048B00020910B0730910C07B201685F7F4F820F88
:1048C000931F40DB8091110790911207AC01092ED4
:1048D000000C660B770B84169506A606B70638F40F
:1048E00020910D0730910E07C60108960AC0D1012C
:1048F000A81BB90BCD018C0D9D1D20910B0730918C
:104900000C07820F931FA20160E070E06AD58F83CD
:1049100061E070E0CE01079615DB182FB8E04B0E72
:10492000511C611C711CC40CD51CE61CF71C54CE18
:104930008C859D85880F991FED81FE81E80FF91FF9
:10494000488959896A897B89808191810E94A30D58
:104950004C855D854F5F5F4F5D874C878E859F855A
:1049600008969F878E8705CE2C893D89488959896D
:104970006A897B89CE0101960E947112F0CD1123C4
:1049800019F08C899D8902DB69960FB6F894DEBF19
:104990000FBECDBFDF91CF911F910F91FF90EF9090
:1049A000DF90CF90BF90AF909F908F907F906F904F
:1049B0005F904F903F902F900895CF93DF93EC013D
:1049C000AC0160E070E0CB019ADDAE0161E070E027
:1049D00080E090E0DF91CF9192CDCF938091170747
:1049E000909118071BDAC82F81110BC060E070E0AE
:1049F000CB010E94790861E070E080E090E00E94C5
:104A000079088C2FCF9108950F931F9389019A01F4
:104A1000AB01BC01809117079091180749DA1F91EB
:104A20000F9108953F924F925F926F927F928F9273
:104A30009F92AF92BF92CF92DF92EF92FF920F932D
:104A40001F93CF93DF93CDB7DEB767970FB6F89478
:104A5000DEBF0FBECDBF6C017B015A0180911B07E9
:104A6000882331F080911B07882309F45FC30AC0B3
:104A70006BE177E080911707909118071ADA81119E
:104A800055C3F0CF80911A071A821982882309F43E
:104A90006AC0E0E94E2EEFE55E2E66246394712C29
:104AA00000E010E098012F5F384FAE014F5F5F4F7D
:104AB00061E070E08091170790911807D0D9982E87
:104AC00081114DC089819A81080F191F01151105A7
:104AD00009F445C081E0481A51086108710839F4A9
:104AE00060912607709127078DEE90E030C00A3064
:104AF000110589F549E050E060E070E081E097E061
:104B000074D460912607709127078823F1F0809173
:104B1000090790E068177907D9F48EEE90E0D7D9AD
:104B200088E0E1E0F7E0DE01199601900D928A95A8
:104B3000E1F720912607309127072F5F3F4F33275A
:104B400030932707209326070AC08FEE90E0BFD945
:104B50001A82198204C00A3011050CF4A3CF81E037
:104B600029813A8124C000E010E078E0672E712CA2
:104B700029E030E02C0F3D1F200F311FAE014F5FA9
:104B80005F4FB301601B710B80911707909118075D
:104B900066D9982E29813A81811108C0020F131F0E
:104BA0000115110519F00830110514F381E01216F2
:104BB00013060CF080E09110B6C2882309F4B6C247
:104BC00080911A07811104C019861A861B861C86DB
:104BD00089859A85AB85BC858031910508F0A6C290
:104BE000FC018827EC57FF4F8F4F0C94BF31D60143
:104BF0001696ED91FC91179780819181A281B381E6
:104C000089839A83AB83BC83AE014F5F5F4F64E0BF
:104C100070E085E190E07FC18D859E85D6D90097B3
:104C200031F42FEF3FEFA90161E070E00EC0FC010D
:104C300080809180A280B380A701C501B4010E9449
:104C40001C0DA501940160E070E08DE190E069C267
:104C50008D859E85BAD9009721F42FEF3FEFA901EA
:104C600010C0DC018D909D90AD90BD90AD0195017F
:104C70008401B701C6010E94BE09A50194018823E1
:104C800019F061E070E002C060E070E08BE190E05C
:104C900048C28D859E8599D9009721F42FEF3FEF6B
:104CA000A9010FC0FC0181909190A190B190BF012A
:104CB000A5019401C6010E94C10BA501940188239E
:104CC00019F061E070E002C060E070E08CE190E01B
:104CD00028C2D6011496ED91FC911597008111819F
:104CE000F80182809380A080B18060E1462E512C33
:104CF000612C712C49825A826B827C8288E090E020
:104D0000A0E0B0E08D839E83AF83B8879E012F5EC5
:104D10003F4FAE014F5F5F4F68E070E08091170733
:104D2000909118077DD8882319F000E010E0BBC0EF
:104D300089899A890897C9F7D801ED90FC90B8E065
:104D4000EB0EF11CEE0CFF1CEE0CFF1CC7010E94C9
:104D50000E328C01892B49F349825A826B827C8204
:104D6000C7010F2C000CAA0BBB0B8D839E83AF8356
:104D7000B8879E012F5E3F4FAE014F5F5F4F68E0E7
:104D800070E080911707909118074AD881118BC065
:104D900089899A89089709F086C0D6011296ED9103
:104DA000FC9113974081518162817381D8014D93A9
:104DB0005D936D937C9313974481558166817781D0
:104DC00014964D935D936D937C9317974085518511
:104DD0006285738518964D935D936D937C931B97B5
:104DE00084859585A685B785F80184879587A687EC
:104DF000B787108A118A128A138A84E090E0A0E0B3
:104E0000B0E0848B958BA68BB78B8091CA02909172
:104E1000CB02A0E0B0E0808F918FA28FB38FC5014D
:104E20000B2C000CAA0BBB0B848F958FA68FB78F12
:104E3000F401D801909680E090E08A159B0554F427
:104E40004191519160E070E04D935D936D937D933E
:104E50000196F3CF9E012F5E3F4FA801B7018091CD
:104E60001707909118070E94101F81111CC0898993
:104E70009A898E159F05B9F4A70160E070E0C8011A
:104E8000B0D28B8B9E012F5E3F4FAE014D5E5F4FC8
:104E900061E070E080911707909118070E94101F41
:104EA00081E080931A07C80167960FB6F894DEBFB9
:104EB0000FBECDBFDF91CF911F910F91FF90EF906B
:104EC000DF90CF90BF90AF909F908F907F906F902A
:104ED0005F904F903F900C94A3328D859E85AF8557
:104EE000B8890097A105B10521F481E080931907E5
:104EF0001DC16BD8009789F481E090E0A0E0B0E09C
:104F000089839A83AB83BC83AE014F5F5F4F64E0BC
:104F100070E082E190E06BDA09C1BC01C6010E9439
:104F2000CC0719821A821B821C82AE014F5F5F4F31
:104F300064E070E082E190E05ADA8111F7C0D5CFE9
:104F4000D6011496ED91FC9115970190F081E02D1A
:104F5000008511858FEF89830115110509F472C051
:104F6000D8016D907C90A280B38020E030E060E0BA
:104F700070E080E090E0861597050CF5F801A281BD
:104F8000B381A20FB31F1296ED91FC911397EE0F10
:104F9000FF1FEA0DFB1D0190F081E02D16960D908C
:104FA000BC91A02DEA9FA001EB9F500DFA9F500DE0
:104FB0001124640F751F0196285F3F4FDCCF83E1FA
:104FC00090E00E94671F8111B1C0C12CD12CE12C4F
:104FD000F12CE614F7047CF5D8011296ED91FC91C2
:104FE0001397EC0DFD1D80809180A281B381AA0FE3
:104FF000BB1FAA0DBB1D2D913C9186819781289FD7
:105000002001299F500C389F500C1124B201C4017B
:105010000E94A21F382E920140E050E06981C40135
:10502000CCD18983B8E0CB0ED11C31107FC0EFEF1B
:10503000EE1AFE0ACECF61E070E0CE0101960E942A
:10504000A21F74C060E070E083E190E00E94671FDF
:105050006DC040E050E060E070E081E190E0C7D9D1
:10506000811164C0812C912C5401C501B4010E94AE
:10507000A50980916C04882321F0A701C501B40122
:105080003EDAA701C501B4010E94A5088A948928C7
:105090008A288B2829F0812C912C54018394E5CF08
:1050A00010921B0710921A071092270710922607DA
:1050B00080911707909118070E945F1F37C081E009
:1050C00090E090936E0480936D0440E050E060E0C7
:1050D00070E086E190E01FCF81E0D5018C9326C07F
:1050E0008D859E850E94E51F009731F42FEF3FEFDD
:1050F000A90161E070E013C0FC012081318142818F
:105100005381CA01B9012C8B3D8B4E8B5F8B0E9462
:105110007C0D2C893D894E895F8960E070E08EE1CD
:1051200090E097D903C0C7010E94C61F67960FB6CB
:10513000F894DEBF0FBECDBFDF91CF911F910F91CD
:10514000FF90EF90DF90CF90BF90AF909F908F90A7
:105150007F906F905F904F903F900895CF92DF9235
:10516000EF92FF92CF93DF93EC01C12CD12C76010B
:10517000C701B6010E94A509AE01C701B601BFD99A
:10518000AE01C701B6010E94A50880911307909156
:105190001407009731F00E94A33210921407109266
:1051A0001307CA94CD28CE28CF2829F0C12CD12CA2
:1051B0007601C394DDCF80911A07882359F040E02F
:1051C00050E060E070E084E190E011D9F82E109298
:1051D0001A0701C0F12C80911B07882341F010921F
:1051E0001B0781E090E09093CB028093CA028091EC
:1051F0001707909118070E94621F809117079091DE
:1052000018070E94571F8F2DDF91CF91FF90EF90CD
:10521000DF90CF900895CF93DF93EC01AC0160E075
:1052200070E0CB010E94E211AE0161E070E080E02D
:1052300090E0DF91CF910C94E21160E070E0CB013F
:105240000E944E1261E070E080E090E00C944E12FB
:10525000CF92DF92EF92FF920F931F93CF93DF9342
:10526000EC016A017B0100E010E098010E94CC0D86
:1052700001E010E020E030E0B701A601CE010E947D
:10528000CC0DDF91CF911F910F91FF90EF90DF90A8
:10529000CF90089568EE73E080E090E00E94791767
:1052A00080E090E0089526E040E050E16EE070E09C
:1052B0008AE794E00E94B3198AE794E00E94FD18FF
:1052C000892B29F08AE794E00E941719F5CF80E036
:1052D00090E00895AF92BF92CF92DF92EF92FF924B
:1052E0000F931F93CF93DF931F921F92CDB7DEB71B
:1052F0007A018901F901118210828AE794E06983B9
:105300007A830E94FD1869817A81892B99F15B016A
:10531000DD24D39485E6C82E80912807811124C00E
:105320008AE794E00E94171985369105A9F7D09273
:105330002807F501C1925F01F801808191810196F2
:1053400091838083E9CF8AE794E00E9417198F3F09
:10535000FFEF9F0749F0F50181935F01F80180811C
:105360009181019691838083F801808191818E15CE
:105370009F0548F380E090E00F900F90DF91CF9170
:105380001F910F91FF90EF90DF90CF90BF90AF9063
:1053900008950F931F93CF93DF93EA0189018AE762
:1053A00094E00E94921CF801D183C08380E090E0D9
:1053B000DF91CF911F910F910895DC01A40FB51FCC
:1053C000240F351FAD01481B590B4217530738F402
:1053D000ED91E627F0E0EF54FD4F6491F3CF862F77
:1053E00008959A01AB016FEFE8CFCF93FC01E60F70
:1053F000F71FE40FF51FC081F4DF91E0C81390E0C0
:10540000892FCF910895CF92DF92EF92FF920F9361
:105410001F93CF93DF936C018B017A01EC01C65D82
:10542000D84F888187FF04C0FB011182108224C0FD
:105430008CE08C9D90018D9D300D11248881A901F7
:10544000480F511D87FD5A958091290790E0481714
:10545000590794F48881A901480F511D87FD5A9579
:10546000CA01FA01EE0FFF1F8E0F9F1FFC01E25DC4
:10547000F84F808186FD19C088818F5F88838CE01A
:105480008C9D90018D9D300D11248881A901480FBC
:10549000511D87FD5A958091290790E048175907BB
:1054A000BCF488818C3044F113C08881280F311DF1
:1054B00087FD3A95F901EE0FFF1F2E0F3F1FF901EF
:1054C000E25DF84F808160E08F730E94CE18D4CFE8
:1054D000F80180819181049680349C4918F480E41D
:1054E0009CE904C0F801808191810496F7019183C1
:1054F00080838FEF888345C0F80140815181888186
:10550000B901680F711D87FD7A95CB01FB01EE0F84
:10551000FF1F8E0F9F1FFC01E25DF84F818192817A
:10552000840F951FF701918380838881A901480F1B
:10553000511D87FD5A95CA01FA01EE0FFF1F8E0F0C
:105540009F1FFC01E25DF84F808186FF1AC08881B1
:10555000280F311D87FD3A95F901EE0FFF1F2E0F21
:105560003F1FF901E25DF84F808161E08F73DF91A9
:10557000CF911F910F91FF90EF90DF90CF900C94FF
:10558000CE18DF91CF911F910F91FF90EF90DF9098
:10559000CF9008951F920F920FB60F9211240BB661
:1055A0000F922F933F934F935F936F937F938F93BC
:1055B0009F93AF93BF93EF93FF9348E850E064E865
:1055C00070E081E090E01FDFFF91EF91BF91AF911C
:1055D0009F918F917F916F915F914F913F912F910B
:1055E0000F900BBE0F900FBE0F901F9018951F923B
:1055F0000F920FB60F9211240BB60F922F933F9379
:105600004F935F936F937F938F939F93AF93BF93CA
:10561000EF93FF9348E950E064E970E082E090E0A6
:10562000F2DEFF91EF91BF91AF919F918F917F91AA
:105630006F915F914F913F912F910F900BBE0F9003
:105640000FBE0F901F9018951F920F920FB60F92DA
:1056500011240BB60F922F933F934F935F936F9349
:105660007F938F939F93AF93BF93EF93FF9348EAFA
:1056700050E064EA70E083E090E0C5DEFF91EF91D6
:10568000BF91AF919F918F917F916F915F914F915A
:105690003F912F910F900BBE0F900FBE0F901F9058
:1056A00018951F920F920FB60F9211240BB60F92FE
:1056B0002F933F934F935F936F937F938F939F931A
:1056C000AF93BF93EF93FF9348E251E064E271E040
:1056D00080E090E098DEFF91EF91BF91AF919F91B4
:1056E0008F917F916F915F914F913F912F910F908B
:1056F0000BBE0F900FBE0F901F901895FC0190915C
:1057000029079033A0F481E0890F809329079083C3
:10571000892F90E0FC01EE0FFF1F8E0F9F1FFC01F1
:10572000E25DF84F88EB9BE09283818308958FEFD1
:1057300080830895DF92EF92FF920F931F93CF9390
:10574000DF93EC01D62E7A0189018881803308F03D
:1057500069C061E08D2D0E9492188881E82FF0E0E9
:105760009F01220F331FE20FF31FE25DF84F9D2DC3
:105770009F732081207CD22ED92AD08260E272E0F1
:10578000AB014E195F0957FF02C04D5F5F4F559542
:10579000479555954795498340E659E09A01201B66
:1057A000310B37FF02C02D5F3F4F3595279535955B
:1057B00027952A836CE086D59CE0899FB00111244F
:1057C00040E050E09A01260F371FF901EE0FFF1F4E
:1057D0002E0F3F1FF901E25DF84F908196FD16C034
:1057E0004F5F5F4F4C30510569F7813021F51092C2
:1057F000800082E0809381001092850010928400E6
:10580000B19A80916F00826080936F00E881F0E030
:10581000CF01880F991FE80FF91FE25DF84F8081D3
:10582000806480838881DF91CF911F910F91FF90D9
:10583000EF90DF900895823061F410929000809391
:105840009100109295001092940088BB8093710093
:10585000DDCF833069F41092A00082E08093A10034
:105860001092A5001092A40089BB80937200CECF45
:105870008111CCCF1092200182E0809321011092FF
:105880002501109224018ABB80937300BFCF20E6CC
:1058900039E040E252E04ECFFC019081903380F538
:1058A000818128E830E0281B310987FD3395220FDC
:1058B000331F220F331F621773077CF0828128E5A4
:1058C00032E0281B310987FD3395220F331F220F49
:1058D000331F621773070CF49B0122503109220F0A
:1058E000331F4FB7F894892F90E0FC01EE0FFF1F94
:1058F0008E0F9F1FFC01E25DF84F328321834FBF63
:105900000895AF92BF92CF92DF92EF92FF920F93E2
:105910001F93CF93DF93EC01603282E078070CF0A5
:105920003FC077FD06C0653B71052CF064EB70E06D
:1059300002C060E070E0898128E830E05901A81ACF
:10594000B10887FDB394AA0CBB1CAA0CBB1C0B2C82
:10595000000CCC08DD08072E000C880B990B2A815F
:1059600008E512E0021B110927FD1395000F111F16
:10597000000F111F012E000C220B330B3F932F93AE
:105980001F930F9314EBE12EF12C00E010E020E0C8
:1059900030E0A9010E94E01D0F900F900F900F9032
:1059A000CE01DF91CF911F910F91FF90EF90DF908B
:1059B000CF90BF90AF9070CF8091BF0791E0980FCC
:1059C0009093BF07882349F021E030E03093C1076E
:1059D0002093C0078093BF07089578940E947202B5
:1059E000F8948091BF0781508093BF070C94F21305
:1059F000FF920F931F93CF93DF931F921F92CDB708
:105A0000DEB7FF24F394FA820E94B2170E94211E8F
:105A100000915F0310916003F8011182108260E031
:105A200070E080E090E00E94FB130E94DD05789416
:105A3000C80182960E94FA1381E090E00E94F6135A
:105A40001982AE014F5F5F4F61E070E0F801828123
:105A500093810E94A0138981882311F0F801F6A296
:105A60000E940114F8940E948D1EF801808191819A
:105A7000892B19F481E096A1911180E08A837894B2
:105A80007894FF24F3948A81882371F11982AE01FE
:105A90004F5F5F4F61E070E0F801828193810E9467
:105AA000DC138981882311F0F801F6A2F8018081C6
:105AB0009181892B31F481E096A1911103C080E09E
:105AC00001C081E08093BE079091BE0781E09111F3
:105AD00080E08A838A81882319F00E94AC1E02C06C
